:020000040800F2
:1000000000500020390900082504000827040008D2
:10001000290400082B0400082D040008000000003B
:100020000000000000000000000000002F04000895
:100030003104000800000000330400083504000803
:100040008109000881090008810900088109000868
:100050008109000881090008810900088109000858
:100060008109000881090008810900088109000848
:100070008109000881090008810900088109000838
:100080008109000881090008810900088109000828
:100090008109000881090008810900088109000818
:1000A0008109000881090008810900088109000808
:1000B00081090008810900088109000881090008F8
:1000C00081090008810900088109000881090008E8
:1000D00081090008810900088109000881090008D8
:1000E000810900088109000881090008000000005A
:1000F0000000000000000000000000000000000000
:0C01000000000000000000005FF808F1A3
:10010C000348044B834202D0034B03B1184770479A
:10011C000400002004000020000000000548064BED
:10012C001B1AD90F01EBA301491002D0034B03B1E9
:10013C001847704704000020040000200000000055
:10014C0010B5064C237843B9FFF7DAFF044B13B113
:10015C000448AFF300800123237010BD040000207D
:10016C0000000000A40A000808B5054B1BB10549A6
:10017C000548AFF30080BDE80840FFF7CFBF00BFD4
:10018C000000000008000020A40A000882B0002330
:10019C00019300932C4A136843F4803313602A4B69
:1001AC001B6803F400330093019B01330193009B04
:1001BC001BB9019BB3F5A06FF1D1234B1B6813F452
:1001CC00003F06D001230093009B012B04D002B00A
:1001DC00704700230093F7E71C4B1A6842F010029B
:1001EC001A601A6822F007021A601A6842F00202BA
:1001FC001A60A3F580535A685A605A685A605A6854
:10020C0042F480625A605A6822F47C125A605A682E
:10021C0042F4E8125A601A6842F080721A600A4B73
:10022C001B6813F0007FFAD0074B5A6822F00302C8
:10023C005A605A6842F002025A60034B5B6803F042
:10024C000C03082BF9D1C2E7001002400020024039
:10025C0008B5FFF79BFF08BD08B5104B1A6842F0B4
:10026C0001021A6059680E4A0A405A601A6822F054
:10027C00847222F480321A601A6822F480221A6086
:10028C005A6822F4FE025A604FF41F029A60FFF77C
:10029C00DFFF044B4FF000629A6008BD0010024073
:1002AC000000FFF800ED00E030B5CB7803F00F0252
:1002BC00964613F0100F03D091F802E04EEA020EAE
:1002CC000B78FBB10568002301E042610133072B79
:1002DC0017D801229A40B1F800C032EA0C0CF5D1C3
:1002EC009C004FF00F0C0CFA04FC25EA0C050EFADE
:1002FC0004F42543CC78282CE7D0482CE6D10261B5
:10030C00E4E705600B88FF2B25D94568002303E043
:10031C00CC78482C1CD00133072B1BD803F1080CCC
:10032C00012202FA0CF2B1F800C032EA0C0CF2D144
:10033C009C004FF00F0C0CFA04FC25EA0C0C0EFA86
:10034C0004F444EA0C05CC78282CE1D14261DFE7B7
:10035C000261E0E7456030BD8368194201D001209D
:10036C0070470020704701617047416170470AB1C6
:10037C00016170474161704721B1054A936903439C
:10038C0093617047024A936923EA000393617047B3
:10039C000010024010B500F072FA592201210846F3
:1003AC0000F07CF965220221012000F077F9184A4F
:1003BC000421012000F0A8F9164C08232246012143
:1003CC00022000F0BDF902236FF057020121032037
:1003DC0000F0DEF904234AF6BB220521032000F0CD
:1003EC0009FA10234AF6AB320121042000F028FA56
:1003FC0000F01CF800F04CF84FF47A7000F06DF837
:10040C00621C144608230121022000F099F9F1E73F
:10041C00BC0A0008FC1D30017047FEE7FEE7FEE752
:10042C00FEE77047704770477047000030B583B0E7
:10043C0001211020FFF7A0FF10238DF807304FF497
:10044C006045ADF8045003238DF80630054C01A926
:10045C002046FFF729FF29462046FFF784FF03B00B
:10046C0030BD00BF0010014008B54FF400510248E8
:10047C00FFF77BFF08BD00BF0010014008B54FF42B
:10048C0000510248FFF76FFF08BD00BF001001408C
:10049C0008B54FF400510548FFF75EFF10B9FFF7A0
:1004AC00EDFF08BDFFF7E0FFFBE700BF00100140C8
:1004BC0000EBC000C0004FF0E023586100229A61AD
:1004CC0005221A614FF0E0231B6913F4803FF9D029
:1004DC004FF0E02304221A61704710B504E04FF48A
:1004EC007A70FFF7E5FF2046441E0028F7D110BDB7
:1004FC0070B582B001210820FFF73EFF14238DF860
:10050C00073003238DF806304FF40066ADF8046015
:10051C000C4C01A92046FFF7C7FE4FF48065ADF8DF
:10052C00045001A92046FFF7BFFE012231462046A8
:10053C00FFF71DFF012229462046FFF718FF02B0E6
:10054C0070BD00BF000C014010B50D4C01224FF4E2
:10055C0080612046FFF70BFF01224FF4006120461B
:10056C00FFF705FF00224FF480612046FFF7FFFEE6
:10057C0000224FF400612046FFF7F9FE10BD00BFCA
:10058C00000C014010B50A4C00224FF4806120464B
:10059C00FFF7EDFE01224FF400612046FFF7E7FE66
:1005AC0001224FF480612046FFF7E1FE10BD00BF31
:1005BC00000C014070B50646002416E08022224152
:1005CC00124D32404FF480612846FFF7D0FE0122D5
:1005DC004FF400612846FFF7CAFE00224FF4006179
:1005EC002846FFF7C4FE0134E4B2072CE6D9074CC9
:1005FC0001224FF400612046FFF7B9FE00224FF4B0
:10060C0000612046FFF7B3FE70BD00BF000C014037
:10061C0010B50446FFF798FF7820FFF7CBFF0020BA
:10062C00FFF7C8FF2046FFF7C5FFFFF7ABFF10BD74
:10063C0010B50446FFF788FF7820FFF7BBFF40207A
:10064C00FFF7B8FF2046FFF7B5FFFFF79BFF10BD84
:10065C0010B50C4640F0B000FFF7DAFF200940F06F
:10066C001000FFF7D5FF04F00F00FFF7D1FF10BD0E
:10067C0038B5002509E00020FFF7DAFF0134E4B2B9
:10068C0014F0800FF7D00135EDB2072D05D80021FD
:10069C002846FFF7DDFF0024F2E738BDF8B5064623
:1006AC0015464F1EFF00FFB201384000394600F0DE
:1006BC00FE00FFF7CDFF002409E0A5F12002114B4D
:1006CC0003EB0213185DFFF7B3FF0134E4B2072C00
:1006DC00F3D97000C0B201383946C0B2FFF7B8FF89
:1006EC0000240BE0A5F1200104F10802054B03EBFB
:1006FC000113985CFFF79CFF0134E4B2072CF1D98D
:10070C00F8BD00BFC80A0008F8B507460E461546E6
:10071C00002406E0A119C9B23846FFF7BFFF013427
:10072C00E4B22A5D002AF5D1F8BD0246012002E0B0
:10073C0002FB00F019464B1E0029F9D1704700004E
:10074C002DE9F8438146884617461E46002419E0D9
:10075C0004EB0805EDB2311B01390A20FFF7E5FF68
:10076C00B7FBF0F0094AA2FB0032D20802EB82027E
:10077C00A0EB42023032D2B229464846FFF78EFF38
:10078C000134E4B2B442E3D3BDE8F883CDCCCCCC95
:10079C002DE9F843804689461E46171E04DB2B22A2
:1007AC00FFF77CFF00241FE02D22FFF777FF7F422D
:1007BC00F8E704EB0905EDB2311B01390A20FFF70C
:1007CC00B4FFB7FBF0F00A4AA2FB0032D20802EBEE
:1007DC008202A0EB42023032691CD2B2C9B240464E
:1007EC00FFF75CFF0134E4B2B442E2D3BDE8F88316
:1007FC00CDCCCCCC2DE9F04180460F4616461D469B
:10080C00002407E0E1193732C9B24046FFF746FF32
:10081C000134E4B2AC4211D2291B01391020FFF78C
:10082C0084FFB6FBF0F202F00F02092AEAD8E119B4
:10083C003032C9B24046FFF731FFE9E7BDE8F0813D
:10084C002DE9F8438146884617461E46002412E0DF
:10085C0004EB0805EDB2311B01390220FFF765FFEF
:10086C00B7FBF0F202F00102303229464846FFF79E
:10087C0015FF0134E4B2B442EAD3BDE8F88308B5FD
:10088C00002204E00133B3F57A7FFBD30132B2F5D9
:10089C007A7F01D20023F6E7FFF72AFEAE20FFF79E
:1008AC00B7FED520FFF7B4FE8020FFF7B1FEA820DD
:1008BC00FFF7AEFE3F20FFF7ABFED320FFF7A8FEFD
:1008CC000020FFF7A5FE4020FFF7A2FEA120FFF7B6
:1008DC009FFEC820FFF79CFEDA20FFF799FE12203E
:1008EC00FFF796FE8120FFF793FECF20FFF790FED7
:1008FC00D920FFF78DFEF120FFF78AFEDB20FFF7F2
:10090C0087FE3020FFF784FEA420FFF781FEA6208F
:10091C00FFF77EFE8D20FFF77BFE1420FFF778FE9D
:10092C00AF20FFF775FEFFF7A3FE08BDFFF794FCA1
:10093C000B480C490C4A002302E0D458C450043331
:10094C00C4188C42F9D3094A094C002301E0136006
:10095C000432A242FBD300F00FF8FFF71BFD7047E7
:10096C000000002004000020C41000080400002037
:10097C00B8010020FEE7000070B50F4B0F4DAB42E5
:10098C00A3EB050607D00024B61055F8043B013440
:10099C009847A642F9D800F07FF8094D094B5E1B29
:1009AC00AB424FEAA60606D0002455F8043B0134AE
:1009BC009847A642F9D870BDB8100008B8100008C6
:1009CC00B8100008C0100008704700BF704700BF87
:1009DC00024B13B1024800F005B87047000000004C
:1009EC00FD090008002301461A46184600F014B809
:1009FC0038B5074D074C2C1BA41005D0013C55F8FD
:100A0C00043D9847002CF9D1BDE8384000F04AB8B5
:100A1C00C4100008C01000082DE9F8431B4D064611
:100A2C00286898460F469146FFF7CEFF184B1C6876
:100A3C001CB3286865681F2D22DC4EB96B1C02356F
:100A4C00636044F82570FFF7C1FF0020BDE8F88310
:100A5C00012304EB8501C1F88890D4F88821AB40C0
:100A6C001A43022EC4F88821C1F80881E6D1D4F8C3
:100A7C008C211A43C4F88C21E0E7064C1C60D8E7A3
:100A8C00FFF7A4FF4FF0FF30E0E700BF00000020AD
:100A9C002400002028000020F8B500BFF8BC08BCDA
:100AAC009E467047F8B500BFF8BC08BC9E46704720
:100ABC006D69616F6D69616F0000000000000000DE
:100ACC00000000000000000000000000000000F822
:100ADC0000000000000000333000000000100C0685
:100AEC00100C0600000000000000000040C0784020
:100AFC00C0784000043F04043F040400007088FCEC
:100B0C0008300000001820FF211E0000F008F00043
:100B1C00E018000000211C031E211E0000F00888B4
:100B2C00700000001E2123241927211010160E001E
:100B3C00000000000000000000000000000000E0C9
:100B4C0018040200000000071820400000020418DE
:100B5C00E00000000040201807000000404080F03A
:100B6C00804040000202010F01020200000000F070
:100B7C00000000000101011F010101000000000044
:100B8C000000000080B070000000000000000000B9
:100B9C000000000000010101010101010000000042
:100BAC0000000000003030000000000000000000D9
:100BBC0080601804006018060100000000E01008B6
:100BCC000810E000000F102020100F00001010F88B
:100BDC00000000000020203F2020000000700808CA
:100BEC00088870000030282422213000003008884A
:100BFC00884830000018202020110E000000C02072
:100C0C0010F8000000070424243F240000F8088892
:100C1C00880808000019212020110E0000E010881F
:100C2C0088180000000F112020110E000038080851
:100C3C00C83808000000003F000000000070880861
:100C4C0008887000001C222121221C0000E01008E2
:100C5C000810E0000000312222110F00000000C03B
:100C6C00C0000000000000303000000000000080D8
:100C7C0000000000000080600000000000008040C8
:100C8C0020100800000102040810200040404040E1
:100C9C004040400004040404040404000008102034
:100CAC004080000000201008040201000070480879
:100CBC000808F0000000003036010000C030C828E1
:100CCC00E810E0000718272423140B000000C0389C
:100CDC00E0000000203C23020227382008F8888816
:100CEC0088700000203F202020110E00C030080822
:100CFC0008083800071820202010080008F80808F9
:100D0C000810E000203F202020100F0008F88888F1
:100D1C00E8081000203F20202320180008F88888BD
:100D2C00E8081000203F200003000000C030080835
:100D3C000838000007182020221E020008F80800BE
:100D4C000008F808203F210101213F20000808F885
:100D5C00080800000020203F2020000000000808A8
:100D6C00F8080800C08080807F00000008F888C068
:100D7C0028180800203F20012638200008F8080019
:100D8C0000000000203F20202020300008F8F80050
:100D9C00F8F80800203F003F003F200008F830C062
:100DAC000008F808203F200007183F00E010080852
:100DBC000810E0000F10202020100F0008F8080881
:100DCC000808F000203F210101010000E010080894
:100DDC000810E0000F18242438504F0008F88888B9
:100DEC0088887000203F2000030C30200070880899
:100DFC00080838000038202121221C00180808F8A7
:100E0C00080818000000203F2000000008F8080027
:100E1C000008F808001F202020201F0008788800F8
:100E2C0000C83808000007380E010000F80800F868
:100E3C000008F800033C0700073C03000818688012
:100E4C008068180820302C03032C30200838C80088
:100E5C00C83808000000203F2000000010080808D7
:100E6C00C83808002038262120201800000000FE79
:100E7C00020202000000007F40404000000C30C025
:100E8C0000000000000000010638C0000002020251
:100E9C00FE000000004040407F0000000000040203
:100EAC00020204000000000000000000000000002E
:100EBC00000000008080808080808080000202041E
:100ECC000000000000000000000000000000808016
:100EDC00808000000019242222223F2008F8008084
:100EEC0080000000003F112020110E000000008047
:100EFC0080800000000E11202020110000000080D6
:100F0C008088F800000E112020103F200000808007
:100F1C0080800000001F222222221300008080F01B
:100F2C00888888180020203F202000000000808046
:100F3C0080808000006B94949493600008F800808B
:100F4C0080800000203F210000203F2000809898E6
:100F5C00000000000020203F202000000000008046
:100F6C009898000000C08080807F000008F8000086
:100F7C0080808000203F24022D302000000808F8DB
:100F8C00000000000020203F202000008080808096
:100F9C0080808000203F20003F20003F8080008028
:100FAC0080800000203F210000203F200000808036
:100FBC0080800000001F202020201F0080800080E7
:100FCC008000000080FFA12020110E000000008096
:100FDC0080808000000E112020A0FF808080800087
:100FEC008080800020203F212000010000008080B4
:100FFC00808080000033242424241900008080E0A9
:10100C00808000000000001F202000008080000075
:10101C0000808000001F202020103F208080800056
:10102C000080808000010E30080601008080008066
:10103C00008080800F300C030C300F00008080008B
:10104C00808080000020312E0E31200080808000B6
:10105C000080808080818E70180601000080808066
:10106C00808080000021302C222130000000000004
:10107C00807C020200000000003F404000000000A5
:10108C00FF00000000000000FF0000000002027CD6
:10109C00800000000040403F0000000000060101FD
:0C10AC000202040400000000000000002C
:0810B800DD09000875010008C4
:0410C0004D010008D6
:0410C40020000020E8
:0400000508000939AD
:00000001FF
