:020000040800F2
:100000000050002091230008E11F0008E31F0008B2
:10001000E51F0008E71F0008E91F000800000000B6
:1000200000000000000000000000000011060008B1
:10003000EB1F000800000000B1060008F5060008EC
:10004000D9230008D9230008D9230008D9230008A0
:10005000D9230008D9230008D9230008D923000890
:10006000D9230008D9230008D9230008D923000880
:10007000D9230008D9230008D9230008D923000870
:10008000D9230008D9230008D9230008D923000860
:10009000D9230008D9230008D9230008D923000850
:1000A000D9230008D9230008D9230008D923000840
:1000B000D9230008D9230008D9230008D923000830
:1000C000D9230008D9230008D9230008D923000820
:1000D000D9230008ED1F0008D9230008D923000800
:1000E00081200008D9230008D9230008000000005F
:1000F0000000000000000000000000000000000000
:0C01000000000000000000005FF808F1A3
:10011000844641EA000313F0030349D1403A23D354
:100120000B6803604B6843608B688360CB68C36077
:100130000B6903614B6943618B698361CB69C3615F
:100140000B6A03624B6A43628B6A8362CB6AC36247
:100150000B6B03634B6B43638B6B8363CB6BC3632F
:1001600040304031403ADBD230320BD30B68036071
:100170004B6843608B688360CB68C360103010317C
:10018000103AF3D20C3205D351F8043B40F8043B4B
:10019000043AF9D2043208D0D2071CBF11F8013B4F
:1001A00000F8013B01D30B8803806046704700BF15
:1001B000082A13D38B07B1D010F00303AED0C3F1DC
:1001C0000403D21ADB071CBF11F8013B00F8013B06
:1001D000A4D331F8023B20F8023B9FE7043AD9D37D
:1001E000013A11F8013B00F8013BF9D20B7803709A
:1001F0004B7843708B788370604670470348044B9C
:10020000834202D0034B03B118477047100000200F
:1002100010000020000000000548064B1B1AD90FF3
:1002200001EBA301491002D0034B03B118477047FB
:1002300010000020100000200000000010B5064C47
:10024000237843B9FFF7DAFF044B13B10448AFF347
:1002500000800123237010BD10000020000000006A
:100260009C25000808B5054B1BB105490548AFF3AF
:100270000080BDE80840FFF7CFBF00BF00000000CE
:10028000140000209C25000882B0002301930093F5
:100290002C4A136843F4803313602A4B1B6803F421
:1002A00000330093019B01330193009B1BB9019B19
:1002B000B3F5A06FF1D1234B1B6813F4003F06D0B8
:1002C00001230093009B012B04D002B07047002350
:1002D0000093F7E71C4B1A6842F010021A601A6884
:1002E00022F007021A601A6842F002021A60A3F5AF
:1002F00080535A685A605A685A605A6842F4806259
:100300005A605A6822F47C125A605A6842F4E81221
:100310005A601A6842F080721A600A4B1B6813F028
:10032000007FFAD0074B5A6822F003025A605A68DD
:1003300042F002025A60034B5B6803F00C03082B87
:10034000F9D1C2E7001002400020024008B5FFF7D3
:100350009BFF08BD08B5104B1A6842F001021A60F5
:1003600059680E4A0A405A601A6822F0847222F4D0
:1003700080321A601A6822F480221A605A6822F4C5
:10038000FE025A604FF41F029A60FFF7DFFF044B32
:100390004FF000629A6008BD001002400000FFF8B4
:1003A00000ED00E0064A136803405269024202D0A1
:1003B0001BB900207047002070470120704700BF24
:1003C00000040140014B5861704700BF0004014028
:1003D00030B5CB7803F00F02964613F0100F03D020
:1003E00091F802E04EEA020E0B78FBB1056800239B
:1003F00001E042610133072B17D801229A40B1F87E
:1004000000C032EA0C0CF5D19C004FF00F0C0CFA36
:1004100004FC25EA0C050EFA04F42543CC78282CBC
:10042000E7D0482CE6D10261E4E705600B88FF2B9A
:1004300025D94568002303E0CC78482C1CD0013333
:10044000072B1BD803F1080C012202FA0CF2B1F8B9
:1004500000C032EA0C0CF2D19C004FF00F0C0CFAE9
:1004600004FC25EA0C0C0EFA04F444EA0C05CC78E2
:10047000282CE1D14261DFE70261E0E7456030BD51
:100480000AB10161704741617047000021B1054A1E
:100490009369034393617047024A936923EA000317
:1004A00093617047001002408088C0F308007047D5
:1004B0000388194201D00120704700207047090AC3
:1004C00001238B409BB2DB439BB20380704700004B
:1004D000034B0360034B0B6080231360704700BF26
:1004E0008806002088040020034B0360034B0B6048
:1004F0004FF48073136070472C0400202C00002000
:1005000000F1080343604FF0FF328260C360036173
:1005100000230360704700230361704743684B600A
:100520009A688A60516099600861036801330360CA
:10053000704730B40D68B5F1FF3F11D000F10803EA
:100540001C465B681A68AA42FAD963684B609960D6
:100550008C606160086103680133036030BC7047E0
:100560000469F2E70369416882688A604168516002
:100570005A68824206D0002202611A68013A1A6063
:100580001868704782685A60F5E7000082B000235F
:1005900001930D4B1B68B3F1FF3F08D04FF05003A0
:1005A00083F31188BFF36F8FBFF34F8FFEE74FF0D8
:1005B000500383F31188BFF36F8FBFF34F8F019BFD
:1005C000002BFCD002B070470400002006480068F1
:1005D000006880F3088862B661B6BFF34F8FBFF33F
:1005E0006F8F00DF00BF000008ED00E04FF0807368
:1005F00040F8043C21F0010140F8081C034B40F88E
:100600000C3C40F8202C4038704700BF8D05000896
:10061000074B19680868B0E8F00F80F30988BFF34A
:100620006F8F4FF0000080F311884EF00D0E704771
:10063000401800204FF0500383F31188BFF36F8FF1
:10064000BFF34F8F0B4A136801331360012B00D0A7
:1006500070474FF0E023D3F8043D13F0FF0FF7D0BD
:100660004FF0500383F31188BFF36F8FBFF34F8FA9
:10067000FEE700BF04000020094B1B6843B94FF0A0
:10068000500383F31188BFF36F8FBFF34F8FFEE7E3
:10069000013B034A13600BB983F31188704700BF15
:1006A0000400002000000000000000000000000026
:1006B000EFF30980BFF36F8F0D4B1A6820E9F00F3D
:1006C00010602DE908404FF0500080F3118801F0D0
:1006D000A7F84FF0000080F31188BDE808401968C2
:1006E0000868B0E8F00F80F30988BFF36F8F704798
:1006F0004018002008B54FF0500383F31188BFF372
:100700006F8FBFF34F8F00F05DFF28B14FF0E023F4
:100710004FF08052C3F8042D002383F3118808BDE5
:100720004FF0E022002313619361054B1B680549DC
:10073000A1FB03139B09013B53610723136170471E
:1007400000000020D34D621010B582B02A4B1A78F9
:10075000D2B20192FF221A701B78DBB28DF80330FF
:100760009DF8033003F05003244A1370244B0722F2
:100770001A6009E0224A1368013B13609DF80330B8
:100780005B00DBB28DF803309DF8033013F0800F6F
:10079000F0D11B4B1B68032B08D04FF0500383F3A1
:1007A0001188BFF36F8FBFF34F8FFEE71B02144A10
:1007B000136003F4E0631360019BDBB20E4A137015
:1007C0004FF0E023D3F8202D42F47002C3F8202D1F
:1007D000D3F8202D42F07042C3F8202DFFF7A0FF80
:1007E0000024084B1C60FFF7F1FE01F019F8FFF739
:1007F000CDFE204602B010BD00E400E0E806002077
:10080000E406002004000020EFF305830F2B0FD92E
:10081000114A9B5CDBB2114A12789A4208D94FF018
:10082000500383F31188BFF36F8FBFF34F8FFEE741
:100830004FF0E023D3F80C3D03F4E063084A12685C
:10084000934208D94FF0500383F31188BFF36F8FA1
:10085000BFF34F8FFEE77047F0E300E0E8060020AB
:10086000E4060020124A12F0070F1ED0D11D21F01D
:100870000701C1F5406313440A460E480260002197
:1008800041601344083B23F007030B4803605960A1
:100890001960991A51601360084B1960084B196070
:1008A000084B4FF000421A6070474FF44063E4E792
:1008B00004070020FC060020F8060020F0060020B7
:1008C000F4060020EC060020154B1A461B688342F4
:1008D000FBD3516802EB010C844509D0416800EB61
:1008E000010C634509D00360904218D01060704736
:1008F0004068014451601046F0E710B4094C246888
:10090000A3420AD05B681944416013681B68036006
:10091000904200D0106010BC70470460F8E7704748
:10092000FC060020F806002038B5044600F03CFE26
:10093000364B1B68B3B1364B1B681C424CD1002CA4
:100940004CD004F1080214F0070F02D022F0070285
:100950000832002A51D02F4B1B6893424FD32E49A7
:100960000C6804E0FFF77EFFE5E721461C4663685C
:10097000934202D22368002BF7D1244B1B68A34279
:100980003FD00D68083523680B6063689B1A102BF5
:1009900010D9A01810F0070F08D04FF0500383F3C0
:1009A0001188BFF36F8FBFF34F8FFEE74360626024
:1009B000FFF78AFF626817490B689B1A0B6017499B
:1009C00009688B4201D215490B60114B1B68134318
:1009D00063600023236002E0002500E0002500F0B2
:1009E0007DFE15F0070F0ED04FF0500383F31188F2
:1009F000BFF36F8FBFF34F8FFEE70025EFE70025B2
:100A0000EDE70025EBE7284638BD00BFF8060020DB
:100A1000EC060020F4060020FC060020F006002072
:100A200080B338B50446A0F1080550F8043C164AD6
:100A30001268134208D14FF0500383F31188BFF3BB
:100A40006F8FBFF34F8FFEE750F8081C41B14FF096
:100A5000500383F31188BFF36F8FBFF34F8FFEE70F
:100A600023EA020340F8043C00F09EFD54F8041C05
:100A7000064A13680B4413602846FFF725FF00F071
:100A80002DFE38BD704700BFEC060020F4060020A4
:100A900010B50446FFF7CEFDA26BE36B9A4204D07B
:100AA0000024FFF7E9FD204610BD0124F9E710B549
:100AB0000446FFF7BFFDA36B23B90124FFF7DCFD5C
:100AC000204610BD0024F9E770B504461546866B34
:100AD000026C5AB903681BB100200136A66370BDD1
:100AE000406800F0C7FF00236360F6E76DB98068D7
:100AF000FFF70EFBA368226C1344A3606268934265
:100B000019D32368A3602846E7E7C068FFF700FB16
:100B1000E368226C51429B1AE3602268934202D23E
:100B200063680B44E360022D01D00020D5E726B1B5
:100B3000013E0020D1E72846CFE70020CDE708B5E9
:100B40000346026C62B10846D9681144D960D3F8F3
:100B500004C0614501D31968D960D968FFF7D8FA94
:100B600008BD38B50546FFF765FD95F8454064B208
:100B700001E0013C64B2002C0ADD6B6A43B105F16F
:100B8000240000F0CDFE0028F3D000F05DFFF0E778
:100B9000FF2385F84530FFF76FFDFFF74BFD95F814
:100BA000444064B201E0013C64B2002C0ADD2B69D0
:100BB00043B105F1100000F0B3FE0028F3D000F0BF
:100BC00043FFF0E7FF2385F84430FFF755FD38BDBC
:100BD00038B5E0B10D460446FFF72CFD2368E26B03
:100BE000216C01FB023060600020A063A360013A29
:100BF00002FB0133E360FF2384F8443084F845307E
:100C0000FDB9236963B9FFF737FD012038BD4FF007
:100C1000500383F31188BFF36F8FBFF34F8FFEE74D
:100C200004F1100000F07CFE0028ECD04FF0E0232F
:100C30004FF08052C3F8042DBFF34F8FBFF36F8F77
:100C4000E1E704F11000FFF75BFC04F12400FFF77B
:100C500057FCD8E738B51D46049C0B4649B92460BB
:100C6000E063236401212046FFF7B2FF84F84C5073
:100C700038BD2260F4E740B94FF0500383F3118888
:100C8000BFF36F8FBFF34F8FFEE710B584B01C46E4
:100C9000844653B192B189B94FF0500383F3118860
:100CA000BFF36F8FBFF34F8FFEE74FF0500383F317
:100CB0001188BFF36F8FBFF34F8FFEE76AB15023E8
:100CC0000393039B502B13D04FF0500383F31188F1
:100CD000BFF36F8FBFF34F8FFEE70029EFD04FF0C8
:100CE000500383F31188BFF36F8FBFF34F8FFEE77D
:100CF000012384F8463000949DF818306046FFF7D1
:100D0000A9FF204604B010BDF0B585B0019288B1AE
:100D10000F461D460446B1B1022D20D1E36B012BD5
:100D20001DD04FF0500383F31188BFF36F8FBFF3D3
:100D30004F8FFEE74FF0500383F31188BFF36F8F9F
:100D4000BFF34F8FFEE7036C002BE5D04FF050034D
:100D500083F31188BFF36F8FBFF34F8FFEE700F06F
:100D600079FE064658B9019B002B48D04FF050033E
:100D700083F31188BFF36F8FBFF34F8FFEE7002619
:100D80003DE02A4639462046FFF79EFE636A7BB95E
:100D900048B14FF0E0234FF08052C3F8042DBFF369
:100DA0004F8FBFF36F8FFFF767FC012005B0F0BDD9
:100DB00004F1240000F0B4FD0028F4D04FF0E0234B
:100DC0004FF08052C3F8042DBFF34F8FBFF36F8FE6
:100DD000E9E7FFF751FC0020E8E702A800F0E6FD94
:100DE000012619E0002384F8443021E0002384F830
:100DF000453023E02046FFF7B4FE00F06FFCFFF71C
:100E000019FCA26BE36B9A42BBD3022DB9D0019BB4
:100E1000002BDED0002EE0D0FFF72EFC00F0C4FB4C
:100E2000FFF708FC94F8442052B2B2F1FF3FD9D04A
:100E300094F8452052B2B2F1FF3FD7D0FFF71CFC27
:100E400001A902A800F0BEFDD8B92046FFF720FE98
:100E50000028CFD0019904F1100000F02DFD2046AC
:100E6000FFF77FFE00F03AFC0028C8D14FF0E023E6
:100E70004FF08052C3F8042DBFF34F8FBFF36F8F35
:100E8000BDE72046FFF76DFE00F028FC00208DE74F
:100E90002DE9F84390B10F4616461C460546B1B100
:100EA000022C20D1EB6B012B1DD04FF0500383F3AC
:100EB0001188BFF36F8FBFF34F8FFEE74FF05003E2
:100EC00083F31188BFF36F8FBFF34F8FFEE7036C7F
:100ED000002BE5D04FF0500383F31188BFF36F8FE1
:100EE000BFF34F8FFEE7FFF78FFCEFF311884FF052
:100EF000500383F31188BFF36F8FBFF34F8FAA6B3B
:100F0000EB6B9A4206D3022C04D0002088F31188A0
:100F1000BDE8F88395F845904FFA89F9224639469D
:100F20002846FFF7D1FDB9F1FF3F06D009F10103D3
:100F30005BB285F845300120E8E76B6A0BB9012008
:100F4000E4E705F1240000F0EBFC18B126B1012024
:100F50003060DBE70120D9E70120D7E7F0B585B0A5
:100F6000019290B10F460446C1B100F073FD0646F0
:100F700000BB019B002B5ED04FF0500383F3118820
:100F8000BFF36F8FBFF34F8FFEE74FF0500383F334
:100F90001188BFF36F8FBFF34F8FFEE7036C002BF9
:100FA000E3D04FF0500383F31188BFF36F8FBFF38B
:100FB0004F8FFEE700263EE039462046FFF7BFFD93
:100FC000013DA563236923B9FFF756FB012005B056
:100FD000F0BD04F1100000F0A3FC0028F4D04FF0A5
:100FE000E0234FF08052C3F8042DBFF34F8FBFF3BF
:100FF0006F8FE9E7FFF740FB0020E8E702A800F069
:10100000D5FC012621E0002384F8443029E00023A8
:1010100084F845302BE02046FFF7A3FD00F05EFB8F
:1010200009E02046FFF79DFD00F058FB2046FFF742
:101030003EFD00283FD1FFF7FDFAA56B002DBBD187
:10104000019B002BD6D0002ED8D0FFF715FB00F067
:10105000ABFAFFF7EFFA94F844305BB2B3F1FF3F1D
:10106000D1D094F845305BB2B3F1FF3FCFD0FFF75A
:1010700003FB01A902A800F0A5FC0028D1D120465D
:10108000FFF715FD0028C6D0019904F1240000F0F7
:1010900013FC2046FFF765FD00F020FB0028CAD1B5
:1010A0004FF0E0234FF08052C3F8042DBFF34F8F71
:1010B000BFF36F8FBFE7002089E700000023072BF5
:1010C0000CD8074A52F833200AB10133F7E7044A33
:1010D00042F8331002EBC30250607047704700BF04
:1010E0000413002070B504460D461646FFF7A2FA19
:1010F00094F844305BB2B3F1FF3F0DD094F8453023
:101100005BB2B3F1FF3F0BD0FFF7B6FAA36B5BB155
:101110002046FFF726FD70BD002384F84430EDE73C
:10112000002384F84530EFE73246294604F12400D5
:1011300000F0DAFBECE70000084B1B681B6823B9E2
:10114000074B4FF0FF321A607047044B1B68DB6897
:10115000DB685A68024B1A60704700BFB413002066
:101160004C1300202DE9F04780460D46174699465E
:10117000089EDDF824A00A9C9200A521206B01F0B6
:101180002DF9236B07F18042013A03EB820727F028
:1011900007074FF0000CBCF10F0F09D815F80C3001
:1011A00004EB0C0282F8343013B10CF1010CF2E7BD
:1011B000002384F84330372E00D93726E662E664F0
:1011C00000252565201DFFF7A6F904F11800FFF79B
:1011D000A2F92461C6F13806A6616462656584F8E7
:1011E00058504A4641463846FFF700FA2060BAF1A7
:1011F000000F01D0CAF80040BDE8F08738B50024E0
:1012000007E004EB840293000E481844FFF778F9D6
:101210000134372CF5D90C4D2846FFF771F90B4CEA
:101220002046FFF76DF90A48FFF76AF90948FFF70A
:1012300067F90948FFF764F9084B1D60084B1C600B
:1012400038BD00BFE0130020CC130020B8130020ED
:101250009C1300208813002070130020B41300207A
:10126000B013002010B50446FFF7E4F9224A1368D2
:1012700001331360214B1B685BB1214B1B686BB9B9
:101280001E4B1B68DA6AE36A9A4207D81B4B1C6044
:1012900004E01A4B1C601368012B29D0194A13680B
:1012A000013313606364E06A174B1B68984201D9ED
:1012B000154B186000EB8000211D144B03EB8000E0
:1012C000FFF72CF9FFF7D8F90D4B1B687BB10B4BDF
:1012D0001B68DA6AE36A9A4209D24FF0E0234FF0C2
:1012E0008052C3F8042DBFF34F8FBFF36F8F10BD33
:1012F000FFF784FFD2E700BF6C13002040180020E6
:10130000601300205013002064130020E01300201D
:1013100010B5044690F8593063B1012B11D0022B5F
:101320000ED04FF0500383F31188BFF36F8FBFF3DC
:101330004F8FFEE7006BFFF773FB2046FFF770FB54
:1013400010BDFFF76DFBFBE70F4B1B68D3B110B56A
:10135000FFF770F90D4BDB68DC68201DFFF702F921
:101360000B4A1368013B1360074A1368013B136083
:10137000FFF782F92046FFF7CBFF034B1B68002BDA
:10138000E6D110BD704700BF8413002088130020F1
:101390006C13002008B5FFF7D7FF074B1B68012B24
:1013A000F9D94FF0E0234FF08052C3F8042DBFF37A
:1013B0004F8FBFF36F8FEEE7E013002070B5044648
:1013C0000D46174B1E68174B18680430FFF7CAF814
:1013D000B4F1FF3F0DD03444124B1B685C60A64251
:1013E00010D9114B18680F4B19680431FFF7A1F899
:1013F00070BD002DEFD00B4B196804310B48FFF77F
:101400008DF8F5E70A4B1868064B19680431FFF7A9
:1014100090F8084B1B68A342EAD9064B1C60E7E72B
:101420006813002040180020B01300207013002023
:10143000B41300204C13002030B587B00B9C7CB156
:101440000C9DB5B15C250495049D5C2D1AD04FF020
:10145000500383F31188BFF36F8FBFF34F8FFEE705
:101460004FF0500383F31188BFF36F8FBFF34F8F9B
:10147000FEE74FF0500383F31188BFF36F8FBFF384
:101480004F8FFEE70C9D2C63022485F85940002401
:101490000394029505AC01940A9C0094FFF762FE48
:1014A0000C98FFF7DFFE059807B030BD2DE9F0433B
:1014B00085B00746884614461E469000FFF734FA6A
:1014C00008B381465C20FFF72FFA0546A8B1C0F8A3
:1014D0003090002380F85930039302900D9B0193C4
:1014E0000C9B00933346224641463846FFF73AFEAE
:1014F0002846FFF7B7FE012007E04846FFF790FABD
:101500004FF0FF3001E04FF0FF3005B0BDE8F08351
:1015100010B588B000240594069407AA06A905A86A
:10152000FEF7D6FF059B0293069B0193009423468A
:10153000079A17491748FFF77FFF174B1860C0B18C
:1015400000F04CFB012815D14FF0500383F31188B4
:10155000BFF36F8FBFF34F8F104B4FF0FF321A6006
:101560000F4B01221A600F4B00221A60FFF7ECF8B4
:1015700003E00020B0F1FF3F01D008B010BD4FF0F4
:10158000500383F31188BFF36F8FBFF34F8FFEE7D4
:10159000B425000895130008481300204C130020C0
:1015A0006013002068130020024A1368013313609F
:1015B000704700BF44130020014B1868704700BFFC
:1015C00068130020F8B53A4B1B68002B64D1394BE7
:1015D0001D6801351D60C5B9374B1B681B6843B1D9
:1015E0004FF0500383F31188BFF36F8FBFF34F8F1A
:1015F000FEE7314A1168314B186810601960304AB3
:10160000136801331360FFF797FD2E4B1B68AB4245
:1016100038D900272C4B1B68DB6A03EB83039A0045
:101620002A4B9B58012B3CD901273AE00127224B3A
:101630001B681B6843B3204B1B68DB68DC6863686E
:101640009D4226D3261D3046FEF78CFFA36A1BB1B0
:1016500004F11800FEF786FFE36A1D4A1268934200
:1016600001D91B4A136003EB83039A0031461748E4
:101670001044FEF753FFE26A134B1B68DB6A9A4281
:10168000D4D2D4E70027D2E70E4B4FF0FF321A60D6
:10169000C0E70C4A1360BDE70E4A136801331360BC
:1016A00000270D4B1B6803B101273846F8BD00BF6A
:1016B0004413002068130020B4130020B01300204E
:1016C000541300204C13002040180020E013002089
:1016D000641300205C1300205813002038B5354BEC
:1016E0001B6843B94FF0500383F31188BFF36F8F2A
:1016F000BFF34F8FFEE7FEF79DFF2E4B1A68013AAE
:101700001A601B68002B4FD12B4B1B680BB90024B0
:101710004BE00024294B1B681BB3284BDB68DC68BB
:1017200004F11800FEF71EFF251D2846FEF71AFFDC
:10173000E06A234B1B68984201D9214B186000EBEB
:10174000800029461F4B03EB8000FEF7E7FEE26AAC
:101750001D4B1B68DB6A9A42DCD31C4B01221A60CA
:10176000D8E70CB1FFF7E8FC194B1C6884B9174B9C
:101770001C68D4B14FF0E0234FF08052C3F8042D21
:10178000BFF34F8FBFF36F8F01240EE0013C07D0F2
:10179000FFF718FF0028F9D00C4B01221A60F5E77B
:1017A0000B4B00221A60E2E70024FEF765FF20469B
:1017B00038BD00BF441300206C1300209C13002090
:1017C00064130020E013002040180020581300206C
:1017D0005C13002010B5A8B10446104B1B6843B140
:1017E0004FF0500383F31188BFF36F8FBFF34F8F18
:1017F000FEE7FFF7D9FE00212046FFF7DFFDFFF7E8
:101800006DFF48B94FF0E0234FF08052C3F8042D2C
:10181000BFF34F8FBFF36F8F10BD00BF4413002085
:10182000204B1B681BB1204B01221A6070471E4BD6
:1018300000221A601D4B1B6803EB83018A001C49C0
:101840008A585AB90BB1013BF6E74FF0500383F3C6
:101850001188BFF36F8FBFF34F8FFEE7084603EB8E
:1018600083018A00024451684968516003EB830C8C
:101870004FEA8C020832024491420BD003EB830200
:1018800091000B4A0A445268D1680A4A1160074A1B
:1018900013607047486862469100054A0A445060E8
:1018A000ECE700BF4413002058130020641300200D
:1018B000E01300204018002058B110B50C46094A2A
:1018C00011681831FEF735FE01212046FFF776FD3D
:1018D00010BD4FF0500383F31188BFF36F8FBFF338
:1018E0004F8FFEE74018002038B570B10D46144602
:1018F0000A4A11681831FEF711FE0CB14FF0FF359E
:1019000021462846FFF75AFD38BD4FF0500383F3B8
:101910001188BFF36F8FBFF34F8FFEE74018002091
:1019200038B5C368DC6824B304F118052846FEF70F
:1019300019FE184B1B682BBB251D2846FEF712FE0F
:10194000E06A154B1B68984201D9134B186000EBF5
:1019500080002946114B03EB8000FEF7DFFDE26AB1
:101960000F4B1B68DB6A9A4211D901200D4B18609E
:1019700038BD4FF0500383F31188BFF36F8FBFF36F
:101980004F8FFEE729460848FEF7C8FDE7E700202D
:10199000EEE700BF4413002064130020E013002092
:1019A00040180020581300209C130020034B1B6894
:1019B0000360034B1B684360704700BF5413002053
:1019C00068130020D8B170B50C46054601B3FEF788
:1019D00031FE1B4B19686B68C81A2268B2F1FF3FD1
:1019E00027D0184E3668D5F800C0B44501D08B42D8
:1019F00024D9824215D80023236001241AE04FF035
:101A0000500383F31188BFF36F8FBFF34F8FFEE74F
:101A10004FF0500383F31188BFF36F8FBFF34F8FE5
:101A2000FEE75B1A134423602846FFF7BFFF00243C
:101A300000E00024FEF720FE204670BD0124F9E7F7
:101A40006813002054130020014B01221A607047D4
:101A500058130020054B1B6833B1054B1B680BB1B5
:101A6000002070470220704701207047601300205B
:101A70004413002000283BD038B504461E4B1B6899
:101A8000834208D04FF0500383F31188BFF36F8F68
:101A9000BFF34F8FFEE7036D43B94FF0500383F35D
:101AA0001188BFF36F8FBFF34F8FFEE7013B0365D4
:101AB000C16AC26C91421DD00BB1002038BD051D1A
:101AC0002846FEF74FFDE06CE062C0F13803A361E9
:101AD0000A4B1B68984201D9084B186000EB800044
:101AE0002946074B03EB8000FEF718FD0120E5E7D0
:101AF000002070470020E1E7401800206413002018
:101B0000E0130020064B1A681368B3FA83F35B09ED
:101B1000036013B9D368186870470020704700BF8E
:101B20004419002008B54160006191420CD8D21AD6
:101B300083699A4201D3012008BD011D094B186831
:101B4000FEF7F7FC0020F7E79A4201D2994206D24D
:101B5000011D054B1868FEF7ECFC0020ECE70120A6
:101B6000EAE700BF401900204419002030B583B0D7
:101B7000FEF760FD114B1B681BB1FEF77DFD03B046
:101B800030BD0F4D2846FEF7BBFC0E4C2046FEF73D
:101B9000B7FC0D4B1D600D4B1C60002300930C4BDC
:101BA0000C4A10210A20FFF766F8044B1860002841
:101BB000E3D00949FFF782FADFE700BF3C190020B4
:101BC0005C19002048190020441900204019002009
:101BD0004418002094180020BC25000810B588B0D7
:101BE000FFF7C4FF124B1B68CBB100240594069489
:101BF00007AA06A905A8FEF777FC059B0293069B9A
:101C00000193022300932346079A0A490A48FFF7E3
:101C100013FC0A4B186010B1012008B010BD4FF042
:101C2000500383F31188BFF36F8FBFF34F8FFEE72D
:101C30003C190020C4250008191F0008381900208D
:101C4000B8B19C4603461848006858B300B585B043
:101C500000910192029305291CDCFFF7FBFE02288C
:101C600010D000231A4669460F480068FFF74CF869
:101C700015E04FF0500383F31188BFF36F8FBFF36C
:101C80004F8FFEE70023069A694607480068FFF772
:101C90003BF804E0002362466946FFF7F9F805B017
:101CA0005DF804FB002070473C19002070B582B03D
:101CB0001A4B1B681A6852B3DB681E68DC68251D66
:101CC0002846FEF74FFC636A20469847E369012BDC
:101CD000EED1A36933449E4207D263602461294652
:101CE0000E4B1868FEF725FCE2E7002100910B4639
:101CF00032462046FFF7A4FF0028D9D14FF0500309
:101D000083F31188BFF36F8FBFF34F8FFEE7044A51
:101D1000106802490860136002B070BD44190020C9
:101D20004019002038B50546FFF746FC0446074B2E
:101D30001B68834205D800232B60044B1C6020469F
:101D400038BDFFF7B3FF01232B60F6E734190020FD
:101D500070B582B006460D4614490968C968CC685A
:101D6000201DFEF7FFFBE169012904D0636A2046CC
:101D7000984702B070BDA16933462A4631442046D7
:101D8000FFF7D0FE0028F1D0002100910B4632462B
:101D90002046FFF755FF0028E8D14FF0500383F3AA
:101DA0001188BFF36F8FBFF34F8FFEE744190020F8
:101DB00070B582B006460C46FFF7F6FB01A8FFF7A8
:101DC000B1FF019B23BB054644B9B0420CD3FFF7DA
:101DD00085FC29463046FFF7BBFF1BE00E4B1B6816
:101DE0001C68B4FA84F464092246711B0B4B186812
:101DF000FFF778F9FFF772FC60B94FF0E0234FF07E
:101E00008052C3F8042DBFF34F8FBFF36F8F01E0F3
:101E1000FFF764FC02B070BD401900203C1900209F
:101E200010B588B002E0049B002B0FDA002204A951
:101E3000384B1868FFF792F8002869D0049B002BF4
:101E4000F1DA07990698059B9847ECE7069C6369C9
:101E500013B1201DFEF786FB03A8FFF763FF049B69
:101E6000092BE3D801A252F823F000BF951E000809
:101E7000951E0008951E00082D1E0008DB1E000898
:101E8000011F0008951E0008951E00082D1E000861
:101E9000DB1E0008059BA169024619442046FFF796
:101EA00041FE0028C2D0636A20469847E369012BAF
:101EB000BCD1A269002100910B460598024420463E
:101EC000FFF7BEFE0028B1D14FF0500383F3118815
:101ED000BFF36F8FBFF34F8FFEE70599A16131B15B
:101EE0000346024601442046FFF71CFE9EE74FF0E2
:101EF000500383F31188BFF36F8FBFF34F8FFEE75B
:101F000094F82C30002B91D12046FEF789FD8DE707
:101F100008B010BD3C19002000B583B001A8FFF740
:101F2000F1FD0199FFF744FFFFF77AFFF6E70000A4
:101F300008B5094A0121084600F0C2F94FF4FA70C9
:101F4000FFF748FC054A0121084600F0B9F94FF4B3
:101F5000FA70FFF73FFCECE7CC250008D825000815
:101F600008B5094A0121032000F0AAF94FF47A705C
:101F7000FFF730FC054A0121032000F0A1F94FF4DE
:101F80007A70FFF727FCECE7E4250008F02500084D
:101F900000B583B000F0A5F90C4A0121042000F03F
:101FA0008FF90024019401250095234680220849D9
:101FB0000848FFF77BFA01940095234680220649E2
:101FC0000648FFF773FAFFF7A3FAFEE7FC250008BF
:101FD00010260008311F000818260008611F00089D
:101FE0007047FEE7FEE7FEE7FEE7704708B52021F1
:101FF0001E48FEF75DFA012800D008BD1B48FEF719
:1020000053FAC0B21A4B1B788BB9232804D0202175
:102010001648FEF754FAF0E7164B1B78002BF6D162
:10202000134B01221A70144B00221A70EFE7012B98
:102030000ED0022BEBD10A28E9D100230C4A1370F1
:102040000D4A12780D498B540A4B01221A70DEE7B3
:10205000232806D0084A13780849C854013313705E
:10206000D5E7034B02221A70D1E700BF00380140C8
:1020700071190020721900207019002074190020B5
:1020800008B54FF40040FEF78DF9012800D008BDD7
:10209000044A1388013313804FF40040FEF792F98D
:1020A000F5E700BF0800002070B582B001210820CC
:1020B000FEF7ECF914238DF8073003238DF8063072
:1020C0004FF40066ADF804600C4C01A92046FEF701
:1020D0007FF94FF48065ADF8045001A92046FEF762
:1020E00077F9012231462046FEF7CAF90122294636
:1020F0002046FEF7C5F902B070BD00BF000C0140DC
:1021000010B50D4C01224FF480612046FEF7B8F95E
:1021100001224FF400612046FEF7B2F900224FF48D
:1021200080612046FEF7ACF900224FF400612046A2
:10213000FEF7A6F910BD00BF000C014010B50A4C17
:1021400000224FF480612046FEF79AF901224FF4F5
:1021500000612046FEF794F901224FF48061204689
:10216000FEF78EF910BD00BF000C014070B50646A9
:10217000002416E080222241124D32404FF480614B
:102180002846FEF77DF901224FF400612846FEF74C
:1021900077F900224FF400612846FEF771F9013407
:1021A000E4B2072CE6D9074C01224FF40061204627
:1021B000FEF766F900224FF400612046FEF760F951
:1021C00070BD00BF000C014010B50446FFF798FF3A
:1021D0007820FFF7CBFF0020FFF7C8FF2046FFF76E
:1021E000C5FFFFF7ABFF10BD10B50446FFF788FF32
:1021F0007820FFF7BBFF4020FFF7B8FF2046FFF72E
:10220000B5FFFFF79BFF10BD10B50C4640F0B000C6
:10221000FFF7DAFF200940F01000FFF7D5FF04F0C8
:102220000F00FFF7D1FF10BD38B5002509E00020F1
:10223000FFF7DAFF0134E4B214F0800FF7D0013574
:10224000EDB2072D05D800212846FFF7DDFF002459
:10225000F2E738BDF8B5064615464F1EFF00FFB23F
:1022600001384000394600F0FE00FFF7CDFF0024A2
:1022700009E0A5F12002114B03EB0213185DFFF7F3
:10228000B3FF0134E4B2072CF3D97000C0B20138B7
:102290003946C0B2FFF7B8FF00240BE0A5F12001DA
:1022A00004F10802054B03EB0113985CFFF79CFF58
:1022B0000134E4B2072CF1D9F8BD00BF2026000894
:1022C000F8B507460E461546002406E0A119C9B226
:1022D0003846FFF7BFFF0134E4B22A5D002AF5D18A
:1022E000F8BD08B5002204E00133B3F57A7FFBD3D3
:1022F0000132B2F57A7F01D20023F6E7FFF7D4FE70
:10230000AE20FFF761FFD520FFF75EFF8020FFF7CB
:102310005BFFA820FFF758FF3F20FFF755FFD320B2
:10232000FFF752FF0020FFF74FFF4020FFF74CFF61
:10233000A120FFF749FFC820FFF746FFDA20FFF78B
:1023400043FF1220FFF740FF8120FFF73DFFCF2022
:10235000FFF73AFFD920FFF737FFF120FFF734FFEF
:10236000DB20FFF731FF3020FFF72EFFA420FFF71F
:102370002BFFA620FFF728FF8D20FFF725FF142055
:10238000FFF722FFAF20FFF71FFFFFF74DFF08BD4C
:10239000FDF7E0FF0B480C490C4A002302E0D4583B
:1023A000C4500433C4188C42F9D3094A094C0023A1
:1023B00001E013600432A242FBD300F05FF8FFF7A4
:1023C000E7FD70470000002010000020242C0008CA
:1023D00010000020701B0020FEE7000070B586078B
:1023E00047D0541E002A3ED00346CAB201E0013C49
:1023F00039D303F8012B9D07F9D1032C2CD9CDB289
:1024000005EB05250F2C1A4605EB054534D9A4F13B
:10241000100C2CF00F0603F1100EB6444FEA1C1CF2
:10242000C2E90055C2E9025510327245F8D10CF1EB
:10243000010214F00C0F03EB021204F00F0C13D086
:10244000ACF1040323F003030433134442F8045BA8
:102450009342FBD10CF003042CB1C9B21C4403F825
:10246000011BA342FBD170BD64461346002CF4D17E
:10247000F9E703461446C0E7A446E1E770B50F4B01
:102480000F4DAB42A3EB050607D00024B61055F85C
:10249000043B01349847A642F9D800F07FF8094D73
:1024A000094B5E1BAB424FEAA60606D0002455F846
:1024B000043B01349847A642F9D870BD182C000897
:1024C000182C0008182C0008202C0008704700BFAA
:1024D000704700BF024B13B1024800F005B87047C7
:1024E00000000000F5240008002301461A461846A3
:1024F00000F014B838B5074D074C2C1BA41005D0BC
:10250000013C55F8043D9847002CF9D1BDE838400E
:1025100000F04AB8242C0008202C00082DE9F843CC
:102520001B4D0646286898460F469146FFF7CEFF9A
:10253000184B1C681CB3286865681F2D22DC4EB937
:102540006B1C0235636044F82570FFF7C1FF002063
:10255000BDE8F883012304EB8501C1F88890D4F825
:102560008821AB401A43022EC4F88821C1F80881A3
:10257000E6D1D4F88C211A43C4F88C21E0E7064C4C
:102580001C60D8E7FFF7A4FF4FF0FF30E0E700BF83
:102590000C000020DC190020E0190020F8B500BF75
:1025A000F8BC08BC9E467047F8B500BFF8BC08BC34
:0425B0009E4670478C
:1025B40049444C4500000000546D72510000000075
:1025C400546D7220537663004672656552746F735E
:1025D400203000004672656552746F73203100002C
:1025E4004672656552746F732032000046726565E9
:1025F40052746F73203300004672656552746F73B2
:102604002054657374203030000000005461736BF3
:10261400203100005461736B203200000000000080
:10262400000000000000000000000000000000F8AE
:1026340000000000000000333000000000100C0611
:10264400100C0600000000000000000040C07840AC
:10265400C0784000043F04043F040400007088FC78
:1026640008300000001820FF211E0000F008F000D0
:10267400E018000000211C031E211E0000F0088841
:10268400700000001E2123241927211010160E00AB
:10269400000000000000000000000000000000E056
:1026A400180402000000000718204000000204186B
:1026B400E00000000040201807000000404080F0C7
:1026C400804040000202010F01020200000000F0FD
:1026D400000000000101011F0101010000000000D1
:1026E4000000000080B07000000000000000000046
:1026F40000000000000101010101010100000000CF
:102704000000000000303000000000000000000065
:1027140080601804006018060100000000E0100842
:102724000810E000000F102020100F00001010F817
:10273400000000000020203F202000000070080856
:1027440008887000003028242221300000300888D6
:10275400884830000018202020110E000000C020FE
:1027640010F8000000070424243F240000F808881F
:10277400880808000019212020110E0000E01088AC
:1027840088180000000F112020110E0000380808DE
:10279400C83808000000003F0000000000708808EE
:1027A40008887000001C222121221C0000E010086F
:1027B4000810E0000000312222110F00000000C0C8
:1027C400C000000000000030300000000000008065
:1027D4000000000000008060000000000000804055
:1027E400201008000001020408102000404040406E
:1027F40040404000040404040404040000081020C1
:102804004080000000201008040201000070480805
:102814000808F0000000003036010000C030C8286D
:10282400E810E0000718272423140B000000C03828
:10283400E0000000203C23020227382008F88888A2
:1028440088700000203F202020110E00C0300808AE
:1028540008083800071820202010080008F8080885
:102864000810E000203F202020100F0008F888887E
:10287400E8081000203F20202320180008F888884A
:10288400E8081000203F200003000000C0300808C2
:102894000838000007182020221E020008F808004B
:1028A4000008F808203F210101213F20000808F812
:1028B400080800000020203F202000000000080835
:1028C400F8080800C08080807F00000008F888C0F5
:1028D40028180800203F20012638200008F80800A6
:1028E40000000000203F20202020300008F8F800DD
:1028F400F8F80800203F003F003F200008F830C0EF
:102904000008F808203F200007183F00E0100808DE
:102914000810E0000F10202020100F0008F808080D
:102924000808F000203F210101010000E010080820
:102934000810E0000F18242438504F0008F8888845
:1029440088887000203F2000030C30200070880825
:10295400080838000038202121221C00180808F833
:10296400080818000000203F2000000008F80800B4
:102974000008F808001F202020201F000878880085
:1029840000C83808000007380E010000F80800F8F5
:102994000008F800033C0700073C0300081868809F
:1029A4008068180820302C03032C30200838C80015
:1029B400C83808000000203F200000001008080864
:1029C400C83808002038262120201800000000FE06
:1029D400020202000000007F40404000000C30C0B2
:1029E40000000000000000010638C00000020202DE
:1029F400FE000000004040407F0000000000040290
:102A040002020400000000000000000000000000BA
:102A140000000000808080808080808000020204AA
:102A240000000000000000000000000000008080A2
:102A3400808000000019242222223F2008F8008010
:102A440080000000003F112020110E0000000080D3
:102A540080800000000E1120202011000000008062
:102A64008088F800000E112020103F200000808094
:102A740080800000001F222222221300008080F0A8
:102A8400888888180020203F2020000000008080D3
:102A940080808000006B94949493600008F8008018
:102AA40080800000203F210000203F200080989873
:102AB400000000000020203F2020000000000080D3
:102AC4009898000000C08080807F000008F8000013
:102AD40080808000203F24022D302000000808F868
:102AE400000000000020203F202000008080808023
:102AF40080808000203F20003F20003F80800080B5
:102B040080800000203F210000203F2000008080C2
:102B140080800000001F202020201F008080008073
:102B24008000000080FFA12020110E000000008022
:102B340080808000000E112020A0FF808080800013
:102B44008080800020203F21200001000000808040
:102B5400808080000033242424241900008080E035
:102B6400808000000000001F202000008080000002
:102B740000808000001F202020103F2080808000E3
:102B84000080808000010E300806010080800080F3
:102B9400008080800F300C030C300F000080800018
:102BA400808080000020312E0E3120008080800043
:102BB4000080808080818E701806010000808080F3
:102BC400808080000021302C222130000000000091
:102BD400807C020200000000003F40400000000032
:102BE400FF00000000000000FF0000000002027C63
:102BF400800000000040403F00000000000601018A
:0C2C0400020204040000000000000000B8
:082C100000D5FF7F0100000068
:082C1800D52400086502000844
:042C20003D02000869
:102C240000A24A04AAAAAAAA01000000D8190020F6
:04000005080023913B
:00000001FF
