:020000040800F2
:1000000000500020250600084705000849050008A3
:100010004B0500084D0500084F05000800000000D2
:100020000000000000000000000000005105000872
:10003000530500080000000055050008570500089A
:100040006D0600086D0600086D0600086D060008C4
:100050006D0600086D0600086D0600086D060008B4
:100060006D0600086D0600086D0600086D060008A4
:100070006D0600086D0600086D0600086D06000894
:100080006D0600086D0600086D0600086D06000884
:100090006D0600086D0600086D0600086D06000874
:1000A0006D0600086D0600086D0600086D06000864
:1000B0006D0600086D0600086D0600086D06000854
:1000C0006D0600086D0600086D0600086D06000844
:1000D0006D0600086D0600086D0600086D06000834
:1000E000FD0500086D0600086D0600080000000010
:1000F0000000000000000000000000000000000000
:0C01000000000000000000005FF808F1A3
:10010C000348044B834202D0034B03B1184770479A
:10011C000800002008000020000000000548064BE5
:10012C001B1AD90F01EBA301491002D0034B03B1E9
:10013C00184770470800002008000020000000004D
:10014C0010B5064C237843B9FFF7DAFF044B13B113
:10015C000448AFF300800123237010BD0800002079
:10016C00000000009007000808B5054B1BB10549BD
:10017C000548AFF30080BDE80840FFF7CFBF00BFD4
:10018C00000000000C0000209007000882B0002343
:10019C00019300932C4A136843F4803313602A4B69
:1001AC001B6803F400330093019B01330193009B04
:1001BC001BB9019BB3F5A06FF1D1234B1B6813F452
:1001CC00003F06D001230093009B012B04D002B00A
:1001DC00704700230093F7E71C4B1A6842F010029B
:1001EC001A601A6822F007021A601A6842F00202BA
:1001FC001A60A3F580535A685A605A685A605A6854
:10020C0042F480625A605A6822F47C125A605A682E
:10021C0042F4E8125A601A6842F080721A600A4B73
:10022C001B6813F0007FFAD0074B5A6822F00302C8
:10023C005A605A6842F002025A60034B5B6803F042
:10024C000C03082BF9D1C2E7001002400020024039
:10025C0008B5FFF79BFF08BD08B5104B1A6842F0B4
:10026C0001021A6059680E4A0A405A601A6822F054
:10027C00847222F480321A601A6822F480221A6086
:10028C005A6822F4FE025A604FF41F029A60FFF77C
:10029C00DFFF044B4FF000629A6008BD0010024073
:1002AC000000FFF800ED00E0064A136803405269B5
:1002BC00024202D01BB90020704700207047012079
:1002CC00704700BF00040140014B5861704700BFEC
:1002DC000004014030B5CB7803F00F02964613F0C2
:1002EC00100F03D091F802E04EEA020E0B78FBB12E
:1002FC000568002301E042610133072B17D8012266
:10030C009A40B1F800C032EA0C0CF5D19C004FF0C9
:10031C000F0C0CFA04FC25EA0C050EFA04F4254328
:10032C00CC78282CE7D0482CE6D10261E4E70560B4
:10033C000B88FF2B25D94568002303E0CC78482C8B
:10034C001CD00133072B1BD803F1080C012202FA35
:10035C000CF2B1F800C032EA0C0CF2D19C004FF058
:10036C000F0C0CFA04FC25EA0C0C0EFA04F444EA0B
:10037C000C05CC78282CE1D14261DFE70261E0E783
:10038C00456030BD21B1054A9369034393617047C1
:10039C00024A936923EA00039361704700100240FC
:1003AC0021B1054AD3690343D3617047024AD3692B
:1003BC0023EA0003D36170470010024003889BB20C
:1003CC00214A904212D002F5006290420ED0B0F158
:1003DC00804F0BD0A2F59832904207D002F5806284
:1003EC00904203D002F58062904203D123F0700357
:1003FC004A881343154A904208D002F58062904215
:10040C0004D023F440739BB2CA88134303808B88B7
:10041C0083850B8803850C4B98420FD003F5006342
:10042C0098420BD003F54063984207D003F58063E4
:10043C00984203D003F58063984201D10B7A03866E
:10044C0001238382704700BF002C01400010004044
:10045C0000B5038C9BB223F010039BB20384028C77
:10046C0092B2B0F804E01FFA8EFEB0F818C01FFA72
:10047C008CFC2CF4E64C0B881B029BB24CEA030C54
:10048C0022F020020B891B019BB21A434B881B01E3
:10049C009BB21343134A904203D002F50062904280
:1004AC0017D123F080034A89120192B2134323F02F
:1004BC0040038A88120192B213432EF4406E8A894B
:1004CC00920092B24EEA020ECA89920092B242EAAD
:1004DC000E0EA0F804E0A0F818C0CA8802870384A6
:1004EC005DF804FB002C01400023038043808380D3
:1004FC00C380038143818381C381704729B1038801
:10050C009BB243F001030380704703889BB223F036
:10051C0001039BB20380704703899BB223F007034E
:10052C009BB2038170470187704708B500F00EF845
:10053C004FF4AF6000F054F8FEE77047FEE7FEE7BB
:10054C00FEE7FEE7704770477047704730B589B0DB
:10055C0001210846FFF724FF01210420FFF712FFB9
:10056C000223ADF81C3018238DF81F3003238DF8AF
:10057C001E3007A91948FFF7ADFE4FF08040FFF77A
:10058C00CBFF0024ADF81640ADF8124044F61F63C3
:10059C00ADF814304723ADF810308DF8184004A98D
:1005AC004FF08040FFF70AFF6846FFF79DFF60237E
:1005BC00ADF80030ADF80A400125ADF80250ADF8A9
:1005CC00064069464FF08040FFF742FF29464FF046
:1005DC008040FFF793FF09B030BD00BF0008014019
:1005EC0008B501464FF08040FFF79DFF08BD0000A5
:1005FC0008B54FF40040FFF757FE012800D008BDA6
:10060C00044A1388013313804FF40040FFF75CFE5B
:10061C00F5E700BF00000020FFF71EFE0B480C4959
:10062C000C4A002302E0D458C4500433C4188C4242
:10063C00F9D3094A094C002301E013600432A242A9
:10064C00FBD300F00FF8FFF770FF7047000000209D
:10065C0008000020B407000808000020BC0100209E
:10066C00FEE7000070B50F4B0F4DAB42A3EB050638
:10067C0007D00024B61055F8043B01349847A64225
:10068C00F9D800F07FF8094D094B5E1BAB424FEADD
:10069C00A60606D0002455F8043B01349847A64220
:1006AC00F9D870BDA8070008A8070008A80700081B
:1006BC00B0070008704700BF704700BF024B13B172
:1006CC00024800F005B8704700000000E906000879
:1006DC00002301461A46184600F014B838B5074DE9
:1006EC00074C2C1BA41005D0013C55F8043D984731
:1006FC00002CF9D1BDE8384000F04AB8B407000826
:10070C00B00700082DE9F8431B4D064628689846AB
:10071C000F469146FFF7CEFF184B1C681CB3286898
:10072C0065681F2D22DC4EB96B1C0235636044F8E2
:10073C002570FFF7C1FF0020BDE8F883012304EB0F
:10074C008501C1F88890D4F88821AB401A43022E59
:10075C00C4F88821C1F80881E6D1D4F88C211A4359
:10076C00C4F88C21E0E7064C1C60D8E7FFF7A4FF27
:10077C004FF0FF30E0E700BF04000020280000200D
:10078C002C000020F8B500BFF8BC08BC9E46704792
:0C079C00F8B500BFF8BC08BC9E467047D2
:0807A800C906000875010008F4
:0407B0004D010008EF
:0807B4000100000024000020F8
:0400000508000625C4
:00000001FF
