:020000040800F2
:1000000000500020350E00089109000893090008EF
:1000100095090008970900089909000800000000E8
:100020000000000000000000000000009B09000824
:100030009D090008000000009F090008A1090008B0
:100040007D0E00087D0E00087D0E00087D0E000864
:100050007D0E00087D0E00087D0E00087D0E000854
:100060007D0E00087D0E00087D0E00087D0E000844
:100070007D0E00087D0E00087D0E00087D0E000834
:100080007D0E00087D0E00087D0E00087D0E000824
:100090007D0E00087D0E00087D0E00087D0E000814
:1000A0007D0E00087D0E00087D0E00087D0E000804
:1000B0007D0E00087D0E00087D0E00087D0E0008F4
:1000C0007D0E00087D0E00087D0E00087D0E0008E4
:1000D0007D0E0008910A00087D0E00087D0E0008C4
:1000E000250B00087D0E00087D0E000800000000B2
:1000F0000000000000000000000000000000000000
:0C01000000000000000000005FF808F1A3
:10010C0080EA010C1CF0030F37D110F0030C20F027
:10011C00030021F0030150F8042B08BF51F8043BF5
:10012C000ED08CF0030C6FF07F434FEACC0C23FA0B
:10013C000CFC51F8043B42EA0C0243EA0C0300BFEE
:10014C00A2F1013C9A4201BF2CEA020C1CF0803F48
:10015C0050F8042B51F8043BF2D04FEA02604FEAFE
:10016C001222012828BFB0EB036F08BF1B0AF4D082
:10017C0003F0FF03000EC01A704710F0030F0AD0F3
:10018C0010F8012B11F8013B012A28BF9A42F4D038
:10019C00A2EB030070474DF8045D50F8042B01F0FE
:1001AC00030521F0030151F8043B022D26D04DD854
:1001BC0022F07F45B5EB132FA2F1013C2CEA020C87
:1001CC000DD11CF0803C08BF51F8043B0AD185EAE4
:1001DC000205B5EB036F0CD150F8042BE8E74FEA9E
:1001EC0013235BE03CF07F4C54D10B784FEA126543
:1001FC0054E04FEA126503F0FF034FE04FEA02456B
:10020C00A2F1013C4FEA15452CEA020CB5EB134F59
:10021C0018D11CF0803C08BF51F8043B07D185EA8B
:10022C000205B5EB034F09D150F8042BE6E75FEA62
:10023C000C4C2FD10B884FEA12452FE04FEA0343A9
:10024C004FEA12454FEA134328E000BF02F0FF05C6
:10025C00B5EB136FA2F1013C2CEA020C0DD11CF092
:10026C00803C08BF51F8043B0AD185EA0205B5EB86
:10027C00032F0AD150F8042BE8E74FEA13630DE083
:10028C0012F0FF0F06D051F8043B4FEA122523F071
:10029C007F4303E04FF0000020BC704705F0FF02E5
:1002AC0003F0FF00012828BF904204BF2D0A1B0A4F
:1002BC00F4D0A2EB000020BC704700BF844641EA9A
:1002CC00000313F0030349D1403A23D30B680360B6
:1002DC004B6843608B688360CB68C3600B690361B8
:1002EC004B6943618B698361CB69C3610B6A0362A0
:1002FC004B6A43628B6A8362CB6AC3620B6B036388
:10030C004B6B43638B6B8363CB6BC363403040316C
:10031C00403ADBD230320BD30B6803604B6843603E
:10032C008B688360CB68C36010301031103AF3D205
:10033C000C3205D351F8043B40F8043B043AF9D293
:10034C00043208D0D2071CBF11F8013B00F8013B66
:10035C0001D30B8803806046704700BF082A13D373
:10036C008B07B1D010F00303AED0C3F10403D21A43
:10037C00DB071CBF11F8013B00F8013BA4D331F89B
:10038C00023B20F8023B9FE7043AD9D3013A11F81B
:10039C00013B00F8013BF9D20B7803704B784370AA
:1003AC008B788370604670470348044B834202D0BD
:1003BC00034B03B11847704750050020500500202F
:1003CC00000000000548064B1B1AD90F01EBA301D6
:1003DC00491002D0034B03B1184770475005002059
:1003EC00500500200000000010B5064C237843B9DE
:1003FC00FFF7DAFF044B13B10448AFF3008001237D
:10040C00237010BD5005002000000000EC2B0008EC
:10041C0008B5054B1BB105490548AFF30080BDE895
:10042C000840FFF7CFBF00BF0000000054050020BC
:10043C00EC2B000882B00023019300932C4A136824
:10044C0043F4803313602A4B1B6803F4003300938E
:10045C00019B01330193009B1BB9019BB3F5A06F6A
:10046C00F1D1234B1B6813F4003F06D001230093FA
:10047C00009B012B04D002B0704700230093F7E7D8
:10048C001C4B1A6842F010021A601A6822F007021C
:10049C001A601A6842F002021A60A3F580535A6877
:1004AC005A605A685A605A6842F480625A605A68B4
:1004BC0022F47C125A605A6842F4E8125A601A68A4
:1004CC0042F080721A600A4B1B6813F0007FFAD05E
:1004DC00074B5A6822F003025A605A6842F0020233
:1004EC005A60034B5B6803F00C03082BF9D1C2E78D
:1004FC00001002400020024008B5FFF79BFF08BD2A
:10050C0008B5104B1A6842F001021A6059680E4A7D
:10051C000A405A601A6822F0847222F480321A60FF
:10052C001A6822F480221A605A6822F4FE025A6079
:10053C004FF41F029A60FFF7DFFF044B4FF000628D
:10054C009A6008BD001002400000FFF800ED00E0CA
:10055C0040F0BF6040F40030014BD860704700BFE2
:10056C0000ED00E0C378F3B1144BDB68DB43C3F35D
:10057C000223C3F1040C0F21D940427802FA0CF289
:10058C0083780B40134302781B01DBB20C490A44FD
:10059C0082F80033037803F01F005B0901228240CC
:1005AC0041F823207047037803F01F015B090122F7
:1005BC008A402033024941F82320704700ED00E0C7
:1005CC0000E100E0064A136803405269024202D07F
:1005DC001BB900207047002070470120704700BFF6
:1005EC0000040140014B5861704700BF00040140FA
:1005FC0030B5CB7803F00F02964613F0100F03D0F2
:10060C0091F802E04EEA020E0B78FBB1056800236C
:10061C0001E042610133072B17D801229A40B1F84F
:10062C0000C032EA0C0CF5D19C004FF00F0C0CFA08
:10063C0004FC25EA0C050EFA04F42543CC78282C8E
:10064C00E7D0482CE6D10261E4E705600B88FF2B6C
:10065C0025D94568002303E0CC78482C1CD0013305
:10066C00072B1BD803F1080C012202FA0CF2B1F88B
:10067C0000C032EA0C0CF2D19C004FF00F0C0CFABB
:10068C0004FC25EA0C0C0EFA04F444EA0C05CC78B4
:10069C00282CE1D14261DFE70261E0E7456030BD23
:1006AC000AB10161704741617047000010B4294BD9
:1006BC005B6803F00C03042B29D0082B2AD0002BE9
:1006CC0045D1254B036023494B68C3F30313234CDB
:1006DC00E25CD2B20368D34043604A68C2F30222A0
:1006EC00A25CD2B223FA02F282604A68C2F3C2223E
:1006FC00A25CD2B2D340C3604A68C2F381321849BB
:10070C008A5CD2B2B3FBF2F3036110BC7047124B9C
:10071C000360D8E70F4A53685268C3F3834302332C
:10072C0012F4803F04D10F4A02FB03F30360CAE7C3
:10073C00084A526812F4003F04D00A4A02FB03F341
:10074C000360C0E7044A02FB03F30360BBE7024B00
:10075C000360B8E70010024000127A00082C000871
:10076C00042C000800093D0021B1054A936903439C
:10077C0093617047024A936923EA000393617047BF
:10078C000010024030B587B004460D46038A9BB278
:10079C00CA8823F440531343038283899BB289880C
:1007AC0028896A8901430A4323F4B05323F00C03CC
:1007BC001343A381A38A9BB2AA8923F440731343E6
:1007CC00A38201A8FFF772FF1D4B9C4224D0039B10
:1007DC00A28912F4004F21D103EB830303EB8303B3
:1007EC002A689200B3FBF2F3164AA2FB03125209D9
:1007FC001101642002FB1033A28912F4004F16D1B0
:10080C001B0132330F4AA2FB0323C3F343130B43E5
:10081C009BB2238107B030BD049BD9E703EB830364
:10082C0003EB83032A685200B3FBF2F3DCE7DB0033
:10083C003233044AA2FB0323C3F342130B43E7E70F
:10084C00003801401F85EB5129B183899BB243F4D9
:10085C0000538381704783899BB223F400539BB26E
:10086C0083817047C1F3421C01F01F0101238B40AF
:10087C00BCF1010F08D0BCF1020F07D014303AB113
:10088C0002681343036070470C30F8E71030F6E74A
:10089C00026822EA030303607047C1F308018180F8
:1008AC0070478088C0F3080070470388194201D054
:1008BC000120704700207047090A01238B409BB22E
:1008CC00DB439BB20380704708B500F056FA00F08A
:1008DC0063F8214800F0CEFA204A0121084600F0C6
:1008EC003BFA1F4A0121032000F036FA0BE01D4AA7
:1008FC000A21032000F030FA1B4800F089FB1CE0B1
:10090C001A4B00221A70194B1B78012BFBD1184A79
:10091C000121042000F020FA164C2246012104206B
:10092C0000F01AFA144A0A21032000F015FA0D49B6
:10093C002046FFF7E5FB0028D9D010490D48FFF7FA
:10094C00DFFB0028DCD10D4A0A21032000F004FA59
:10095C000B4800F08BF8D3E700380140182C000846
:10096C00242C0008482C00084C2C00086E05002094
:10097C00302C000870050020442C0008542C000872
:10098C00582C00087047FEE7FEE7FEE7FEE77047CD
:10099C00704770477047000030B587B001214FF4A5
:1009AC008040FFF7E1FE01210420FFF7DDFE182354
:1009BC008DF817304FF40073ADF8143003258DF813
:1009CC001650214C05A92046FFF712FE48238DF83E
:1009DC0017304FF48063ADF814308DF8165005A91C
:1009EC002046FFF705FE4FF4165301930023ADF894
:1009FC0010300C22ADF80E20ADF80C30ADF80A30EA
:100A0C00ADF80830114D01A92846FFF7BBFE0122B5
:100A1C0040F225512846FFF725FF4FF4A060FFF761
:100A2C0097FD25238DF8003001248DF803408DF8B7
:100A3C0001408DF802406846FFF794FD2146284698
:100A4C00FFF702FF07B030BD00080140003801403D
:100A5C0008B501460448FFF720FF80210248FFF744
:100A6C0024FF0028F9D008BD0038014038B50546F0
:100A7C00002402E0FFF7ECFF0134285DA042F9DC12
:100A8C0038BD000008B520211E48FFF70EFF0128D5
:100A9C0000D008BD1B48FFF704FFC0B21A4B1B78EF
:100AAC008BB9232804D020211648FFF705FFF0E767
:100ABC00164B1B78002BF6D1134B01221A70144BDA
:100ACC0000221A70EFE7012B0ED0022BEBD10A2873
:100ADC00E9D100230C4A13700D4A12780D498B543E
:100AEC000A4B01221A70DEE7232806D0084A137835
:100AFC000849C85401331370D5E7034B02221A700E
:100B0C00D1E700BF003801406D0500206E050020C4
:100B1C006C0500207005002008B54FF40040FFF76D
:100B2C0051FD012800D008BD044A138801331380FD
:100B3C004FF40040FFF756FDF5E700BF0000002022
:100B4C0070B582B001210820FFF70EFE14238DF83A
:100B5C00073003238DF806304FF40066ADF80460BF
:100B6C000C4C01A92046FFF743FD4FF48065ADF80E
:100B7C00045001A92046FFF73BFD012231462046D7
:100B8C00FFF78EFD012229462046FFF789FD02B0B2
:100B9C0070BD00BF000C014010B50D4C01224FF48C
:100BAC0080612046FFF77CFD01224FF40061204656
:100BBC00FFF776FD00224FF480612046FFF770FDB1
:100BCC0000224FF400612046FFF76AFD10BD00BF04
:100BDC00000C014010B50A4C00224FF480612046F5
:100BEC00FFF75EFD01224FF400612046FFF758FD30
:100BFC0001224FF480612046FFF752FD10BD00BF6B
:100C0C00000C014070B50646002416E080222241FB
:100C1C00124D32404FF480612846FFF741FD01220E
:100C2C004FF400612846FFF73BFD00224FF40061B2
:100C3C002846FFF735FD0134E4B2072CE6D9074C02
:100C4C0001224FF400612046FFF72AFD00224FF4E9
:100C5C0000612046FFF724FD70BD00BF000C014071
:100C6C0010B50446FFF798FF7820FFF7CBFF002064
:100C7C00FFF7C8FF2046FFF7C5FFFFF7ABFF10BD1E
:100C8C0010B50446FFF788FF7820FFF7BBFF402024
:100C9C00FFF7B8FF2046FFF7B5FFFFF79BFF10BD2E
:100CAC0010B50C4640F0B000FFF7DAFF200940F019
:100CBC001000FFF7D5FF04F00F00FFF7D1FF10BDB8
:100CCC0038B5002509E00020FFF7DAFF0134E4B263
:100CDC0014F0800FF7D00135EDB2072D05D80021A7
:100CEC002846FFF7DDFF0024F2E738BDF8B50646CD
:100CFC0015464F1EFF00FFB201384000394600F088
:100D0C00FE00FFF7CDFF002409E0A5F12002114BF6
:100D1C0003EB0213185DFFF7B3FF0134E4B2072CA9
:100D2C00F3D97000C0B201383946C0B2FFF7B8FF32
:100D3C0000240BE0A5F1200104F10802054B03EBA4
:100D4C000113985CFFF79CFF0134E4B2072CF1D936
:100D5C00F8BD00BF642C0008F8B507460E461546D2
:100D6C00002406E0A119C9B23846FFF7BFFF0134D1
:100D7C00E4B22A5D002AF5D1F8BD08B5002204E0E2
:100D8C000133B3F57A7FFBD30132B2F57A7F01D20E
:100D9C000023F6E7FFF7D4FEAE20FFF761FFD52066
:100DAC00FFF75EFF8020FFF75BFFA820FFF758FFDF
:100DBC003F20FFF755FFD320FFF752FF0020FFF72E
:100DCC004FFF4020FFF74CFFA120FFF749FFC82041
:100DDC00FFF746FFDA20FFF743FF1220FFF740FF33
:100DEC008120FFF73DFFCF20FFF73AFFD920FFF717
:100DFC0037FFF120FFF734FFDB20FFF731FF302006
:100E0C00FFF72EFFA420FFF72BFFA620FFF728FFEC
:100E1C008D20FFF725FF1420FFF722FFAF20FFF7EF
:100E2C001FFFFFF74DFF08BDFFF76AFB0B480C498E
:100E3C000C4A002302E0D458C4500433C4188C422A
:100E4C00F9D3094A094C002301E013600432A24291
:100E5C00FBD300F011FEFFF737FD704700000020B8
:100E6C00500500206832000850050020F0080020D2
:100E7C00FEE7000010B5094B1860094C20680023F0
:100E8C0002221946806800F0CBF820680023022269
:100E9C001946406800F0C4F810BD00BFD40500200E
:100EAC001000002010B50446C1B2064B1868FFF7BD
:100EBC00F4FC8021034B1868FFF7F7FC0028F8D0EE
:100ECC00204610BDD405002008B52021054B18681C
:100EDC00FFF7EBFC0028F8D0024B1868FFF7E1FC99
:100EEC0008BD00BFD405002070B50C461646002581
:100EFC0006E0FFF7E9FF214601F8010B01350C462E
:100F0C00B542F6DB304670BD70B50C461646002572
:100F1C0004E014F8010BFFF7C5FF0135B542F8DB0F
:100F2C00304670BD08B503460B4A126842B10A4AF6
:100F3C00106803446A46934206D8074A136008BDFA
:100F4C00054A06491160F2E700F090FD0C2303609E
:100F5C004FF0FF30F3E700BFD8050020F008002069
:100F6C004FF0FF3070474FF400534B600020704738
:100F7C00012070470020704730B5054689B00846FF
:100F8C000C4600F0F5FD01230222204907936B6B00
:100F9C000691029204A9421C04940191AC6805903C
:100FAC000392002B2ED0626EB4F90C30D20701D410
:100FBC00980521D5990406D4626E43F4005322F4AB
:100FCC000052A3816266284601AA214600F086FAE7
:100FDC00636E00280CBF0A254FF0FF35DA0702D4E8
:100FEC00A3899B0502D5284609B030BDA06D00F041
:100FFC0071FD284609B030BDA06D00F069FDB4F953
:10100C000C30D7E7284600F03FFACCE7602C0008FC
:10101C00024B01461868FFF7AFBF00BF100000205D
:10102C002DE9F043664C0E46D4F800801746044672
:10103C001D4683B0B8F1000F04D0D8F83430002B23
:10104C0000F0A680022F05D0012F00F2A580002D04
:10105C00C0F2A280636EDA0751D52146404600F0FB
:10106C0045F9216B41B104F14003994202D040464D
:10107C0000F018FE002323630023B4F90CC0A36115
:10108C001CF0800F63605DD12CF44A6C2CF0030CC7
:10109C00022FA4F80CC063D001AB214640466A462F
:1010AC0001F026FAA3891843A081002D2ED0002E22
:1010BC002DD0D8F83430002B37D0009AB4F90C303E
:1010CC00AA421CBF43F40063A381012F04BF43F069
:1010DC000103A38113F00802C4E90465266028D03B
:1010EC00D90753D50022A260626E6D42D207A5616A
:1010FC0023D49B0521D4A06D00F0ECFC1DE0A3894A
:10110C009B05AAD4A06D00F0E3FCA6E7009D284641
:10111C0000F0C4FE0646002841D0A38943F08003AA
:10112C00A381D8F83430002BC7D1404600F0ACF97D
:10113C00C3E7A260626ED207DBD50025284603B058
:10114C00BDE8F0834046216900F0ACFDB4F90CC059
:10115C00022F2CF44A6C2CF0030CA4F80CC09BD17D
:10116C0000250021012204F1430323602361636EF7
:10117C004CF00200A081D807A1606261DED41CF49F
:10118C00007FDBD1A06D00F0A5FCD7E7A560D1E70F
:10119C00404600F079F955E74FF0FF35CEE7DDF822
:1011AC000090A94506D0484600F078FE064608B1E6
:1011BC004D46B2E74FF0FF35B4F90CC0D1E700BF94
:1011CC0010000020B1F90C20F8B516070C460746A4
:1011DC0048D4496842F400630029A3815FDDA56A05
:1011EC00002D3DD0002112F480523E683960E16937
:1011FC0061D101233846A847451C02466AD0B4F990
:10120C000C30A56AE169580705D56368D21A236BBF
:10121C000BB1E36BD21A00233846A847411C4CD1C2
:10122C003968B4F90C301D293FD82F4ACA40D2076F
:10123C003BD5002262602269DD04226023F4006247
:10124C00A28101D5002943D0216B3E6041B104F14C
:10125C004003994202D0384600F024FD002323635A
:10126C000020F8BD0E69002EFAD0920718BF00239B
:10127C000D6808BF4B690E60AD1B8B600CE02B46F4
:10128C003246D4F824C03846E169E047B0F1000C8E
:10129C00A5EB0C05664406DD002DF0DCE0E7E16B08
:1012AC0000299CDCDCE7B4F90C3043F040034FF030
:1012BC00FF30A381F8BD226DA5E70022B4F90C30F4
:1012CC0062602269226023F40062DB04A281BBD538
:1012DC002065B9E73B68002B91D01D2B01D0162B54
:1012EC00E1D13E60BCE700BF0100402038B50546A7
:1012FC000C4608B1436B03B3B4F90C0088B1636EB0
:10130C00DB0701D481050FD528462146FFF75AFF8C
:10131C00636E0546DA0702D4A3899B0508D52846D7
:10132C0038BD0546284638BDA06D00F0D1FBEBE773
:10133C00A06D00F0CFFB284638BD00F0A5F8DBE728
:10134C00024A0349034800F03FBA00BF04000020E2
:10135C0075250008180000200C4B416810B5994207
:10136C00044601D001F000F9A168094B994202D062
:10137C00204601F0F9F8E168064B994204D020466A
:10138C00BDE8104001F0F0B810BD00BFDC05002036
:10139C0044060020AC0600202DE9F8430025042368
:1013AC00304C314A3149DFF8C890DFF8C880324FF1
:1013BC00324E116004F15C0029460822C4E9033561
:1013CC00C4E90055C4E90555A560656600F0FEFA50
:1013DC0004F15800C4E90749C4E90987E66200F042
:1013EC0073FB274B2946082204F1C4006367C4E948
:1013FC001A55C4E91E552567C4F8CC50C4F8805062
:10140C0000F0E4FA04F1680304F1C000C4F884307D
:10141C00C4E92298C4E9247600F056FB194B2946FE
:10142C0004F596700822C4F8DC30C4E93455C4E9DC
:10143C003855C4F8D850C4F83451C4F8E85000F00A
:10144C00C5FA04F1D003C4E93D87C4F8F09004F563
:10145C009470C4F8FC60C4F8EC30BDE8F84300F0BC
:10146C0033BB00BFDC050020140700204D1300081F
:10147C0081290008A5290008E5290008092A000887
:10148C00090001001200020010B504460A4800F0E1
:10149C001FFB636B23B9094B094A1B68626323B1B9
:1014AC00BDE81040044800F015BBFFF775FFBDE820
:1014BC001040014800F00EBB20070020140700204C
:1014CC0065130008014800F003BB00BF2007002093
:1014DC00014800F0FFBA00BF200700209368002BE2
:1014EC0000F0F0802DE9F04FB1F90CC090461CF0E3
:1014FC00080F81460C4683B02BD00B694BB31CF004
:10150C000207D8F8006032D04FF0000A5546D4F8E4
:10151C0024B0E169AB4FC5B1BD422B46524628BF42
:10152C003B464846D847002840F3C280D8F80830DC
:10153C0082441B1A2D1AC8F80830002B00F0AE801C
:10154C00D4F824B0E169002DE6D1D6E900A508361F
:10155C00E1E72146484600F059F9002840F0AD80FB
:10156C00B4F90CC0D8F800601CF00207CCD11CF008
:10157C00010A63D157462368A16818468B46002F91
:10158C0058D01CF4007F00F0B180B9420A4600F23A
:10159C00DD801CF4906F2FD0216962695D1A02EB1B
:1015AC00420202EBD2726B1C52103B44934292BF2C
:1015BC0093469B461A461CF4806F00F0E680114659
:1015CC00484600F073FC002800F0F5802A4621699B
:1015DC000190FEF773FEA289019B22F4906242F007
:1015EC008002A2815819C4F814B0ABEB05053A4639
:1015FC00BB462361A56020603D4600275146019201
:10160C0000F066F9A1682368019AA1EB0B011A445A
:10161C00A1602260D8F80830AA445B1BC8F80830D7
:10162C00002B3BD02368A16818468B46B4F90CC03C
:10163C00002FA6D1D6E900A708369EE73846BB4650
:10164C003D46002D40D0002845D03A46D4E904C38D
:10165C002068AA4228BF2A466045A16804D901EB3C
:10166C00030A524500F38280934272DC5A46484684
:10167C00E169D4F824C0E047B0F1000A18DDB7EBFB
:10168C000A070FD00120D8F80830D344A3EB0A0383
:10169C00A5EB0A05C8F80830002BD2D1002003B006
:1016AC00BDE8F08F21464846FFF720FE0028EAD01F
:1016BC00B4F90C3043F04003A3814FF0FF3003B07A
:1016CC00BDE8F08F00207047756833460836002D52
:1016DC00FAD0D3F800B02A460A21584600F0FCF99B
:1016EC00002865D00130A0EB0B07AEE722699A42C7
:1016FC0014D36569BD4211D86FF00043BB4228BFBB
:10170C003B4693FBF5F3524605FB03F34846656AEB
:10171C00E169A847051ECBDD7F1B7BE7B94228BFDB
:10172C0039460D46184651462A4600F0D1F8A168B4
:10173C002368491B2B44A16023600029ECD121466E
:10174C004846FFF7D3FD0028E6D0B1E7BB463A4642
:10175C0052E75946019200F0BBF8019AA3689246F1
:10176C009B1AA36023681344236088E759465246AA
:10177C0000F0AEF823682146534448462360FFF737
:10178C00B5FD00283FF47BAF92E7484600F04CFFD4
:10179C00034600287FF426AF4846216900F082FA00
:1017AC000C22B4F90C30C9F8002023F0800381E737
:1017BC006A1C17464AE70C22B4F90C30C9F8002011
:1017CC0078E700BF00FCFF7F2DE9F8434FF00009DC
:1017DC0080460F461646D6E90154013D10D4A38924
:1017EC00012B08D9B4F90E30013304D02146404600
:1017FC00B84749EA0009013D6B1C04F16804EED1BD
:10180C003668002EE7D14846BDE8F88338B52F4B33
:10181C0005461B680C4613B15A6B002A4BD0B4F921
:10182C000C3018071CD5226922B313F0010107D024
:10183C0000206169A0604942A1613AB1002038BD25
:10184C00980758BF6169A160002AF7D1190658BFE3
:10185C001046F4D543F04003A3814FF0FF3038BD60
:10186C00D9062CD55A0712D4226943F00803A38158
:10187C00002ADAD103F42071B1F5007FD5D02146CE
:10188C00284600F0C7FDB4F90C302269CDE7216B76
:10189C0051B104F14002914204D0284600F002FA02
:1018AC00B4F90C30002222630021226923F02403B6
:1018BC00C4E90021D9E71846FFF7E6FDAFE7092296
:1018CC0043F040032A60A381C7E700BF100000204B
:1018DC0088420ED98B1883420BD900EB020C002ADC
:1018EC006DD0624613F801CD994202F801CDF9D1C1
:1018FC0070470F2A0FD8034602F1FF3C002A5ED036
:10190C000CF1010C013B8C4411F8012B614503F8DF
:10191C00012FF9D1704740EA01039B0750D1A2F186
:10192C00100370B501F1200C23F00F0501F1100E1E
:10193C0000F11004AC441B095EF8105C0EF1100EA3
:10194C0044F8105C5EF81C5C103444F81C5C5EF8C7
:10195C00185C44F8185C5EF8145CE64544F8145CBA
:10196C00EAD1013312F00C0F01EB031102F00F045A
:10197C0000EB031328D08E46043C24F003064FEAF8
:10198C00940C1E441C1F5EF8045B44F8045FB442C4
:10199C00F9D10CF1010402F0030203EB840301EB17
:1019AC00840102F1FF3C4AB10CF1010C013B8C4467
:1019BC0011F8012B614503F8012FF9D170BD704767
:1019CC00034602F1FF3C9BE72246EAE770B5860727
:1019DC0047D0541E002A3ED00346CAB201E0013C57
:1019EC0039D303F8012B9D07F9D1032C2CD9CDB297
:1019FC0005EB05250F2C1A4605EB054534D9A4F14A
:101A0C00100C2CF00F0603F1100EB6444FEA1C1C00
:101A1C00C2E90055C2E9025510327245F8D10CF1F9
:101A2C00010214F00C0F03EB021204F00F0C13D094
:101A3C00ACF1040323F003030433134442F8045BB6
:101A4C009342FBD10CF003042CB1C9B21C4403F833
:101A5C00011BA342FBD170BD64461346002CF4D18C
:101A6C00F9E703461446C0E7A446E1E7014B1868C2
:101A7C00704700BF1000002070B50F4B0F4DAB42EC
:101A8C00A3EB050607D00024B61055F8043B01342F
:101A9C009847A642F9D801F0A3F8094D094B5E1BF3
:101AAC00AB424FEAA60606D0002455F8043B01349D
:101ABC009847A642F9D870BD5C3200085C32000829
:101ACC005C32000864320008704700BF704700BFEA
:101ADC00704700BF704700BF5FFA81FC810744D09C
:101AEC000346511E22B909E09A0709D0013905D3E2
:101AFC001846027801336245F6D1704700207047D2
:101B0C00184603290CD80029F8D00346014401E0FB
:101B1C008B42F3D0184613F8012B6245F8D170476D
:101B2C0010B50CEB0C24024604EB044402E004391F
:101B3C00032915D9104652F8043B6340A3F1013E2A
:101B4C002EEA030313F0803FF1D00346014401E079
:101B5C008B4208D0184613F8012B6245F8D110BD02
:101B6C0010460029F1D1002010BD1146C9E700BF75
:101B7C0020F0030110F00300C0F1000051F8043B09
:101B8C0000F1040C4FEACC0C6FF000021CBF22FADF
:101B9C000CF213434FF0010C4CEA0C2C4CEA0C4C9D
:101BAC00A3EB0C0222EA030212EACC1204BF51F896
:101BBC00043B0430F4D0C2F1000102EA0102B2FA93
:101BCC0082F2C2F11F0200EBD2007047024B13B13C
:101BDC00024800F005B8704700000000452B0008D3
:101BEC00002301461A46184600F0BABF2DE9F84307
:101BFC0006460820894600F091FF0546DFF89880DC
:101C0C00304600F0A5FCD8F808305F6827F00307D1
:101C1C00A7F11104A4EB09042C44B4FBF5F4013C2A
:101C2C0005FB04F4A54208DC0021304600F04EFF11
:101C3C00D8F808303B44984205D0304600F08EFC72
:101C4C000020BDE8F8833046614200F03FFF0130D0
:101C5C000FD0124AD8F808303F1B47F001075F60DD
:101C6C00136830461B1B136000F078FC0120BDE8A4
:101C7C00F8830021304600F029FFD8F80820831A99
:101C8C000F2BDADD43F001035360054B03491B684E
:101C9C00C01A0860D1E700BF4801002028070020C7
:101CAC003C01002000297CD0F8B50C46064600F01B
:101CBC004FFC54F8043C764FA4F1080523F00101C5
:101CCC006818D7F808C04268844522F0030200F077
:101CDC008380DB07426000EB020C33D454F8084CD1
:101CEC00DCF804302D1B2144AC6807F1080C64456A
:101CFC0003F0010364D0D5F80CE0C4F80CE0CEF886
:101D0C000840002B00F0818041F001036B60016002
:101D1C00B1F5007F22D20122CB0849098A407968AB
:101D2C0001330A437A6057F8331007EBC302083AC1
:101D3C00C5E9021247F83350CD603046BDE8F84093
:101D4C0000F00CBCDCF80430DB072BD541F00103B0
:101D5C00B1F5007F44F8043C0160DCD3B1F5206F91
:101D6C004FEA512353D28B0903F1390003F13802A6
:101D7C00C300F818FB580838984203D161E09B68FF
:101D8C00984204D05A6822F003028A42F7D8D868E5
:101D9C00C5E9023085603046DD60BDE8F84000F0F2
:101DAC00DDBB7047114407F1080C836863453FD0D5
:101DBC00C268DA60936041F001036B606950A7E779
:101DCC00002B5FD10A44D0E90213CB60996042F03A
:101DDC0001036B60AA50B0E70A44D90707D454F842
:101DEC00083CED1A1A44D5E90213CB60996042F015
:101DFC0001036B60274BBD601B6893429DD8264B3B
:101E0C0030461968FFF7F2FE97E71144CDE7142B23
:101E1C0008D9542B1DD80B0B03F16F0003F16E0284
:101E2C00C300A6E703F15C0003F15B02C300A0E76B
:101E3C0041F00103C7E90455C5E902CC6B60695058
:101E4C007BE70121921001FA02F279680A437A6069
:101E5C009EE7B3F5AA7F06D8CB0B03F1780003F10C
:101E6C007702C30085E740F25452934206D88B0C9C
:101E7C0003F17D0003F17C02C3007AE74FF47E731B
:101E8C007E2276E741F001036B60016055E700BFED
:101E9C00480100204001002058070020024B014659
:101EAC00186800F003B800BF100000202DE9F04FB7
:101EBC0001F10B05162D064683B024D8102900F22B
:101ECC00AD8000F045FB102518234FF0020CB84FE5
:101EDC003B445C68A3F10802944200F01D8130463B
:101EEC006368E268A16823F00303CA60234491602D
:101EFC005A68083442F001025A6000F02FFB204669
:101F0C0003B0BDE8F08F35F0070500F18780A942DA
:101F1C0000F2848000F01CFBB5F5FC7FC0F06F81F3
:101F2C006B0A7FD0042B00F21E81AB0903F1390C34
:101F3C0003F1380E4FEACC009D4F38444468083802
:101F4C00A04207D10DE0002AE16880F2DF808842D0
:101F5C0007D00C46636823F003035A1B0F2AF2DDEB
:101F6C00F446DFF850823C69444500F0BC8063685D
:101F7C0023F00309A9EB05030F2B00F34581002B7C
:101F8C00C7E9048880F22F81B9F5007FD7F804E007
:101F9C0080F0C98001234FEAD9014FEA591919443D
:101FAC0003FA09F357F831204EEA030E07EBC1038D
:101FBC00083BA260E360C7F804E047F83140D46006
:101FCC0001204FEAAC039840704532D810EA0E0F4E
:101FDC0007D12CF0030C400010EA0E0F0CF1040C8E
:101FEC00F9D007EBCC0AD646E146DEF80C300BE014
:101FFC0059681C4621F003014A1B0F2ADB6800F3C9
:10200C00BF80002A80F2E2809E45F1D109F10109DE
:10201C0019F0030F0EF1080EE7D11FE10C2333600A
:10202C0000246CE74FF400704FF0400C4FF03F0E63
:10203C0082E7BC68636823F00309A94503D3A9EBC5
:10204C0005030F2B52DC5C4B08201B6803F11008B6
:10205C0004EB0903009300F061FD584A83461368B2
:10206C00A844013305D008F1FF388044434203EA09
:10207C0008084146304600F029FDB0F1FF3F82468A
:10208C004E4A00F0DC8004EB0903834200F2D58059
:10209C004B4B0BF1FF31186840448446186040F0FC
:1020AC00FB801AEA010F40F0F780D7F808A0C8446B
:1020BC0048F00102CAF804205446424B1968814288
:1020CC0038BF1860404B1968814238BF186022F045
:1020DC000308A845A8EB050301D30F2B06DC3046FB
:1020EC0000F03CFA9CE7D7F804E069E7621943F08A
:1020FC00010345F0010565603046BA600834536051
:10210C0000F02CFA204603B0BDE8F08FA2683046F0
:10211C00D16023448A60EBE6DC68A3427FF4DFAE37
:10212C000CF1020C1DE7B9F5206F4FEA59227DD353
:10213C00142A00F2118102F15C03DB005B32F91806
:10214C00FB580839994203D1ECE09B68994204D0C2
:10215C005A6822F003024A45F7D8D968C4E902311B
:10216C008C60DC602CE7142B6CD9542B00F2FD80B6
:10217C002B0B03F16F0C03F16E0E4FEACC00DBE678
:10218C00D4F808C03046661945F001056560CCF8F6
:10219C000C30C3F808C042F00103C7E90466C6E975
:1021AC0002887360625000F0D9F90834A7E600BFCA
:1021BC004801002050010020580700203C0100205D
:1021CC0028070020540700205007002021444A68AB
:1021DC00304642F001024A6054F8082FD3609A60EE
:1021EC0000F0BCF98BE6A144D9F80430304643F03A
:1021FC000103C9F8043000F0B1F908347FE64FEA66
:10220C00D50C05F1080362E6621943F0010145F0B3
:10221C00010565603046C7E90422C2E902885160B5
:10222C0044F8093000F09AF9083468E64FEA99123C
:10223C0002F13903DB00383281E7BC4224D0BC68A0
:10224C00626844E703F15C0C03F15B0E4FEACC00CF
:10225C0072E65AF80839534540F0D8801CF0030F49
:10226C000CF1FF3CF5D17B6823EA00037B60400056
:10227C0098423FF6DEAE18B9DBE6400009F10409DE
:10228C001842FAD0CC46ACE6614B0BF1FF31186822
:10229C0008EB000CC3F800C01068013070D004EBE0
:1022AC000902AAEB020262441A601AF00702CDE995
:1022BC00002340D0C2F108029244D04408EA010045
:1022CC005A44121A02EA010B5946304600F0FEFB42
:1022DC00421C019B71D0A0EB0A0000EB0B081868A4
:1022EC0048F001025844BC42C7F808A01860CAF86C
:1022FC0004203FF4E1AEB9F10F0F44D94FF0050CB7
:10230C006168A9F10C0222F0070201F001011143EE
:10231C0061600F2A04EB0201C1E901CC55D8DAF84F
:10232C000420C9E60120921000FA02F24EEA020ED5
:10233C00C7F804E012E70AEB08020A40ABEB020212
:10234C0002EA010B5946304600F0C0FB431C019BCE
:10235C00C1D1DDF800B0C2E7542A18D84FEA1932BF
:10236C0002F16F03DB006E32E9E6B3F5AA7F18D8F1
:10237C00EB0B03F1780C03F1770E4FEACC00DBE5A5
:10238C00C2F800A091E70123CAF80430A7E6B2F521
:10239C00AA7F25D84FEAD93202F17803DB007732D5
:1023AC00CDE640F25452934225D8AB0C03F17D0C90
:1023BC0003F17C0E4FEACC00BEE5009A4FF0000B07
:1023CC00083A9044A8EB0A0889E7304604F1080162
:1023DC000093FFF767FC009BD7F808A018689EE7EE
:1023EC0040F254539A420DD84FEA994202F17D03C0
:1023FC00DB007C32A3E64FF47E704FF07F0C4FF085
:10240C007E0E99E54FF47E737E2298E67B682EE76C
:10241C00280700202DE9F041B1F90C300C46990742
:10242C0096B008D5012204F14303C4E904322360B9
:10243C0016B0BDE8F081B4F90E100646002926DB73
:10244C006A4600F0F1FA00281FDB019D4FF480680A
:10245C0005F47045A5F50055B5FA85F54FF4006700
:10246C006D0941463046FFF721FDE8B1B4F90C3057
:10247C00C4F8148043F0800320602061A3813DBB2D
:10248C003B43A38116B0BDE8F081B4F90C3013F0D6
:10249C00800519D04FF040080025414630462F46A4
:1024AC00FFF704FD0028E1D1B4F90C309A05BFD434
:1024BC00012123F0030304F1430243F00203C4E9B6
:1024CC000421A3812260B3E74FF480682F46C8E74C
:1024DC003046B4F90E1000F0BBFA10B9B4F90C3058
:1024EC00CEE7A38923F0030343F001031BB2C7E734
:1024FC0070B50C46B1F90E10154600291E4696B063
:10250C0014DB6A4600F090FA00280FDB01994FF4B7
:10251C00806301F47041A1F50051B1FA81F14FF4DF
:10252C000060490931602B6016B070BDA18911F0B3
:10253C00800106D000214023084631602B6016B084
:10254C0070BD4FF48063084631602B6016B070BDCF
:10255C000148FFF7BDBA00BF180700200148FFF77C
:10256C00B9BA00BF1807002070B500293FD0064645
:10257C000C4610B1436B002B3CD0636EB4F90C20AD
:10258C00DD0732D4900538D521463046FEF71AFEC9
:10259C00E36A054633B13046E16998470028B8BF75
:1025AC004FF0FF35A3891A0639D4216B41B104F1E0
:1025BC004003994202D03046FFF774FB002323639B
:1025CC00616C21B13046FFF76DFB00236364FEF7AD
:1025DC0079FF0022636EA281DB071CD5A06DFFF78B
:1025EC0075FAFEF775FF284670BD002ACCD1002580
:1025FC00284670BDFEF748FFBFE7A06DFFF768FAED
:10260C00B4F90C30002BBFD1636ED907EFD4A06D99
:10261C00FFF760FAEBE7A06DFFF75CFADEE73046F8
:10262C002169FFF73FFBC0E72DE9F84F164600295B
:10263C0000F096800C46804606F10B05FFF788FFEC
:10264C0054F8041C162DA4F1080921F0030758D8DE
:10265C001025AE4258D8AF4260DABF4B09EB070CDD
:10266C009A68DCF80400624500F0908020F00103C9
:10267C0063445B68DB0768D420F003003B189D4281
:10268C0047DDCB0712D454F8083CA9EB030BDBF85D
:10269C00043023F00302104400EB070A554540F3C5
:1026AC00F68007EB020A554540F3CC803146404694
:1026BC00FFF7FCFB0646002800F0218154F8043C8F
:1026CC00A0F1080223F001034B44934200F0B480C4
:1026DC003A1F242A00F2D780132A00F2A280034664
:1026EC002246116819605168596092689A602146B7
:1026FC004046FFF7D7FA4046FFF730FF3046BDE8BB
:10270C00F88F35F00705A4D50C23C8F80030002647
:10271C0018E01F46DCE90223D3609A60D9F8043034
:10272C007A1B0F2A03F0010309EB07001DD83B436A
:10273C00C9F80430436843F0010343604046FFF797
:10274C000DFF26463046BDE8F88FC907AED454F8C5
:10275C00083CA9EB030BDBF8043023F00302A0E7E1
:10276C001146BDE8F84FFFF7A1BB2B4309EB050160
:10277C0042F00102C9F804304A604368083143F062
:10278C00010343604046FFF78DFAD7E720F00300C2
:10279C00C21905F1100C624580F29280CA0785D4EB
:1027AC0054F8082CA9EB020BDBF8042022F00302EE
:1027BC00104400EB070AD4453FF773AF5E46DBF8D5
:1027CC000C1056F8080F3A1F242AC160886000F2DA
:1027DC00B080132A40F2AB8021681B2ACBF808107A
:1027EC006168CBF80C1000F2AA8008340BF11002CF
:1027FC002168116061685160A1689160AAEB0502C3
:10280C000BEB050142F0010299604A60DBF80430E1
:10281C00404603F001032B43CBF80430FFF79EFE38
:10282C0090E723681B2A0360636843603DD804F17A
:10283C00080200F1080354E750F8043C23F00303AA
:10284C001F446BE75E463A1FDBF80C3056F8081F46
:10285C00242ACB60996023D8132A1FD923681B2AFA
:10286C00CBF808306368CBF80C303CD808340BF14B
:10287C00100322681A6062685A60A2689A60344633
:10288C005746D9464AE72146FFF722F82FE7DCE9FD
:10289C0002135E46CB603A1F9960D5E73346E8E7F2
:1028AC0021463046FFF714F8E9E7A368242A836031
:1028BC00E368C36027D004F1100200F1100310E7A5
:1028CC00521B09EB050142F0010299604A6054F871
:1028DC00043C404603F001032B4344F8043CFFF74F
:1028EC003DFE26462EE7A368242ACBF81030E36879
:1028FC00CBF8143010D010340BF11803B9E7404664
:10290C00FFF72CFE03E7236904F1180203616369E6
:10291C00436100F11803E4E623691834CBF818304E
:10292C0054F8043CCBF81C300BF12003A1E73246E1
:10293C005EE721463046FEF7CBFF074B5EE7A1680A
:10294C00242ACBF81010E168CBF8141006D0103400
:10295C000BF118024CE700BF480100202269183423
:10296C00CBF8182054F8042CCBF81C200BF12002C7
:10297C003EE700BF10B50C46B1F90E1000F090F810
:10298C00002803DB236D0344236510BDA38923F4C6
:10299C008053A38110BD00BF2DE9F0410C46B1F965
:1029AC000C101F46CB05054616460BD421F480515E
:1029BC00A1813B4632462846B4F90E10BDE8F041E1
:1029CC0000F096B8B4F90E100223002200F052F871
:1029DC00B4F90C10EAE700BF10B50C46B1F90E10B3
:1029EC0000F048F8B4F90C30421C0EBF23F48053AD
:1029FC0043F480532065A38110BD00BFB1F90E10C4
:102A0C0000F000B8002238B5064D044608462A608E
:102A1C00FEF7A6FA431C00D038BD2B68002BFBD068
:102A2C00236038BD5C07002070B50026074D0446B6
:102A3C00084611462E60FEF796FA431C00D070BD76
:102A4C002B68002BFBD0236070BD00BF5C070020FF
:102A5C00002238B5064D044608462A60FEF788FA6F
:102A6C00431C00D038BD2B68002BFBD0236038BD35
:102A7C005C07002038B50C46114600228446074DF1
:102A8C0020462A601A466446FEF774FA431C00D0AE
:102A9C0038BD2B68002BFBD0236038BD5C070020B1
:102AAC0038B50C46114600228446074D20462A6054
:102ABC001A466446FEF718FA431C00D038BD2B6842
:102ACC00002BFBD0236038BD5C070020002238B5FA
:102ADC00064D044608462A60FEF724FA431C00D033
:102AEC0038BD2B68002BFBD0236038BD5C07002061
:102AFC0038B50C46114600228446074D20462A6004
:102B0C001A466446FEF700FA431C00D038BD2B6809
:102B1C00002BFBD0236038BD5C070020082802D1B5
:102B2C004FF48050704708B5FEF7A0FF16220346FD
:102B3C004FF0FF301A6008BD38B5074D074C2C1B01
:102B4C00A41005D0013C55F8043D9847002CF9D150
:102B5C00BDE8384000F04AB868320008643200081A
:102B6C002DE9F8431B4D0646286898460F469146BA
:102B7C00FEF7AEFF184B1C681CB3286865681F2D48
:102B8C0022DC4EB96B1C0235636044F82570FEF7ED
:102B9C00A1FF0020BDE8F883012304EB8501C1F8F7
:102BAC008890D4F88821AB401A43022EC4F88821AF
:102BBC00C1F80881E6D1D4F88C211A43C4F88C21D1
:102BCC00E0E7064C1C60D8E7FEF784FF4FF0FF30BF
:102BDC00E0E700BF38010020240700206007002038
:102BEC00F8B500BFF8BC08BC9E467047F8B500BFEE
:082BFC00F8BC08BC9E467047BE
:102C04000204060800000000010203040102030498
:102C14000607080954785061636B6574200000004E
:102C240052785061636B65742000000020202020DE
:102C34002020202020202020202020200000000010
:102C4400202020004F4E000078785F4F4E0D00008A
:102C54004F4646005F4F4646000000000A00000051
:102C64000000000000000000000000000000000060
:102C7400000000F8000000000000003330000000F5
:102C840000100C06100C06000000000000000000FC
:102C940040C07840C0784000043F04043F0404006E
:102CA400007088FC08300000001820FF211E00007E
:102CB400F008F000E018000000211C031E211E0093
:102CC40000F00888700000001E2123241927211019
:102CD40010160E00000000000000000000000000BC
:102CE400000000E018040200000000071820400063
:102CF40000020418E0000000004020180700000053
:102D0400404080F0804040000202010F01020200B6
:102D1400000000F0000000000101011F010101009A
:102D2400000000000000000080B0700000000000FF
:102D34000000000000000000000101010101010188
:102D4400000000000000000000303000000000001F
:102D540000000000806018040060180601000000F4
:102D640000E010080810E000000F102020100F00F1
:102D7400001010F8000000000020203F2020000078
:102D840000700808088870000030282422213000D0
:102D940000300888884830000018202020110E00D8
:102DA4000000C02010F8000000070424243F240081
:102DB40000F80888880808000019212020110E0056
:102DC40000E0108888180000000F112020110E0068
:102DD40000380808C83808000000003F0000000060
:102DE4000070880808887000001C222121221C0021
:102DF40000E010080810E0000000312222110F004A
:102E0400000000C0C00000000000003030000000DE
:102E1400000000800000000000008060000000004E
:102E24000000804020100800000102040810200067
:102E340040404040404040000404040404040400B2
:102E44000008102040800000002010080402010047
:102E5400007048080808F000000000303601000047
:102E6400C030C828E810E0000718272423140B00FA
:102E74000000C038E0000000203C23020227382074
:102E840008F8888888700000203F202020110E0058
:102E9400C03008080808380007182020201008004F
:102EA40008F808080810E000203F202020100F0038
:102EB40008F88888E8081000203F20202320180004
:102EC40008F88888E8081000203F2000030000006C
:102ED400C03008080838000007182020221E02000D
:102EE40008F808000008F808203F210101213F20CC
:102EF400000808F8080800000020203F20200000F7
:102F040000000808F8080800C08080807F000000E6
:102F140008F888C028180800203F2001263820001F
:102F240008F8080000000000203F20202020300086
:102F340008F8F800F8F80800203F003F003F2000A0
:102F440008F830C00008F808203F200007183F00A8
:102F5400E01008080810E0000F10202020100F00D7
:102F640008F808080808F000203F210101010000CA
:102F7400E01008080810E0000F18242438504F000F
:102F840008F8888888887000203F2000030C3020CF
:102F940000708808080838000038202121221C000D
:102FA400180808F8080818000000203F2000000056
:102FB40008F808000008F808001F202020201F003F
:102FC4000878880000C83808000007380E0100009F
:102FD400F80800F80008F800033C0700073C030069
:102FE400081868808068180820302C03032C3020CF
:102FF4000838C800C83808000000203F200000003E
:1030040010080808C8380800203826212020180095
:10301400000000FE020202000000007F4040400069
:10302400000C30C000000000000000010638C000A1
:1030340000020202FE000000004040407F00000049
:10304400000004020202040000000000000000006E
:10305400000000000000000080808080808080806C
:103064000002020400000000000000000000000054
:1030740000008080808000000019242222223F204A
:1030840008F8008080000000003F112020110E008D
:103094000000008080800000000E1120202011001C
:1030A400000000808088F800000E112020103F20CE
:1030B4000000808080800000001F22222222130052
:1030C400008080F0888888180020203F202000009D
:1030D4000000808080808000006B94949493600052
:1030E40008F8008080800000203F210000203F205D
:1030F40000809898000000000020203F202000005D
:10310400000000809898000000C08080807F00004C
:1031140008F8000080808000203F24022D30200029
:10312400000808F8000000000020203F20200000D4
:103134008080808080808000203F20003F20003FEE
:103144008080008080800000203F210000203F20FC
:103154000000808080800000001F202020201F00AD
:10316400808000808000000080FFA12020110E00DC
:103174000000008080808000000E112020A0FF80CD
:10318400808080008080800020203F21200001007A
:1031940000008080808080000033242424241900CF
:1031A400008080E0808000000000001F20200000DC
:1031B4008080000000808000001F202020103F201D
:1031C400808080000080808000010E3008060100AD
:1031D40080800080008080800F300C030C300F0052
:1031E40000808000808080000020312E0E3120007D
:1031F400808080000080808080818E7018060100AD
:1032040000808080808080000021302C22213000CA
:1032140000000000807C020200000000003F4040EB
:1032240000000000FF00000000000000FF0000009C
:103234000002027C800000000040403F00000000CB
:103244000006010102020404000000000000000066
:08325400B8CEFF7F010000006D
:08325C00D91B00081D04000845
:04326400F503000866
:10326800010000000000000003000000DC05002051
:10327800180000200000000000000000DC0500200D
:1032880044060020AC0600200000000000000000FA
:103298000000000000000000000000000000000026
:1032A8000000000000000000000000000000000016
:1032B8000000000000000000000000000000000006
:1032C80000000000000000000000000000000000F6
:1032D80000000000000000000000000000000000E6
:1032E80000000000000000000000000000000000D6
:1032F80000000000000000000000000000000000C6
:1033080000000000000000000000000000000000B5
:1033180001000000000000000E33CDAB34126DE652
:10332800ECDE05000B0000000000000000000000BB
:103338000000000000000000000000000000000085
:103348000000000000000000000000000000000075
:103358000000000000000000000000000000000065
:103368000000000000000000000000000000000055
:103378000000000000000000000000000000000045
:103388000000000000000000000000000000000035
:1033980000000000000000001C070020FFFFFFFFE6
:1033A8000000020000000000000000000000000013
:1033B8004801002048010020500100205001002051
:1033C8005801002058010020600100206001002001
:1033D80068010020680100207001002070010020B1
:1033E8007801002078010020800100208001002061
:1033F8008801002088010020900100209001002011
:103408009801002098010020A0010020A0010020C0
:10341800A8010020A8010020B0010020B001002070
:10342800B8010020B8010020C0010020C001002020
:10343800C8010020C8010020D0010020D0010020D0
:10344800D8010020D8010020E0010020E001002080
:10345800E8010020E8010020F0010020F001002030
:10346800F8010020F80100200002002000020020DE
:10347800080200200802002010020020100200208C
:10348800180200201802002020020020200200203C
:1034980028020020280200203002002030020020EC
:1034A800380200203802002040020020400200209C
:1034B800480200204802002050020020500200204C
:1034C80058020020580200206002002060020020FC
:1034D80068020020680200207002002070020020AC
:1034E800780200207802002080020020800200205C
:1034F800880200208802002090020020900200200C
:103508009802002098020020A0020020A0020020BB
:10351800A8020020A8020020B0020020B00200206B
:10352800B8020020B8020020C0020020C00200201B
:10353800C8020020C8020020D0020020D0020020CB
:10354800D8020020D8020020E0020020E00200207B
:10355800E8020020E8020020F0020020F00200202B
:10356800F8020020F80200200003002000030020D9
:103578000803002008030020100300201003002087
:103588001803002018030020200300202003002037
:1035980028030020280300203003002030030020E7
:1035A8003803002038030020400300204003002097
:1035B8004803002048030020500300205003002047
:1035C80058030020580300206003002060030020F7
:1035D80068030020680300207003002070030020A7
:1035E8007803002078030020800300208003002057
:1035F8008803002088030020900300209003002007
:103608009803002098030020A0030020A0030020B6
:10361800A8030020A8030020B0030020B003002066
:10362800B8030020B8030020C0030020C003002016
:10363800C8030020C8030020D0030020D0030020C6
:10364800D8030020D8030020E0030020E003002076
:10365800E8030020E8030020F0030020F003002026
:10366800F8030020F80300200004002000040020D4
:103678000804002008040020100400201004002082
:103688001804002018040020200400202004002032
:1036980028040020280400203004002030040020E2
:1036A8003804002038040020400400204004002092
:1036B8004804002048040020500400205004002042
:1036C80058040020580400206004002060040020F2
:1036D80068040020680400207004002070040020A2
:1036E8007804002078040020800400208004002052
:1036F8008804002088040020900400209004002002
:103708009804002098040020A0040020A0040020B1
:10371800A8040020A8040020B0040020B004002061
:10372800B8040020B8040020C0040020C004002011
:10373800C8040020C8040020D0040020D0040020C1
:10374800D8040020D8040020E0040020E004002071
:10375800E8040020E8040020F0040020F004002021
:10376800F8040020F80400200005002000050020CF
:10377800080500200805002010050020100500207D
:10378800180500201805002020050020200500202D
:1037980028050020280500203005002030050020DD
:1037A800380500203805002040050020400500208D
:0400000508000E35AC
:00000001FF
