:020000040800F2
:1000000000500020C90D0008D5060008D7060008DA
:10001000D9060008DB060008DD0600080000000025
:10002000000000000000000000000000DF060008E3
:10003000E106000800000000E3060008E5060008ED
:10004000110E0008110E0008110E0008110E000814
:10005000110E0008110E0008110E0008110E000804
:10006000110E0008110E0008110E0008110E0008F4
:10007000110E0008110E0008110E0008110E0008E4
:10008000110E0008110E0008110E0008110E0008D4
:10009000110E0008110E0008110E0008110E0008C4
:1000A000110E0008110E0008110E0008110E0008B4
:1000B000110E0008110E0008110E0008110E0008A4
:1000C000110E0008110E0008110E0008110E000894
:1000D000110E00085D090008110E0008110E00083D
:1000E000F1090008110E0008110E000800000000C0
:1000F0000000000000000000000000000000000000
:0C01000000000000000000005FF808F1A3
:10010C000348044B834202D0034B03B1184770479A
:10011C000800002008000020000000000548064BE5
:10012C001B1AD90F01EBA301491002D0034B03B1E9
:10013C00184770470800002008000020000000004D
:10014C0010B5064C237843B9FFF7DAFF044B13B113
:10015C000448AFF300800123237010BD0800002079
:10016C0000000000340F000808B5054B1BB1054911
:10017C000548AFF30080BDE80840FFF7CFBF00BFD4
:10018C00000000000C000020340F000882B0002397
:10019C00019300932C4A136843F4803313602A4B69
:1001AC001B6803F400330093019B01330193009B04
:1001BC001BB9019BB3F5A06FF1D1234B1B6813F452
:1001CC00003F06D001230093009B012B04D002B00A
:1001DC00704700230093F7E71C4B1A6842F010029B
:1001EC001A601A6822F007021A601A6842F00202BA
:1001FC001A60A3F580535A685A605A685A605A6854
:10020C0042F480625A605A6822F47C125A605A682E
:10021C0042F4E8125A601A6842F080721A600A4B73
:10022C001B6813F0007FFAD0074B5A6822F00302C8
:10023C005A605A6842F002025A60034B5B6803F042
:10024C000C03082BF9D1C2E7001002400020024039
:10025C0008B5FFF79BFF08BD08B5104B1A6842F0B4
:10026C0001021A6059680E4A0A405A601A6822F054
:10027C00847222F480321A601A6822F480221A6086
:10028C005A6822F4FE025A604FF41F029A60FFF77C
:10029C00DFFF044B4FF000629A6008BD0010024073
:1002AC000000FFF800ED00E0064A136803405269B5
:1002BC00024202D01BB90020704700207047012079
:1002CC00704700BF00040140014B5861704700BFEC
:1002DC000004014030B5CB7803F00F02964613F0C2
:1002EC00100F03D091F802E04EEA020E0B78FBB12E
:1002FC000568002301E042610133072B17D8012266
:10030C009A40B1F800C032EA0C0CF5D19C004FF0C9
:10031C000F0C0CFA04FC25EA0C050EFA04F4254328
:10032C00CC78282CE7D0482CE6D10261E4E70560B4
:10033C000B88FF2B25D94568002303E0CC78482C8B
:10034C001CD00133072B1BD803F1080C012202FA35
:10035C000CF2B1F800C032EA0C0CF2D19C004FF058
:10036C000F0C0CFA04FC25EA0C0C0EFA04F444EA0B
:10037C000C05CC78282CE1D14261DFE70261E0E783
:10038C00456030BD0AB101617047416170470000A2
:10039C0070B586B004460D468688B6B226F03F0688
:1003AC00B6B201A800F0B2F803992C4BA3FB0123C1
:1003BC009A0C46EA9346A68023889BB223F001034D
:1003CC009BB223802B68264EB34220D810465B008C
:1003DC00B1FBF3F39BB2032B00D804230130208430
:1003EC00A38323889BB243F00103238023889BB211
:1003FC0023F4816323F00203AA8869890A43134317
:10040C002380AB892A891343238106B070BDEE8803
:10041C004BF6FF7086421BD003EB830303EB830385
:10042C00B1FBF3F189B241F48043C3F30B0109B979
:10043C0043F0010343F400434FF4967101FB02F2C5
:10044C00084981FB02129211013292B22284C7E751
:10045C0003EB4303B1FBF3F39BB2E6E783DE1B43F1
:10046C00A0860100D34D621029B103889BB243F0E2
:10047C0001030380704703889BB223F001039BB2F6
:10048C000380704729B103889BB243F480730380C7
:10049C00704703889BB223F480739BB20380704730
:1004AC0029B103889BB243F400730380704703881F
:1004BC009BB223F400739BB20380704729B103886D
:1004CC009BB243F480630380704703889BB223F490
:1004DC0080639BB20380704701827047008AC0B270
:1004EC0070471AB141F001010182704701F0FE0121
:1004FC00FAE7838A9BB2028B43EA024323F07F43E1
:10050C00994301D0002070470120704710B4294B4B
:10051C005B6803F00C03042B29D0082B2AD0002B8A
:10052C0045D1254B036023494B68C3F30313234C7C
:10053C00E25CD2B20368D34043604A68C2F3022241
:10054C00A25CD2B223FA02F282604A68C2F3C222DF
:10055C00A25CD2B2D340C3604A68C2F3813218495C
:10056C008A5CD2B2B3FBF2F3036110BC7047124B3E
:10057C000360D8E70F4A53685268C3F383430233CE
:10058C0012F4803F04D10F4A02FB03F30360CAE765
:10059C00084A526812F4003F04D00A4A02FB03F3E3
:1005AC000360C0E7044A02FB03F30360BBE7024BA2
:1005BC000360B8E70010024000127A00500F0008E8
:1005CC004C0F000800093D0021B1054A9369034313
:1005DC0093617047024A936923EA00039361704761
:1005EC000010024021B1054AD3690343D36170471F
:1005FC00024AD36923EA0003D3617047001002401A
:10060C008088C0F3080070470388194201D001208C
:10061C00704700207047090A01238B409BB2DB43D3
:10062C009BB203807047000010B586B000F06EFBE3
:10063C0000F0F4F8752000F095F80446214A0121E9
:10064C00084600F0EFFA022322460421012000F0B4
:10065C0037FB03AB01930DF10E03009304AB0DF1CB
:10066C00120205A90DF1160000F02CF90523BDF9B5
:10067C0016200121022000F0F1FA0523BDF9142007
:10068C000121032000F0EAFA0523BDF91220012113
:10069C00042000F0E3FA0523BDF910200821022004
:1006AC0000F0DCFA0523BDF90E200821032000F030
:1006BC00D5FA0523BDF90C200821042000F0CEFA50
:1006CC00C7E700BF600F00087047FEE7FEE7FEE7D4
:1006DC00FEE7704770477047704770B506460D4689
:1006EC0042F2107429463046FFF703FF012801D06F
:1006FC00013CF7D170BD000070B506460D460121D6
:10070C001348FFF7BFFE13491148FFF7F2FE01280B
:10071C00F9D10F4C0022D0212046FFF7E2FE0E4902
:10072C002046FFF7DAFF31462046FFF7D5FE0B498E
:10073C002046FFF7D2FF29462046FFF7CDFE084999
:10074C002046FFF7CAFF01212046FFF7A9FE70BD26
:10075C0000540040010003008200070080000700E5
:10076C008400070038B5044601212648FFF78AFEAD
:10077C0025492448FFF7BDFE0128F9D10022D021DC
:10078C002048FFF7AEFE21491E48FFF7B2FE0128B4
:10079C00F9D121461B48FFF79FFE1D491948FFF769
:1007AC00A8FE0128F9D1174C01212046FFF76AFE5B
:1007BC0015492046FFF791FF0122D0212046FFF773
:1007CC0090FE14490F48FFF794FE0128F9D10D4C07
:1007DC0000212046FFF772FE01212046FFF760FE44
:1007EC000D490848FFF785FE0128F9D1054D28462B
:1007FC00FFF774FE044601212846FFF75FFE2046F2
:10080C0038BD00BF00540040010003008200070007
:10081C0084000700020003004000030070B586B09E
:10082C0001214FF40010FFF7DDFE01210820FFF736
:10083C00CBFE1C258DF81750C023ADF814300323C4
:10084C008DF8163005A91D48FFF744FD0024ADF8BE
:10085C0008404CF2503301934BF6FF73ADF80A305D
:10086C004FF48063ADF80E304FF48043ADF8103088
:10087C00ADF80C40124E01A93046FFF789FD01215D
:10088C003046FFF7F1FD01216B20FFF735FF2146C4
:10089C006C20FFF731FF09211920FFF72DFF0621EE
:1008AC001A20FFF729FF18211B20FFF725FF18211D
:1008BC002846FFF721FF06B070BD00BF000C0140B9
:1008CC00005400402DE9F04107460E4615461C46E3
:1008DC003B20FFF747FF80463C20FFF743FF40EAF1
:1008EC00082038803D20FFF73DFF07463E20FFF7EC
:1008FC0039FF40EA072030803F20FFF733FF0646E0
:10090C004020FFF72FFF40EA062028804320FFF706
:10091C0029FF05464420FFF725FF40EA05202080EB
:10092C004520FFF71FFF04464620FFF71BFF40EA58
:10093C000420069B18804720FFF714FF044648202C
:10094C00FFF710FF40EA0420079B1880BDE8F081F8
:10095C0008B520211E48FFF757FE012800D008BD1E
:10096C001B48FFF74DFEC0B21A4B1B788BB92328DE
:10097C0004D020211648FFF74EFEF0E7164B1B78EB
:10098C00002BF6D1134B01221A70144B00221A7053
:10099C00EFE7012B0ED0022BEBD10A28E9D1002373
:1009AC000C4A13700D4A12780D498B540A4B0122D4
:1009BC001A70DEE7232806D0084A13780849C85471
:1009CC0001331370D5E7034B02221A70D1E700BF35
:1009DC0000380140250000202600002024000020C3
:1009EC002800002008B54FF40040FFF75DFC0128FB
:1009FC0000D008BD044A1388013313804FF4004023
:100A0C00FFF762FCF5E700BF0000002070B582B074
:100A1C0001210820FFF7D8FD14238DF8073003239C
:100A2C008DF806304FF40066ADF804600C4C01A94B
:100A3C002046FFF74FFC4FF48065ADF8045001A938
:100A4C002046FFF747FC012231462046FFF79AFC6F
:100A5C00012229462046FFF795FC02B070BD00BF6D
:100A6C00000C014010B50D4C01224FF48061204662
:100A7C00FFF788FC01224FF400612046FFF782FC4F
:100A8C0000224FF480612046FFF77CFC00224FF4DB
:100A9C0000612046FFF776FC10BD00BF000C014042
:100AAC0010B50A4C00224FF480612046FFF76AFC17
:100ABC0001224FF400612046FFF764FC01224FF441
:100ACC0080612046FFF75EFC10BD00BF000C0140AA
:100ADC0070B50646002416E080222241124D3240A9
:100AEC004FF480612846FFF74DFC01224FF4006162
:100AFC002846FFF747FC00224FF400612846FFF719
:100B0C0041FC0134E4B2072CE6D9074C01224FF426
:100B1C0000612046FFF736FC00224FF400612046AE
:100B2C00FFF730FC70BD00BF000C014010B504464F
:100B3C00FFF798FF7820FFF7CBFF0020FFF7C8FFE7
:100B4C002046FFF7C5FFFFF7ABFF10BD10B50446FD
:100B5C00FFF788FF7820FFF7BBFF4020FFF7B8FFB7
:100B6C002046FFF7B5FFFFF79BFF10BD10B50C46F5
:100B7C0040F0B000FFF7DAFF200940F01000FFF75B
:100B8C00D5FF04F00F00FFF7D1FF10BD38B50025DD
:100B9C0009E00020FFF7DAFF0134E4B214F0800F13
:100BAC00F7D00135EDB2072D05D800212846FFF707
:100BBC00DDFF0024F2E738BDF8B5064615464F1E9A
:100BCC00FF00FFB201384000394600F0FE00FFF78D
:100BDC00CDFF002409E0A5F12002114B03EB021319
:100BEC00185DFFF7B3FF0134E4B2072CF3D97000A2
:100BFC00C0B201383946C0B2FFF7B8FF00240BE091
:100C0C00A5F1200104F10802054B03EB0113985CDC
:100C1C00FFF79CFF0134E4B2072CF1D9F8BD00BFFB
:100C2C00640F0008F8B507460E461546002406E08A
:100C3C00A119C9B23846FFF7BFFF0134E4B22A5DEF
:100C4C00002AF5D1F8BD0246012002E002FB00F0BB
:100C5C0019464B1E0029F9D1704700002DE9F843C5
:100C6C00804689461E46171E04DB2B22FFF7A4FF85
:100C7C0000241FE02D22FFF79FFF7F42F8E704EBD3
:100C8C000905EDB2311B01390A20FFF7DCFFB7FB78
:100C9C00F0F00A4AA2FB0032D20802EB8202A0EB6F
:100CAC0042023032691CD2B2C9B24046FFF784FF0F
:100CBC000134E4B2B442E2D3BDE8F883CDCCCCCC61
:100CCC002DE9F04180460F4616461D46002407E0EC
:100CDC00E1193732C9B24046FFF76EFF0134E4B276
:100CEC00AC4211D2291B01391020FFF7ACFFB6FB27
:100CFC00F0F202F00F02092AEAD8E1193032C9B237
:100D0C004046FFF759FFE9E7BDE8F08108B500223E
:100D1C0004E00133B3F57A7FFBD30132B2F57A7F6D
:100D2C0001D20023F6E7FFF771FEAE20FFF7FEFEBF
:100D3C00D520FFF7FBFE8020FFF7F8FEA820FFF779
:100D4C00F5FE3F20FFF7F2FED320FFF7EFFE002069
:100D5C00FFF7ECFE4020FFF7E9FEA120FFF7E6FECF
:100D6C00C820FFF7E3FEDA20FFF7E0FE1220FFF7C2
:100D7C00DDFE8120FFF7DAFECF20FFF7D7FED9206A
:100D8C00FFF7D4FEF120FFF7D1FEDB20FFF7CEFEFC
:100D9C003020FFF7CBFEA420FFF7C8FEA620FFF7FC
:100DAC00C5FE8D20FFF7C2FE1420FFF7BFFEAF205B
:100DBC00FFF7BCFEFFF7EAFE08BD0000FFF74CFA98
:100DCC000B480C490C4A002302E0D458C45004339D
:100DDC00C4188C42F9D3094A094C002301E0136072
:100DEC000432A242FBD300F00FF8FFF71DFC704752
:100DFC0000000020080000206015000808000020FA
:100E0C0024020020FEE7000070B50F4B0F4DAB42E3
:100E1C00A3EB050607D00024B61055F8043B0134AB
:100E2C009847A642F9D800F07FF8094D094B5E1B94
:100E3C00AB424FEAA60606D0002455F8043B013419
:100E4C009847A642F9D870BD5415000854150008EF
:100E5C00541500085C150008704700BF704700BFB0
:100E6C00024B13B1024800F005B8704700000000B7
:100E7C008D0E0008002301461A46184600F014B8DF
:100E8C0038B5074D074C2C1BA41005D0013C55F868
:100E9C00043D9847002CF9D1BDE8384000F04AB821
:100EAC00601500085C1500082DE9F8431B4D06463B
:100EBC00286898460F469146FFF7CEFF184B1C68E2
:100ECC001CB3286865681F2D22DC4EB96B1C0235DB
:100EDC00636044F82570FFF7C1FF0020BDE8F8837C
:100EEC00012304EB8501C1F88890D4F88821AB402C
:100EFC001A43022EC4F88821C1F80881E6D1D4F82F
:100F0C008C211A43C4F88C21E0E7064C1C60D8E70E
:100F1C00FFF7A4FF4FF0FF30E0E700BF0400002014
:100F2C009000002094000020F8B500BFF8BC08BC6D
:100F3C009E467047F8B500BFF8BC08BC9E4670478B
:100F4C00020406080000000001020304010203046D
:100F5C0006070809494420000000000000000000BA
:100F6C000000000000000000000000F8000000007D
:100F7C00000000333000000000100C06100C0600BE
:100F8C00000000000000000040C07840C078400025
:100F9C00043F04043F040400007088FC0830000087
:100FAC00001820FF211E0000F008F000E0180000DF
:100FBC0000211C031E211E0000F008887000000098
:100FCC001E2123241927211010160E0000000000EA
:100FDC000000000000000000000000E01804020007
:100FEC00000000071820400000020418E000000078
:100FFC000040201807000000404080F08040400076
:10100C000202010F01020200000000F000000000CB
:10101C000101011F0101010000000000000000009F
:10102C0080B0700000000000000000000000000014
:10103C00000101010101010100000000000000009D
:10104C000030300000000000000000008060180438
:10105C00006018060100000000E010080810E00015
:10106C00000F102020100F00001010F800000000DE
:10107C000020203F20200000007008080888700025
:10108C0000302824222130000030088888483000A5
:10109C000018202020110E000000C02010F80000C5
:1010AC0000070424243F240000F80888880808005E
:1010BC000019212020110E0000E010888818000073
:1010CC00000F112020110E0000380808C838080045
:1010DC000000003F000000000070880808887000C5
:1010EC00001C222121221C0000E010080810E00046
:1010FC000000312222110F00000000C0C0000000CF
:10110C0000000030300000000000008000000000F3
:10111C0000008060000000000000804020100800EB
:10112C0000010204081020004040404040404000B4
:10113C00040404040404040000081020408000008F
:10114C000020100804020100007048080808F00094
:10115C000000003036010000C030C828E810E00064
:10116C000718272423140B000000C038E0000000EF
:10117C00203C23020227382008F888888870000059
:10118C00203F202020110E00C0300808080838002D
:10119C00071820202010080008F808080810E000A4
:1011AC00203F202020100F0008F88888E808100045
:1011BC00203F20202320180008F88888E808100019
:1011CC00203F200003000000C03008080838000051
:1011DC0007182020221E020008F808000008F80852
:1011EC00203F210101213F20000808F808080000D9
:1011FC000020203F2020000000000808F80808000C
:10120C00C08080807F00000008F888C02818080083
:10121C00203F20012638200008F8080000000000BC
:10122C00203F20202020300008F8F800F8F80800B3
:10123C00203F003F003F200008F830C00008F808AD
:10124C00203F200007183F00E01008080810E000BD
:10125C000F10202020100F0008F808080808F000D4
:10126C00203F210101010000E01008080810E000F7
:10127C000F18242438504F0008F88888888870008C
:10128C00203F2000030C302000708808080838002C
:10129C000038202121221C00180808F80808180022
:1012AC000000203F2000000008F808000008F808A3
:1012BC00001F202020201F000878880000C8380854
:1012CC00000007380E010000F80800F80008F800CC
:1012DC00033C0700073C0300081868808068180866
:1012EC0020302C03032C30200838C800C8380800E4
:1012FC000000203F2000000010080808C838080033
:10130C002038262120201800000000FE02020200D6
:10131C000000007F40404000000C30C00000000086
:10132C00000000010638C00000020202FE000000AE
:10133C00004040407F000000000004020202040054
:10134C000000000000000000000000000000000091
:10135C008080808080808080000202040000000079
:10136C000000000000000000000080808080000071
:10137C000019242222223F2008F80080800000005F
:10138C00003F112020110E00000000808080000022
:10139C00000E112020201100000000808088F80031
:1013AC00000E112020103F20000080808080000063
:1013BC00001F222222221300008080F088888818C7
:1013CC000020203F202000000000808080808000D2
:1013DC00006B94949493600008F800808080000067
:1013EC00203F210000203F20008098980000000042
:1013FC000020203F20200000000000809898000072
:10140C0000C08080807F000008F800008080800091
:10141C00203F24022D302000000808F800000000B6
:10142C000020203F20200000808080808080800071
:10143C00203F20003F20003F808000808080000003
:10144C00203F210000203F20000080808080000091
:10145C00001F202020201F008080008080000000C2
:10146C0080FFA12020110E000000008080808000F1
:10147C00000E112020A0FF808080800080808000E2
:10148C0020203F212000010000008080808080000F
:10149C000033242424241900008080E08080000084
:1014AC000000001F202000008080000000808000D1
:1014BC00001F202020103F20808080000080808032
:1014CC0000010E30080601008080008000808080C2
:1014DC000F300C030C300F000080800080808000E7
:1014EC000020312E0E312000808080000080808012
:1014FC0080818E70180601000080808080808000C2
:10150C000021302C2221300000000000807C0202DF
:10151C0000000000003F404000000000FF00000001
:10152C0000000000FF0000000002027C80000000B0
:10153C000040403F000000000006010102020404CC
:08154C00000000000000000097
:081554006D0E0008750100088E
:04155C004D01000835
:08156000010000008C000020D6
:0400000508000DC919
:00000001FF
