:020000040800F2
:1000000000500020650E000841090008430900085F
:1000100045090008470900084909000800000000D8
:100020000000000000000000000000004B09000874
:100030004D090008000000004F09000851090008A0
:10004000AD0E0008AD0E0008AD0E0008AD0E0008A4
:10005000AD0E0008AD0E0008AD0E0008AD0E000894
:10006000AD0E0008AD0E0008AD0E0008AD0E000884
:10007000AD0E0008AD0E0008AD0E0008AD0E000874
:10008000AD0E0008AD0E0008AD0E0008AD0E000864
:10009000AD0E0008AD0E0008AD0E0008AD0E000854
:1000A000AD0E0008AD0E0008AD0E0008AD0E000844
:1000B000AD0E0008AD0E0008AD0E0008AD0E000834
:1000C000AD0E0008AD0E0008AD0E0008AD0E000824
:1000D000AD0E0008AD0E0008AD0E0008AD0E000814
:1000E000ED0A0008AD0E0008AD0E0008000000008B
:1000F0000000000000000000000000000000000000
:0C01000000000000000000005FF808F1A3
:10010C000348044B834202D0034B03B1184770479A
:10011C000800002008000020000000000548064BE5
:10012C001B1AD90F01EBA301491002D0034B03B1E9
:10013C00184770470800002008000020000000004D
:10014C0010B5064C237843B9FFF7DAFF044B13B113
:10015C000448AFF300800123237010BD0800002079
:10016C0000000000D00F000808B5054B1BB1054975
:10017C000548AFF30080BDE80840FFF7CFBF00BFD4
:10018C00000000000C000020D00F000882B00023FB
:10019C00019300932C4A136843F4803313602A4B69
:1001AC001B6803F400330093019B01330193009B04
:1001BC001BB9019BB3F5A06FF1D1234B1B6813F452
:1001CC00003F06D001230093009B012B04D002B00A
:1001DC00704700230093F7E71C4B1A6842F010029B
:1001EC001A601A6822F007021A601A6842F00202BA
:1001FC001A60A3F580535A685A605A685A605A6854
:10020C0042F480625A605A6822F47C125A605A682E
:10021C0042F4E8125A601A6842F080721A600A4B73
:10022C001B6813F0007FFAD0074B5A6822F00302C8
:10023C005A605A6842F002025A60034B5B6803F042
:10024C000C03082BF9D1C2E7001002400020024039
:10025C0008B5FFF79BFF08BD08B5104B1A6842F0B4
:10026C0001021A6059680E4A0A405A601A6822F054
:10027C00847222F480321A601A6822F480221A6086
:10028C005A6822F4FE025A604FF41F029A60FFF77C
:10029C00DFFF044B4FF000629A6008BD0010024073
:1002AC000000FFF800ED00E0064A136803405269B5
:1002BC00024202D01BB90020704700207047012079
:1002CC00704700BF00040140014B5861704700BFEC
:1002DC000004014030B5CB7803F00F02964613F0C2
:1002EC00100F03D091F802E04EEA020E0B78FBB12E
:1002FC000568002301E042610133072B17D8012266
:10030C009A40B1F800C032EA0C0CF5D19C004FF0C9
:10031C000F0C0CFA04FC25EA0C050EFA04F4254328
:10032C00CC78282CE7D0482CE6D10261E4E70560B4
:10033C000B88FF2B25D94568002303E0CC78482C8B
:10034C001CD00133072B1BD803F1080C012202FA35
:10035C000CF2B1F800C032EA0C0CF2D19C004FF058
:10036C000F0C0CFA04FC25EA0C0C0EFA04F444EA0B
:10037C000C05CC78282CE1D14261DFE70261E0E783
:10038C00456030BD0AB101617047416170470000A2
:10039C0021B1054A9369034393617047024A9369FB
:1003AC0023EA0003936170470010024021B1054A13
:1003BC00D3690343D3617047024AD36923EA00032C
:1003CC00D36170470010024000B5B0F820C01FFA8E
:1003DC008CFC2CF0010C1FFA8CFCA0F820C0B0F89F
:1003EC0018C01FFA8CFCB0F820E01FFA8EFE2CF01F
:1003FC00F30C1B019BB213434CEA030C124A9042C0
:10040C0017D0124B984214D0B0F1804F11D0A3F5F5
:10041C00983398420DD003F58063984209D003F5C8
:10042C008063984205D02EF00A030B4343F001037E
:10043C0004E02EF002030B4343F00103A0F818C0B4
:10044C0003845DF804FB00BF002C01400034014024
:10045C0010B5B0F820C01FFA8CFC2CF0100C1FFA51
:10046C008CFCA0F820C0B0F818E0B0F820C01FFA3F
:10047C008CFC0C01A4B22EF4407E4FEA0E5E4FEAC7
:10048C001E5E1B039BB243EA0E03120292B21A4386
:10049C00134B984219D003F50063984215D0B0F174
:1004AC00804F12D0A3F5983398420ED003F5806399
:1004BC0098420AD003F58063984206D02CF0A00C29
:1004CC004CEA010141F0100C05E02CF0200C4CEA38
:1004DC00040C4CF0100C0283A0F820C010BD00BF1F
:1004EC00002C014010B58E46B0F820C01FFA8CFCD1
:1004FC002CF4807C1FFA8CFCA0F820C0B0F81CC037
:10050C001FFA8CFC018C89B24FEA0E24A4B22CF099
:10051C00F30C1B019BB213434CEA030C124A90429E
:10052C0018D0124B984215D0B0F1804F12D0A3F5D1
:10053C00983398420ED003F5806398420AD003F5A5
:10054C008063984206D021F4206343EA0E0141F403
:10055C00807104E021F40071214341F48071A0F812
:10056C001CC0018410BD00BF002C014000340140B0
:10057C0010B5B0F820C01FFA8CFC2CF4805C1FFA6C
:10058C008CFCA0F820C0B0F81CE0B0F820C01FFA1A
:10059C008CFC0C03A4B22EF4407E4FEA0E5E4FEAA4
:1005AC001E5E120292B242EA0E021B039BB213436E
:1005BC00144A90421DD002F50062904219D0B0F15D
:1005CC00804F16D0A2F59832904212D002F580627C
:1005DC0090420ED002F5806290420AD02CF4007C3E
:1005EC004FEA4C4C4FEA5C4C41EA0C0141F480510F
:1005FC0004E02CF40051214341F4805183830184A5
:10060C0010BD00BF002C014003889BB2214A9042D0
:10061C0012D002F5006290420ED0B0F1804F0BD098
:10062C00A2F59832904207D002F58062904203D036
:10063C0002F58062904203D123F070034A88134381
:10064C00154A904208D002F58062904204D023F4FF
:10065C0040739BB2CA88134303808B8883850B88B5
:10066C0003850C4B98420FD003F5006398420BD0D6
:10067C0003F54063984207D003F58063984203D09A
:10068C0003F58063984201D10B7A038601238382A0
:10069C00704700BF002C01400010004000B5038CD7
:1006AC009BB223F001039BB20384028C92B2B0F88C
:1006BC0004C01FFA8CFC038B9BB223F07303B1F8BC
:1006CC0000E043EA0E0E22F002020B891A434B881B
:1006DC001343164A90420FD002F5006290420BD0A1
:1006EC0002F54062904207D002F58062904203D03E
:1006FC0002F5806290420FD123F008024B891A4315
:10070C0022F004028B8813432CF4407C8A894CEA37
:10071C00020CCA8942EA0C0CA0F804C0A0F818E03C
:10072C00CA88828603845DF804FB00BF002C01405C
:10073C000023038043808380C380038143818381B2
:10074C00C381704729B103889BB243F00103038036
:10075C00704703889BB223F001039BB20380704760
:10076C0003899BB223F007039BB203817047018579
:10077C008282704703899BB223F070030B43038181
:10078C00704703899BB223F007039BB20381038953
:10079C009BB20B430381704781867047038B9BB2DE
:1007AC0023F00C039BB20383038B9BB20B43038399
:1007BC007047038B9BB223F440639BB20383038B80
:1007CC009BB2090289B20B4303837047F8B5054607
:1007DC000C464988C9B90226A288012A17D00127DC
:1007EC002388B3B923892846FFF7EEFDE188284614
:1007FC00FFF7D4FF23893A4631462846FFF728FEF7
:10080C00E1882846FFF7D5FFF8BD0026E4E702276C
:10081C00E6E723892846FFF71BFEE1882846FFF709
:10082C00C8FF23893A4631462846FFF7CDFDE188BB
:10083C002846FFF7B3FFE7E7838B9BB223F00C034B
:10084C009BB28383838B9BB20B4383837047838BD5
:10085C009BB223F440639BB28383838B9BB20902CC
:10086C0089B20B438383704738B505460C460B8819
:10087C006BB1042B15D0082B1DD00B898A884988A5
:10088C00FFF776FEE1882846FFF7E1FF38BD0B89BC
:10089C008A884988FFF798FDE1882846FFF77EFF94
:1008AC00F4E70B898A884988FFF7D2FDE18828464E
:1008BC00FFF77FFFEAE70B898A884988FFF712FE6A
:1008CC00E1882846FFF7B8FFE0E7808E80B27047DA
:1008DC00008F80B27047000008B500F065FA00F098
:1008EC00A7F800F031F840F2CF2000F0F0F83220F9
:1008FC0000F0E6F80D4A0121084600F011FA0C4A06
:10090C000121022000F00CFA00F072F802460523D7
:10091C000721012000F020FA00F078F802460223AB
:10092C000721184600F018FAEEE700BFE80F0008A0
:10093C00F80F00087047FEE7FEE7FEE7FEE770479A
:10094C00704770477047000030B589B00121022014
:10095C00FFF72CFD01210420FFF71AFD4023ADF811
:10096C001C3048238DF81F3003238DF81E3007A947
:10097C001D48FFF7AFFC1D4C2046FFF7F1FE00258C
:10098C00ADF81650ADF812504FF6FF73ADF81430A9
:10099C004723ADF810308DF8185004A92046FFF706
:1009AC0033FEADF804500F23ADF80C30ADF8065003
:1009BC00ADF80A500125ADF8085001A92046FFF703
:1009CC0053FF01A92046FFF701FF50212046FFF7F6
:1009DC00D1FE04212046FFF7D4FE29462046FFF71E
:1009EC00B1FE09B030BD00BF00080140000400405A
:1009FC0008B50448FFF769FF0130034B93FBF0F097
:100A0C0008BD00BF0004004040420F0038B5074D40
:100A1C002846FFF75DFF642300FB03342846FFF7ED
:100A2C0054FF013094FBF0F038BD00BF00040040CF
:100A3C0030B589B001210846FFF7B8FC012104202C
:100A4C00FFF7A6FC0125ADF81C5018238DF81F30BC
:100A5C0003238DF81E3007A91848FFF73BFC4FF015
:100A6C008040FFF77DFE0024ADF81640ADF8124033
:100A7C006323ADF8143040F2CF23ADF810308DF86D
:100A8C00184004A94FF08040FFF7BEFD6846FFF701
:100A9C004FFE6023ADF80030ADF80A40ADF80250BF
:100AAC00ADF8064069464FF08040FFF7F7FD294648
:100ABC004FF08040FFF746FE09B030BD0008014002
:100ACC0008B501464FF08040FFF766FE08BD08B53B
:100ADC00014600224FF08040FFF749FE08BD0000A0
:100AEC0008B54FF40040FFF7DFFB012800D008BD2C
:100AFC00044A1388013313804FF40040FFF7E4FBE2
:100B0C00F5E700BF0000002070B582B0012108207D
:100B1C00FFF73EFC14238DF8073003238DF80630C5
:100B2C004FF40066ADF804600C4C01A92046FFF7A9
:100B3C00D1FB4FF48065ADF8045001A92046FFF7B6
:100B4C00C9FB012231462046FFF71CFC0122294635
:100B5C002046FFF717FC02B070BD00BF000C01402F
:100B6C0010B50D4C01224FF480612046FFF70AFCB2
:100B7C0001224FF400612046FFF704FC00224FF4E1
:100B8C0080612046FFF7FEFB00224FF400612046F7
:100B9C00FFF7F8FB10BD00BF000C014010B50A4C6C
:100BAC0000224FF480612046FFF7ECFB01224FF44A
:100BBC0000612046FFF7E6FB01224FF480612046DE
:100BCC00FFF7E0FB10BD00BF000C014070B50646FE
:100BDC00002416E080222241124D32404FF48061F5
:100BEC002846FFF7CFFB01224FF400612846FFF7A0
:100BFC00C9FB00224FF400612846FFF7C3FB013408
:100C0C00E4B2072CE6D9074C01224FF400612046D0
:100C1C00FFF7B8FB00224FF400612046FFF7B2FB50
:100C2C0070BD00BF000C014010B50446FFF798FFE3
:100C3C007820FFF7CBFF0020FFF7C8FF2046FFF717
:100C4C00C5FFFFF7ABFF10BD10B50446FFF788FFDB
:100C5C007820FFF7BBFF4020FFF7B8FF2046FFF7D7
:100C6C00B5FFFFF79BFF10BD10B50C4640F0B00070
:100C7C00FFF7DAFF200940F01000FFF7D5FF04F072
:100C8C000F00FFF7D1FF10BD38B5002509E000209B
:100C9C00FFF7DAFF0134E4B214F0800FF7D001351E
:100CAC00EDB2072D05D800212846FFF7DDFF002403
:100CBC00F2E738BDF8B5064615464F1EFF00FFB2E9
:100CCC0001384000394600F0FE00FFF7CDFF00244C
:100CDC0009E0A5F12002114B03EB0213185DFFF79D
:100CEC00B3FF0134E4B2072CF3D97000C0B2013861
:100CFC003946C0B2FFF7B8FF00240BE0A5F1200184
:100D0C0004F10802054B03EB0113985CFFF79CFF01
:100D1C000134E4B2072CF1D9F8BD00BF041000086F
:100D2C00F8B507460E461546002406E0A119C9B2CF
:100D3C003846FFF7BFFF0134E4B22A5D002AF5D133
:100D4C00F8BD0246012002E002FB00F019464B1EE2
:100D5C000029F9D1704700002DE9F84381468846F7
:100D6C0017461E46002419E004EB0805EDB2311BB2
:100D7C0001390A20FFF7E5FFB7FBF0F0094AA2FBA7
:100D8C000032D20802EB8202A0EB42023032D2B225
:100D9C0029464846FFF78EFF0134E4B2B442E3D350
:100DAC00BDE8F883CDCCCCCC08B5002204E00133EF
:100DBC00B3F57A7FFBD30132B2F57A7F01D20023EF
:100DCC00F6E7FFF7A1FEAE20FFF72EFFD520FFF7C9
:100DDC002BFF8020FFF728FFA820FFF725FF3F20DF
:100DEC00FFF722FFD320FFF71FFF0020FFF71CFFA8
:100DFC004020FFF719FFA120FFF716FFC820FFF7CF
:100E0C0013FFDA20FFF710FF1220FFF70DFF8120F0
:100E1C00FFF70AFFCF20FFF707FFD920FFF704FFEA
:100E2C00F120FFF701FFDB20FFF7FEFE3020FFF77C
:100E3C00FBFEA420FFF7F8FEA620FFF7F5FE8D20A1
:100E4C00FFF7F2FE1420FFF7EFFEAF20FFF7ECFEEA
:100E5C00FFF71AFF08BD0000FFF7FEF90B480C491D
:100E6C000C4A002302E0D458C4500433C4188C42FA
:100E7C00F9D3094A094C002301E013600432A24261
:100E8C00FBD300F00FF8FFF727FD704700000020A0
:100E9C00080000200016000808000020BC010020FB
:100EAC00FEE7000070B50F4B0F4DAB42A3EB0506F0
:100EBC0007D00024B61055F8043B01349847A642DD
:100ECC00F9D800F07FF8094D094B5E1BAB424FEA95
:100EDC00A60606D0002455F8043B01349847A642D8
:100EEC00F9D870BDF4150008F4150008F4150008C5
:100EFC00FC150008704700BF704700BF024B13B1D0
:100F0C00024800F005B8704700000000290F0008E7
:100F1C00002301461A46184600F014B838B5074DA0
:100F2C00074C2C1BA41005D0013C55F8043D9847E8
:100F3C00002CF9D1BDE8384000F04AB80016000882
:100F4C00FC1500082DE9F8431B4D06462868984609
:100F5C000F469146FFF7CEFF184B1C681CB3286850
:100F6C0065681F2D22DC4EB96B1C0235636044F89A
:100F7C002570FFF7C1FF0020BDE8F883012304EBC7
:100F8C008501C1F88890D4F88821AB401A43022E11
:100F9C00C4F88821C1F80881E6D1D4F88C211A4311
:100FAC00C4F88C21E0E7064C1C60D8E7FFF7A4FFDF
:100FBC004FF0FF30E0E700BF0400002028000020C5
:100FCC002C000020F8B500BFF8BC08BC9E4670474A
:0C0FDC00F8B500BFF8BC08BC9E4670478A
:100FE800465265713A203030303030485A0000009F
:100FF800447574793A203030250000000000000064
:10100800000000000000000000000000000000F8E0
:1010180000000000000000333000000000100C0643
:10102800100C0600000000000000000040C07840DE
:10103800C0784000043F04043F040400007088FCAA
:1010480008300000001820FF211E0000F008F00002
:10105800E018000000211C031E211E0000F0088873
:10106800700000001E2123241927211010160E00DD
:10107800000000000000000000000000000000E088
:10108800180402000000000718204000000204189D
:10109800E00000000040201807000000404080F0F9
:1010A800804040000202010F01020200000000F02F
:1010B800000000000101011F010101000000000003
:1010C8000000000080B07000000000000000000078
:1010D8000000000000010101010101010000000001
:1010E8000000000000303000000000000000000098
:1010F80080601804006018060100000000E0100875
:101108000810E000000F102020100F00001010F849
:10111800000000000020203F202000000070080888
:101128000888700000302824222130000030088808
:10113800884830000018202020110E000000C02030
:1011480010F8000000070424243F240000F8088851
:10115800880808000019212020110E0000E01088DE
:1011680088180000000F112020110E000038080810
:10117800C83808000000003F000000000070880820
:1011880008887000001C222121221C0000E01008A1
:101198000810E0000000312222110F00000000C0FA
:1011A800C000000000000030300000000000008097
:1011B8000000000000008060000000000000804087
:1011C80020100800000102040810200040404040A0
:1011D80040404000040404040404040000081020F3
:1011E8004080000000201008040201000070480838
:1011F8000808F0000000003036010000C030C828A0
:10120800E810E0000718272423140B000000C0385A
:10121800E0000000203C23020227382008F88888D4
:1012280088700000203F202020110E00C0300808E0
:1012380008083800071820202010080008F80808B7
:101248000810E000203F202020100F0008F88888B0
:10125800E8081000203F20202320180008F888887C
:10126800E8081000203F200003000000C0300808F4
:101278000838000007182020221E020008F808007D
:101288000008F808203F210101213F20000808F844
:10129800080800000020203F202000000000080867
:1012A800F8080800C08080807F00000008F888C027
:1012B80028180800203F20012638200008F80800D8
:1012C80000000000203F20202020300008F8F8000F
:1012D800F8F80800203F003F003F200008F830C021
:1012E8000008F808203F200007183F00E010080811
:1012F8000810E0000F10202020100F0008F8080840
:101308000808F000203F210101010000E010080852
:101318000810E0000F18242438504F0008F8888877
:1013280088887000203F2000030C30200070880857
:10133800080838000038202121221C00180808F865
:10134800080818000000203F2000000008F80800E6
:101358000008F808001F202020201F0008788800B7
:1013680000C83808000007380E010000F80800F827
:101378000008F800033C0700073C030008186880D1
:101388008068180820302C03032C30200838C80047
:10139800C83808000000203F200000001008080896
:1013A800C83808002038262120201800000000FE38
:1013B800020202000000007F40404000000C30C0E4
:1013C80000000000000000010638C0000002020210
:1013D800FE000000004040407F00000000000402C2
:1013E80002020400000000000000000000000000ED
:1013F80000000000808080808080808000020204DD
:1014080000000000000000000000000000008080D4
:10141800808000000019242222223F2008F8008042
:1014280080000000003F112020110E000000008005
:1014380080800000000E1120202011000000008094
:101448008088F800000E112020103F2000008080C6
:1014580080800000001F222222221300008080F0DA
:10146800888888180020203F202000000000808005
:1014780080808000006B94949493600008F800804A
:1014880080800000203F210000203F2000809898A5
:10149800000000000020203F202000000000008005
:1014A8009898000000C08080807F000008F8000045
:1014B80080808000203F24022D302000000808F89A
:1014C800000000000020203F202000008080808055
:1014D80080808000203F20003F20003F80800080E7
:1014E80080800000203F210000203F2000008080F5
:1014F80080800000001F202020201F0080800080A6
:101508008000000080FFA12020110E000000008054
:1015180080808000000E112020A0FF808080800045
:101528008080800020203F21200001000000808072
:10153800808080000033242424241900008080E067
:10154800808000000000001F202000008080000034
:1015580000808000001F202020103F208080800015
:101568000080808000010E30080601008080008025
:10157800008080800F300C030C300F00008080004A
:10158800808080000020312E0E3120008080800075
:101598000080808080818E70180601000080808025
:1015A800808080000021302C2221300000000000C3
:1015B800807C020200000000003F40400000000064
:1015C800FF00000000000000FF0000000002027C95
:1015D800800000000040403F0000000000060101BC
:0C15E800020204040000000000000000EB
:0815F400090F00087501000851
:0415FC004D01000895
:0816000001000000240000209D
:0400000508000E657C
:00000001FF
