:020000040800F2
:100000000348044B834202D0034B03B118477047A7
:100010000400002004000020000000000548064BFA
:100020001B1AD90F01EBA301491002D0034B03B1F6
:100030001847704704000020040000200000000062
:1000400010B5064C237843B9FFF7DAFF044B13B120
:100050000448AFF300800123237010BD040000208A
:10006000000000005C01000808B5054B1BB1054904
:100070000548AFF30080BDE80840FFF7CFBF00BFE1
:1000800000000000080000205C010008704700BF6D
:10009000704700BF024B13B1024800F005B870472B
:1000A00000000000B5000008002301461A4618466B
:1000B00000F014B838B5074D074C2C1BA41005D020
:1000C000013C55F8043D9847002CF9D1BDE8384073
:1000D00000F04AB8800100087C0100082DE9F843CF
:1000E0001B4D0646286898460F469146FFF7CEFFFF
:1000F000184B1C681CB3286865681F2D22DC4EB99C
:100100006B1C0235636044F82570FFF7C1FF0020C7
:10011000BDE8F883012304EB8501C1F88890D4F889
:100120008821AB401A43022EC4F88821C1F8088107
:10013000E6D1D4F88C211A43C4F88C21E0E7064CB0
:100140001C60D8E7FFF7A4FF4FF0FF30E0E700BFE7
:10015000000000202400002028000020F8B500BF87
:10016000F8BC08BC9E467047F8B500BFF8BC08BC98
:040170009E467047F0
:08017400950000086900000875
:04017C004100000836
:04018000200000203B
:0400000508000000EF
:00000001FF
