:020000040800F2
:1000000000500020D1030008BD030008BF03000812
:10001000C1030008C3030008C50300080000000076
:10002000000000000000000000000000C7030008FE
:10003000C903000800000000CB030008CD0300083E
:10004000190400081904000819040008190400081C
:10005000190400081904000819040008190400080C
:1000600019040008190400081904000819040008FC
:1000700019040008190400081904000819040008EC
:1000800019040008190400081904000819040008DC
:1000900019040008190400081904000819040008CC
:1000A00019040008190400081904000819040008BC
:1000B00019040008190400081904000819040008AC
:1000C000190400081904000819040008190400089C
:1000D000190400081904000819040008190400088C
:1000E00019040008190400081904000800000000A1
:1000F0000000000000000000000000000000000000
:0C01000000000000000000005FF808F1A3
:10010C000348044B834202D0034B03B1184770479A
:10011C000400002004000020000000000548064BED
:10012C001B1AD90F01EBA301491002D0034B03B1E9
:10013C001847704704000020040000200000000055
:10014C0010B5064C237843B9FFF7DAFF044B13B113
:10015C000448AFF300800123237010BD040000207D
:10016C00000000003C05000808B5054B1BB1054913
:10017C000548AFF30080BDE80840FFF7CFBF00BFD4
:10018C0000000000080000203C05000882B000239D
:10019C00019300932C4A136843F4803313602A4B69
:1001AC001B6803F400330093019B01330193009B04
:1001BC001BB9019BB3F5A06FF1D1234B1B6813F452
:1001CC00003F06D001230093009B012B04D002B00A
:1001DC00704700230093F7E71C4B1A6842F010029B
:1001EC001A601A6822F007021A601A6842F00202BA
:1001FC001A60A3F580535A685A605A685A605A6854
:10020C0042F480625A605A6822F47C125A605A682E
:10021C0042F4E8125A601A6842F080721A600A4B73
:10022C001B6813F0007FFAD0074B5A6822F00302C8
:10023C005A605A6842F002025A60034B5B6803F042
:10024C000C03082BF9D1C2E7001002400020024039
:10025C0008B5FFF79BFF08BD08B5104B1A6842F0B4
:10026C0001021A6059680E4A0A405A601A6822F054
:10027C00847222F480321A601A6822F480221A6086
:10028C005A6822F4FE025A604FF41F029A60FFF77C
:10029C00DFFF044B4FF000629A6008BD0010024073
:1002AC000000FFF800ED00E030B5CB7803F00F0252
:1002BC00964613F0100F03D091F802E04EEA020EAE
:1002CC000B78FBB10568002301E042610133072B79
:1002DC0017D801229A40B1F800C032EA0C0CF5D1C3
:1002EC009C004FF00F0C0CFA04FC25EA0C050EFADE
:1002FC0004F42543CC78282CE7D0482CE6D10261B5
:10030C00E4E705600B88FF2B25D94568002303E043
:10031C00CC78482C1CD00133072B1BD803F1080CCC
:10032C00012202FA0CF2B1F800C032EA0C0CF2D144
:10033C009C004FF00F0C0CFA04FC25EA0C0C0EFA86
:10034C0004F444EA0C05CC78282CE1D14261DFE7B7
:10035C000261E0E7456030BD4161704721B1054A5B
:10036C009369034393617047024A936923EA00033C
:10037C00936170470010024000B583B0012110203A
:10038C00FFF7ECFF4FF40055ADF8045010238DF837
:10039C00073003238DF80630044C01A92046FFF7E3
:1003AC0083FF29462046FFF7D7FFE7E700100140FF
:1003BC007047FEE7FEE7FEE7FEE7704770477047C1
:1003CC0070470000FFF748FF0B480C490C4A00230C
:1003DC0002E0D458C4500433C4188C42F9D3094AEF
:1003EC00094C002301E013600432A242FBD300F05D
:1003FC000FF8FFF7C1FF7047000000200400002039
:10040C006005000804000020B8010020FEE7000091
:10041C0070B50F4B0F4DAB42A3EB050607D0002474
:10042C00B61055F8043B01349847A642F9D800F0B1
:10043C007FF8094D094B5E1BAB424FEAA60606D06E
:10044C00002455F8043B01349847A642F9D870BDF6
:10045C005405000854050008540500085C05000804
:10046C00704700BF704700BF024B13B1024800F049
:10047C0005B87047000000009504000800230146F1
:10048C001A46184600F014B838B5074D074C2C1B0B
:10049C00A41005D0013C55F8043D9847002CF9D127
:1004AC00BDE8384000F04AB8600500085C0500085B
:1004BC002DE9F8431B4D0646286898460F46914691
:1004CC00FFF7CEFF184B1C681CB3286865681F2DFE
:1004DC0022DC4EB96B1C0235636044F82570FFF7C3
:1004EC00C1FF0020BDE8F883012304EB8501C1F8AE
:1004FC008890D4F88821AB401A43022EC4F8882186
:10050C00C1F80881E6D1D4F88C211A43C4F88C21A7
:10051C00E0E7064C1C60D8E7FFF7A4FF4FF0FF3074
:10052C00E0E700BF0000002024000020280000208D
:10053C00F8B500BFF8BC08BC9E467047F8B500BFC4
:08054C00F8BC08BC9E46704794
:080554007504000875010008A0
:04055C004D01000845
:040560002000002057
:04000005080003D11B
:00000001FF
