:020000040800F2
:100000000050002029040008D5030008D703000889
:10001000D9030008DB030008DD030008000000002E
:10002000000000000000000000000000DF030008E6
:10003000E103000800000000E3030008E5030008F6
:1000400071040008710400087104000871040008BC
:1000500071040008710400087104000871040008AC
:10006000710400087104000871040008710400089C
:10007000710400087104000871040008710400088C
:10008000710400087104000871040008710400087C
:10009000710400087104000871040008710400086C
:1000A000710400087104000871040008710400085C
:1000B000710400087104000871040008710400084C
:1000C000710400087104000871040008710400083C
:1000D000710400087104000871040008710400082C
:1000E0007104000871040008710400080000000099
:1000F0000000000000000000000000000000000000
:0C01000000000000000000005FF808F1A3
:10010C000348044B834202D0034B03B1184770479A
:10011C000400002004000020000000000548064BED
:10012C001B1AD90F01EBA301491002D0034B03B1E9
:10013C001847704704000020040000200000000055
:10014C0010B5064C237843B9FFF7DAFF044B13B113
:10015C000448AFF300800123237010BD040000207D
:10016C00000000009405000808B5054B1BB10549BB
:10017C000548AFF30080BDE80840FFF7CFBF00BFD4
:10018C0000000000080000209405000882B0002345
:10019C00019300932C4A136843F4803313602A4B69
:1001AC001B6803F400330093019B01330193009B04
:1001BC001BB9019BB3F5A06FF1D1234B1B6813F452
:1001CC00003F06D001230093009B012B04D002B00A
:1001DC00704700230093F7E71C4B1A6842F010029B
:1001EC001A601A6822F007021A601A6842F00202BA
:1001FC001A60A3F580535A685A605A685A605A6854
:10020C0042F480625A605A6822F47C125A605A682E
:10021C0042F4E8125A601A6842F080721A600A4B73
:10022C001B6813F0007FFAD0074B5A6822F00302C8
:10023C005A605A6842F002025A60034B5B6803F042
:10024C000C03082BF9D1C2E7001002400020024039
:10025C0008B5FFF79BFF08BD08B5104B1A6842F0B4
:10026C0001021A6059680E4A0A405A601A6822F054
:10027C00847222F480321A601A6822F480221A6086
:10028C005A6822F4FE025A604FF41F029A60FFF77C
:10029C00DFFF044B4FF000629A6008BD0010024073
:1002AC000000FFF800ED00E030B5CB7803F00F0252
:1002BC00964613F0100F03D091F802E04EEA020EAE
:1002CC000B78FBB10568002301E042610133072B79
:1002DC0017D801229A40B1F800C032EA0C0CF5D1C3
:1002EC009C004FF00F0C0CFA04FC25EA0C050EFADE
:1002FC0004F42543CC78282CE7D0482CE6D10261B5
:10030C00E4E705600B88FF2B25D94568002303E043
:10031C00CC78482C1CD00133072B1BD803F1080CCC
:10032C00012202FA0CF2B1F800C032EA0C0CF2D144
:10033C009C004FF00F0C0CFA04FC25EA0C0C0EFA86
:10034C0004F444EA0C05CC78282CE1D14261DFE7B7
:10035C000261E0E7456030BD016170474161704763
:10036C0021B1054A9369034393617047024A93692B
:10037C0023EA0003936170470010024000B583B07C
:10038C0001211020FFF7ECFF4FF40055ADF804509D
:10039C0010238DF8073003238DF80630094C01A982
:1003AC002046FFF781FF29462046FFF7D5FFC820DE
:1003BC0000F028F829462046FFF7D0FFC82000F0AF
:1003CC0021F8DDE7001001407047FEE7FEE7FEE78D
:1003DC00FEE7704770477047704700EBC000C000E5
:1003EC004FF0E023586100229A6105221A614FF008
:1003FC00E0231B6913F4803FF9D04FF0E023042273
:10040C001A61704710B504E04FF47A70FFF7E5FFFE
:10041C002046441E0028F7D110BD0000FFF71CFF3A
:10042C000B480C490C4A002302E0D458C450043346
:10043C00C4188C42F9D3094A094C002301E013601B
:10044C000432A242FBD300F00FF8FFF797FF70477E
:10045C000000002004000020B80500080400002063
:10046C00B8010020FEE7000070B50F4B0F4DAB42FA
:10047C00A3EB050607D00024B61055F8043B013455
:10048C009847A642F9D800F07FF8094D094B5E1B3E
:10049C00AB424FEAA60606D0002455F8043B0134C3
:1004AC009847A642F9D870BDAC050008AC05000809
:1004BC00AC050008B4050008704700BF704700BFCA
:1004CC00024B13B1024800F005B870470000000061
:1004DC00ED040008002301461A46184600F014B833
:1004EC0038B5074D074C2C1BA41005D0013C55F812
:1004FC00043D9847002CF9D1BDE8384000F04AB8CB
:10050C00B8050008B40500082DE9F8431B4D064654
:10051C00286898460F469146FFF7CEFF184B1C688B
:10052C001CB3286865681F2D22DC4EB96B1C023584
:10053C00636044F82570FFF7C1FF0020BDE8F88325
:10054C00012304EB8501C1F88890D4F88821AB40D5
:10055C001A43022EC4F88821C1F80881E6D1D4F8D8
:10056C008C211A43C4F88C21E0E7064C1C60D8E7B8
:10057C00FFF7A4FF4FF0FF30E0E700BF00000020C2
:10058C002400002028000020F8B500BFF8BC08BCEF
:10059C009E467047F8B500BFF8BC08BC9E46704735
:0805AC00CD04000875010008F0
:0405B4004D010008ED
:0405B80020000020FF
:0400000508000429C2
:00000001FF
