:020000040800F2
:1000000000500020C1060008970500089905000867
:100010009B0500089D0500089F05000800000000E2
:10002000000000000000000000000000A105000822
:10003000A305000800000000A5050008A7050008AA
:100040000907000809070008090700080907000850
:100050000907000809070008090700080907000840
:100060000907000809070008090700080907000830
:100070000907000809070008090700080907000820
:100080000907000809070008090700080907000810
:100090000907000809070008090700080907000800
:1000A00009070008090700080907000809070008F0
:1000B00009070008090700080907000809070008E0
:1000C00009070008090700080907000809070008D0
:1000D00009070008090700080907000809070008C0
:1000E0005906000809070008090700080000000079
:1000F0000000000000000000000000000000000000
:0C01000000000000000000005FF808F1A3
:10010C000348044B834202D0034B03B1184770479A
:10011C000800002008000020000000000548064BE5
:10012C001B1AD90F01EBA301491002D0034B03B1E9
:10013C00184770470800002008000020000000004D
:10014C0010B5064C237843B9FFF7DAFF044B13B113
:10015C000448AFF300800123237010BD0800002079
:10016C00000000002C08000808B5054B1BB1054920
:10017C000548AFF30080BDE80840FFF7CFBF00BFD4
:10018C00000000000C0000202C08000882B00023A6
:10019C00019300932C4A136843F4803313602A4B69
:1001AC001B6803F400330093019B01330193009B04
:1001BC001BB9019BB3F5A06FF1D1234B1B6813F452
:1001CC00003F06D001230093009B012B04D002B00A
:1001DC00704700230093F7E71C4B1A6842F010029B
:1001EC001A601A6822F007021A601A6842F00202BA
:1001FC001A60A3F580535A685A605A685A605A6854
:10020C0042F480625A605A6822F47C125A605A682E
:10021C0042F4E8125A601A6842F080721A600A4B73
:10022C001B6813F0007FFAD0074B5A6822F00302C8
:10023C005A605A6842F002025A60034B5B6803F042
:10024C000C03082BF9D1C2E7001002400020024039
:10025C0008B5FFF79BFF08BD08B5104B1A6842F0B4
:10026C0001021A6059680E4A0A405A601A6822F054
:10027C00847222F480321A601A6822F480221A6086
:10028C005A6822F4FE025A604FF41F029A60FFF77C
:10029C00DFFF044B4FF000629A6008BD0010024073
:1002AC000000FFF800ED00E0064A136803405269B5
:1002BC00024202D01BB90020704700207047012079
:1002CC00704700BF00040140014B5861704700BFEC
:1002DC000004014030B5CB7803F00F02964613F0C2
:1002EC00100F03D091F802E04EEA020E0B78FBB12E
:1002FC000568002301E042610133072B17D8012266
:10030C009A40B1F800C032EA0C0CF5D19C004FF0C9
:10031C000F0C0CFA04FC25EA0C050EFA04F4254328
:10032C00CC78282CE7D0482CE6D10261E4E70560B4
:10033C000B88FF2B25D94568002303E0CC78482C8B
:10034C001CD00133072B1BD803F1080C012202FA35
:10035C000CF2B1F800C032EA0C0CF2D19C004FF058
:10036C000F0C0CFA04FC25EA0C0C0EFA04F444EA0B
:10037C000C05CC78282CE1D14261DFE70261E0E783
:10038C00456030BD21B1054A9369034393617047C1
:10039C00024A936923EA00039361704700100240FC
:1003AC0021B1054AD3690343D3617047024AD3692B
:1003BC0023EA0003D36170470010024003889BB20C
:1003CC00214A904212D002F5006290420ED0B0F158
:1003DC00804F0BD0A2F59832904207D002F5806284
:1003EC00904203D002F58062904203D123F0700357
:1003FC004A881343154A904208D002F58062904215
:10040C0004D023F440739BB2CA88134303808B88B7
:10041C0083850B8803850C4B98420FD003F5006342
:10042C0098420BD003F54063984207D003F58063E4
:10043C00984203D003F58063984201D10B7A03866E
:10044C0001238382704700BF002C01400010004044
:10045C0000B5038C9BB223F001039BB20384028C86
:10046C0092B2B0F804C01FFA8CFC038B9BB223F041
:10047C007303B1F800E043EA0E0E22F002020B897E
:10048C001A434B881343164A90420FD002F5006270
:10049C0090420BD002F54062904207D002F5806288
:1004AC00904203D002F5806290420FD123F00802F3
:1004BC004B891A4322F004028B8813432CF4407CA2
:1004CC008A894CEA020CCA8942EA0C0CA0F804C0D6
:1004DC00A0F818E0CA88828603845DF804FB00BF8C
:1004EC00002C01400023038043808380C380038160
:1004FC0043818381C381704729B103889BB243F048
:10050C0001030380704703889BB223F001039BB265
:10051C000380704703899BB223F007039BB20381CE
:10052C007047B0F808C05FFA8CFC1B029BB21343F7
:10053C000B4343EA0C030381704710B50446FFF7E5
:10054C00F0FF23899BB243F48043238110BD818645
:10055C00704710B500F022F815E0A0B200F06EF86C
:10056C00642000F09CF80134642CF6DD002408E0D3
:10057C00C4F1640080B200F061F8642000F08FF8E0
:10058C000134642CF4DD0024EEE77047FEE7FEE74F
:10059C00FEE7FEE7704770477047704730B589B08B
:1005AC0001210846FFF7FCFE4FF08040FFF7B2FF39
:1005BC0001210420FFF7E6FE0125ADF81C5018239D
:1005CC008DF81F3003238DF81E3007A91A48FFF74A
:1005DC0081FE00231A4619464FF08040FFF7ADFF0D
:1005EC000024ADF81640ADF812406323ADF814307A
:1005FC0040F2CF23ADF810308DF8184004A94FF01D
:10060C008040FFF7DBFE6846FFF76CFF6023ADF818
:10061C000030ADF80A40ADF80250ADF8064069461E
:10062C004FF08040FFF714FF29464FF08040FFF752
:10063C0063FF09B030BD00BF0008014008B501469A
:10064C004FF08040FFF783FF08BD000008B54FF462
:10065C000040FFF729FE012800D008BD044A13888A
:10066C00013313804FF40040FFF72EFEF5E700BF77
:10067C000000002000EBC000C0004FF0E0235861E8
:10068C0000229A6105221A614FF0E0231B6913F4D2
:10069C00803FF9D04FF0E02304221A61704710B567
:1006AC0004E04FF47A70FFF7E5FF2046441E002863
:1006BC00F7D110BDFFF7D0FD0B480C490C4A0023B5
:1006CC0002E0D458C4500433C4188C42F9D3094AFC
:1006DC00094C002301E013600432A242FBD300F06A
:1006EC000FF8FFF736FF70470000002008000020CD
:1006FC005008000808000020BC010020FEE70000A4
:10070C0070B50F4B0F4DAB42A3EB050607D0002481
:10071C00B61055F8043B01349847A642F9D800F0BE
:10072C007FF8094D094B5E1BAB424FEAA60606D07B
:10073C00002455F8043B01349847A642F9D870BD03
:10074C004408000844080008440800084C08000845
:10075C00704700BF704700BF024B13B1024800F056
:10076C0005B870470000000085070008002301460B
:10077C001A46184600F014B838B5074D074C2C1B18
:10078C00A41005D0013C55F8043D9847002CF9D134
:10079C00BDE8384000F04AB8500800084C08000882
:1007AC002DE9F8431B4D0646286898460F4691469E
:1007BC00FFF7CEFF184B1C681CB3286865681F2D0B
:1007CC0022DC4EB96B1C0235636044F82570FFF7D0
:1007DC00C1FF0020BDE8F883012304EB8501C1F8BB
:1007EC008890D4F88821AB401A43022EC4F8882193
:1007FC00C1F80881E6D1D4F88C211A43C4F88C21B5
:10080C00E0E7064C1C60D8E7FFF7A4FF4FF0FF3081
:10081C00E0E700BF04000020280000202C0000208E
:10082C00F8B500BFF8BC08BC9E467047F8B500BFD1
:08083C00F8BC08BC9E467047A1
:080844006507000875010008BA
:04084C004D01000852
:0808500001000000240000205B
:04000005080006C128
:00000001FF
