:020000040800F2
:10000000005000205D0900081B0400081D040008C2
:100010001F04000821040008230400080000000059
:10002000000000000000000000000000250400089F
:100030002704000800000000290400082B04000821
:10004000A5090008A5090008A5090008A5090008D8
:10005000A5090008A5090008A5090008A5090008C8
:10006000A5090008A5090008A5090008A5090008B8
:10007000A5090008A5090008A5090008A5090008A8
:10008000A5090008A5090008A5090008A509000898
:10009000A5090008A5090008A5090008A509000888
:1000A000A5090008A5090008A5090008A509000878
:1000B000A5090008A5090008A5090008A509000868
:1000C000A5090008A5090008A5090008A509000858
:1000D000A50900082D040008A5090008A5090008C5
:1000E000C1040008A5090008A509000800000000D7
:1000F0000000000000000000000000000000000000
:0C01000000000000000000005FF808F1A3
:10010C000348044B834202D0034B03B1184770479A
:10011C000800002008000020000000000548064BE5
:10012C001B1AD90F01EBA301491002D0034B03B1E9
:10013C00184770470800002008000020000000004D
:10014C0010B5064C237843B9FFF7DAFF044B13B113
:10015C000448AFF300800123237010BD0800002079
:10016C0000000000C80A000808B5054B1BB1054982
:10017C000548AFF30080BDE80840FFF7CFBF00BFD4
:10018C00000000000C000020C80A000882B0002308
:10019C00019300932C4A136843F4803313602A4B69
:1001AC001B6803F400330093019B01330193009B04
:1001BC001BB9019BB3F5A06FF1D1234B1B6813F452
:1001CC00003F06D001230093009B012B04D002B00A
:1001DC00704700230093F7E71C4B1A6842F010029B
:1001EC001A601A6822F007021A601A6842F00202BA
:1001FC001A60A3F580535A685A605A685A605A6854
:10020C0042F480625A605A6822F47C125A605A682E
:10021C0042F4E8125A601A6842F080721A600A4B73
:10022C001B6813F0007FFAD0074B5A6822F00302C8
:10023C005A605A6842F002025A60034B5B6803F042
:10024C000C03082BF9D1C2E7001002400020024039
:10025C0008B5FFF79BFF08BD08B5104B1A6842F0B4
:10026C0001021A6059680E4A0A405A601A6822F054
:10027C00847222F480321A601A6822F480221A6086
:10028C005A6822F4FE025A604FF41F029A60FFF77C
:10029C00DFFF044B4FF000629A6008BD0010024073
:1002AC000000FFF800ED00E0064A136803405269B5
:1002BC00024202D01BB90020704700207047012079
:1002CC00704700BF00040140014B5861704700BFEC
:1002DC000004014030B5CB7803F00F02964613F0C2
:1002EC00100F03D091F802E04EEA020E0B78FBB12E
:1002FC000568002301E042610133072B17D8012266
:10030C009A40B1F800C032EA0C0CF5D19C004FF0C9
:10031C000F0C0CFA04FC25EA0C050EFA04F4254328
:10032C00CC78282CE7D0482CE6D10261E4E70560B4
:10033C000B88FF2B25D94568002303E0CC78482C8B
:10034C001CD00133072B1BD803F1080C012202FA35
:10035C000CF2B1F800C032EA0C0CF2D19C004FF058
:10036C000F0C0CFA04FC25EA0C0C0EFA04F444EA0B
:10037C000C05CC78282CE1D14261DFE70261E0E783
:10038C00456030BD8368194201D0012070470020C0
:10039C007047016170470AB1016170474161704754
:1003AC0021B1054A9369034393617047024A9369EB
:1003BC0023EA000393617047001002408088C0F369
:1003CC00080070470388194201D0012070470020B3
:1003DC007047090A01238B409BB2DB439BB203801D
:1003EC00704710B500F05CFA00F078F800F0BEF839
:1003FC00D22000F0D4F800F0E5F8044600F0C4F880
:10040C00082322460121084600F022FAFEE7704735
:10041C00FEE7FEE7FEE7FEE7704770477047704760
:10042C0008B520211E48FFF7CDFF012800D008BDDC
:10043C001B48FFF7C3FFC0B21A4B1B788BB923289C
:10044C0004D020211648FFF7C4FFF0E7164B1B78A9
:10045C00002BF6D1134B01221A70144B00221A7088
:10046C00EFE7012B0ED0022BEBD10A28E9D10023A8
:10047C000C4A13700D4A12780D498B540A4B012209
:10048C001A70DEE7232806D0084A13780849C854A6
:10049C0001331370D5E7034B02221A70D1E700BF6A
:1004AC0000380140250000202600002024000020F8
:1004BC002800002008B54FF40040FFF7F5FE012896
:1004CC0000D008BD044A1388013313804FF4004058
:1004DC00FFF7FAFEF5E700BF0000002030B583B04F
:1004EC0001211020FFF75CFF14238DF807304FF427
:1004FC004045ADF8045003238DF80630054C01A996
:10050C002046FFF7E7FE29462046FFF742FF03B0DF
:10051C0030BD00BF0010014008B502464FF4004149
:10052C000348FFF738FF0A2000F070F808BD00BF41
:10053C000010014008B502464FF480410348FFF714
:10054C002AFF0A2000F062F808BD00BF001001402D
:10055C0010B54FF480410448FFF714FF04460A20FD
:10056C0000F054F8204610BD0010014008B50120E1
:10057C00FFF7D2FF0120FFF7DDFF0020FFF7DAFFC6
:10058C000020FFF7C9FF08BD08B50020FFF7D2FF18
:10059C000120FFF7C1FF0120FFF7CCFF08BD38B5E4
:1005AC00054600240BE0802020412840FFF7C2FFC5
:1005BC000120FFF7B1FF0020FFF7AEFF0134072C3D
:1005CC00F1DD38BD10B50120FFF7B4FF0120FFF7B6
:1005DC00A3FFFFF7BDFF04460020FFF79DFF204659
:1005EC0010BD00EBC000C0004FF0E02358610022AA
:1005FC009A6105221A614FF0E0231B6913F4803FC6
:10060C00F9D04FF0E02304221A61704710B504E0D2
:10061C004FF47A70FFF7E5FF2046441E0028F7D10F
:10062C0010BD000070B582B001210820FFF7B8FEA4
:10063C0014238DF8073003238DF806304FF4006631
:10064C00ADF804600C4C01A92046FFF743FE4FF4B3
:10065C008065ADF8045001A92046FFF73BFE01224E
:10066C0031462046FFF797FE012229462046FFF728
:10067C0092FE02B070BD00BF000C014010B50D4CD5
:10068C0001224FF480612046FFF785FE01224FF4D2
:10069C0000612046FFF77FFE00224FF48061204668
:1006AC00FFF779FE00224FF400612046FFF773FE3E
:1006BC0010BD00BF000C014010B50A4C00224FF4D5
:1006CC0080612046FFF767FE01224FF4006120464F
:1006DC00FFF761FE01224FF480612046FFF75BFEBD
:1006EC0010BD00BF000C014070B50646002416E09A
:1006FC0080222241124D32404FF480612846FFF790
:10070C004AFE01224FF400612846FFF744FE002206
:10071C004FF400612846FFF73EFE0134E4B2072C8B
:10072C00E6D9074C01224FF400612046FFF733FE57
:10073C0000224FF400612046FFF72DFE70BD00BF74
:10074C00000C014010B50446FFF798FF7820FFF726
:10075C00CBFF0020FFF7C8FF2046FFF7C5FFFFF7D0
:10076C00ABFF10BD10B50446FFF788FF7820FFF7EC
:10077C00BBFF4020FFF7B8FF2046FFF7B5FFFFF7A0
:10078C009BFF10BD10B50C4640F0B000FFF7DAFF30
:10079C00200940F01000FFF7D5FF04F00F00FFF721
:1007AC00D1FF10BD38B5002509E00020FFF7DAFFB6
:1007BC000134E4B214F0800FF7D00135EDB2072DFF
:1007CC0005D800212846FFF7DDFF0024F2E738BDED
:1007DC00F8B5064615464F1EFF00FFB20138400023
:1007EC00394600F0FE00FFF7CDFF002409E0A5F12B
:1007FC002002114B03EB0213185DFFF7B3FF01341A
:10080C00E4B2072CF3D97000C0B201383946C0B23B
:10081C00FFF7B8FF00240BE0A5F1200104F108025A
:10082C00054B03EB0113985CFFF79CFF0134E4B21A
:10083C00072CF1D9F8BD00BFE00A000802460120E0
:10084C0002E002FB00F019464B1E0029F9D170475B
:10085C002DE9F8438146884617461E46002419E0C8
:10086C0004EB0805EDB2311B01390A20FFF7E6FF56
:10087C00B7FBF0F0094AA2FB0032D20802EB82026D
:10088C00A0EB42023032D2B229464846FFF7A0FF15
:10089C000134E4B2B442E3D3BDE8F883CDCCCCCC84
:1008AC0008B5002204E00133B3F57A7FFBD30132A3
:1008BC00B2F57A7F01D20023F6E7FFF7B3FEAE2044
:1008CC00FFF740FFD520FFF73DFF8020FFF73AFFF1
:1008DC00A820FFF737FF3F20FFF734FFD320FFF7A7
:1008EC0031FF0020FFF72EFF4020FFF72BFFA12048
:1008FC00FFF728FFC820FFF725FFDA20FFF722FFBC
:10090C001220FFF71FFF8120FFF71CFFCF20FFF7FE
:10091C0019FFD920FFF716FFF120FFF713FFDB209B
:10092C00FFF710FF3020FFF70DFFA420FFF70AFFA1
:10093C00A620FFF707FF8D20FFF704FF1420FFF719
:10094C0001FFAF20FFF7FEFEFFF72CFF08BD0000F4
:10095C00FFF782FC0B480C490C4A002302E0D458E8
:10096C00C4500433C4188C42F9D3094A094C0023EF
:10097C0001E013600432A242FBD300F00FF8FFF742
:10098C0030FD70470000002008000020DC1000083B
:10099C000800002024020020FEE7000070B50F4B79
:1009AC000F4DAB42A3EB050607D00024B61055F84B
:1009BC00043B01349847A642F9D800F07FF8094D62
:1009CC00094B5E1BAB424FEAA60606D0002455F835
:1009DC00043B01349847A642F9D870BDD0100008EA
:1009EC00D0100008D0100008D8100008704700BFC5
:1009FC00704700BF024B13B1024800F005B87047B6
:100A0C0000000000210A0008002301461A4618467F
:100A1C0000F014B838B5074D074C2C1BA41005D0AA
:100A2C00013C55F8043D9847002CF9D1BDE83840FD
:100A3C0000F04AB8DC100008D81000082DE9F84383
:100A4C001B4D0646286898460F469146FFF7CEFF89
:100A5C00184B1C681CB3286865681F2D22DC4EB926
:100A6C006B1C0235636044F82570FFF7C1FF002052
:100A7C00BDE8F883012304EB8501C1F88890D4F814
:100A8C008821AB401A43022EC4F88821C1F8088192
:100A9C00E6D1D4F88C211A43C4F88C21E0E7064C3B
:100AAC001C60D8E7FFF7A4FF4FF0FF30E0E700BF72
:100ABC00040000209000002094000020F8B500BF36
:100ACC00F8BC08BC9E467047F8B500BFF8BC08BC23
:040ADC009E4670477B
:100AE0000000000000000000000000000000000006
:100AF000000000F80000000000000033300000009B
:100B000000100C06100C06000000000000000000A1
:100B100040C07840C0784000043F04043F04040013
:100B2000007088FC08300000001820FF211E000023
:100B3000F008F000E018000000211C031E211E0038
:100B400000F00888700000001E21232419272110BE
:100B500010160E0000000000000000000000000061
:100B6000000000E018040200000000071820400008
:100B700000020418E00000000040201807000000F8
:100B8000404080F0804040000202010F010202005C
:100B9000000000F0000000000101011F0101010040
:100BA000000000000000000080B0700000000000A5
:100BB000000000000000000000010101010101012E
:100BC00000000000000000000030300000000000C5
:100BD000000000008060180400601806010000009A
:100BE00000E010080810E000000F102020100F0097
:100BF000001010F8000000000020203F202000001E
:100C00000070080808887000003028242221300075
:100C100000300888884830000018202020110E007D
:100C20000000C02010F8000000070424243F240026
:100C300000F80888880808000019212020110E00FB
:100C400000E0108888180000000F112020110E000D
:100C500000380808C83808000000003F0000000005
:100C60000070880808887000001C222121221C00C6
:100C700000E010080810E0000000312222110F00EF
:100C8000000000C0C0000000000000303000000084
:100C900000000080000000000000806000000000F4
:100CA000000080402010080000010204081020000D
:100CB0004040404040404000040404040404040058
:100CC00000081020408000000020100804020100ED
:100CD000007048080808F0000000003036010000ED
:100CE000C030C828E810E0000718272423140B00A0
:100CF0000000C038E0000000203C2302022738201A
:100D000008F8888888700000203F202020110E00FD
:100D1000C0300808080838000718202020100800F4
:100D200008F808080810E000203F202020100F00DD
:100D300008F88888E8081000203F202023201800A9
:100D400008F88888E8081000203F20000300000011
:100D5000C03008080838000007182020221E0200B2
:100D600008F808000008F808203F210101213F2071
:100D7000000808F8080800000020203F202000009C
:100D800000000808F8080800C08080807F0000008C
:100D900008F888C028180800203F200126382000C5
:100DA00008F8080000000000203F2020202030002C
:100DB00008F8F800F8F80800203F003F003F200046
:100DC00008F830C00008F808203F200007183F004E
:100DD000E01008080810E0000F10202020100F007D
:100DE00008F808080808F000203F21010101000070
:100DF000E01008080810E0000F18242438504F00B5
:100E000008F8888888887000203F2000030C302074
:100E100000708808080838000038202121221C00B2
:100E2000180808F8080818000000203F20000000FB
:100E300008F808000008F808001F202020201F00E4
:100E40000878880000C83808000007380E01000044
:100E5000F80800F80008F800033C0700073C03000E
:100E6000081868808068180820302C03032C302074
:100E70000838C800C83808000000203F20000000E3
:100E800010080808C838080020382621202018003B
:100E9000000000FE020202000000007F404040000F
:100EA000000C30C000000000000000010638C00047
:100EB00000020202FE000000004040407F000000EF
:100EC0000000040202020400000000000000000014
:100ED0000000000000000000808080808080808012
:100EE00000020204000000000000000000000000FA
:100EF00000008080808000000019242222223F20F0
:100F000008F8008080000000003F112020110E0032
:100F10000000008080800000000E112020201100C1
:100F2000000000808088F800000E112020103F2073
:100F30000000808080800000001F222222221300F7
:100F4000008080F0888888180020203F2020000042
:100F50000000808080808000006B949494936000F7
:100F600008F8008080800000203F210000203F2002
:100F700000809898000000000020203F2020000002
:100F8000000000809898000000C08080807F0000F2
:100F900008F8000080808000203F24022D302000CF
:100FA000000808F8000000000020203F202000007A
:100FB0008080808080808000203F20003F20003F94
:100FC0008080008080800000203F210000203F20A2
:100FD0000000808080800000001F202020201F0053
:100FE000808000808000000080FFA12020110E0082
:100FF0000000008080808000000E112020A0FF8073
:10100000808080008080800020203F21200001001F
:101010000000808080808000003324242424190074
:10102000008080E0808000000000001F2020000081
:101030008080000000808000001F202020103F20C2
:10104000808080000080808000010E300806010052
:1010500080800080008080800F300C030C300F00F7
:1010600000808000808080000020312E0E31200022
:10107000808080000080808080818E701806010052
:1010800000808080808080000021302C2221300070
:1010900000000000807C020200000000003F404091
:1010A00000000000FF00000000000000FF00000042
:1010B0000002027C800000000040403F0000000071
:1010C000000601010202040400000000000000000C
:0810D000010A00087501000887
:0410D8004D010008BE
:0810DC00010000008C0000205F
:040000050800095D89
:00000001FF
