:020000040800F2
:100000000050002051160008091200080B120008C9
:100010000D1200080F120008111200080000000065
:1000200000000000000000000000000013120008A3
:10003000151200080000000017120008191200082D
:1000400099160008991600089916000899160008D4
:1000500099160008991600089916000899160008C4
:1000600099160008991600089916000899160008B4
:1000700099160008991600089916000899160008A4
:100080009916000899160008991600089916000894
:100090009916000899160008991600089916000884
:1000A0009916000899160008991600089916000874
:1000B0009916000899160008991600089916000864
:1000C0009916000899160008991600089916000854
:1000D0009916000899160008991600089916000844
:1000E000D9120008991600089916000800000000AF
:1000F0000000000000000000000000000000000000
:0C01000000000000000000005FF808F1A3
:100110004FF0FF0C1CEAD0521EBF1CEAD15392EAEA
:100120000C0F93EA0C0F6FD01A4480EA010C4002C6
:1001300018BF5FEA41211ED04FF0006343EA501020
:1001400043EA5111A0FB01310CF00040B1F5000F62
:100150003EBF490041EAD3715B0040EA010062F111
:100160007F02FD2A1DD8B3F1004F40EBC25008BFFB
:1001700020F00100704790F0000F0CF0004C08BF19
:1001800049024CEA502040EA51207F3AC2BFD2F1E6
:10019000FF0340EAC250704740F400004FF00003F4
:1001A000013A5DDC12F1190FDCBF00F0004070472E
:1001B000C2F10002410021FA02F1C2F1200200FA6C
:1001C00002FC5FEA310040F1000053EA4C0308BF33
:1001D00020EADC70704792F0000F00F0004C02BF84
:1001E000400010F4000F013AF9D040EA0C0093F0FF
:1001F000000F01F0004C02BF490011F4000F013B59
:10020000F9D041EA0C018FE70CEAD15392EA0C0FC6
:1002100018BF93EA0C0F0AD030F0004C18BF31F031
:10022000004CD8D180EA010000F00040704790F007
:10023000000F17BF90F0004F084691F0000F91F0AB
:10024000004F14D092EA0C0F01D142020FD193EA71
:100250000C0F03D14B0218BF084608D180EA0100F9
:1002600000F0004040F0FE4040F40000704740F0D5
:10027000FE4040F44000704781F0004102E000BFC2
:1002800083F0004330B54FEA41044FEA430594EA56
:10029000050F08BF90EA020F1FBF54EA000C55EA91
:1002A000020C7FEA645C7FEA655C00F0E2804FEA62
:1002B0005454D4EB5555B8BF6D420CDD2C4480EA44
:1002C000020281EA030382EA000083EA010180EA74
:1002D000020281EA0303362D88BF30BD11F0004FC2
:1002E0004FEA01314FF4801C4CEA113102D04042F8
:1002F00061EB410113F0004F4FEA03334CEA133333
:1003000002D0524263EB430394EA050F00F0A7804A
:10031000A4F10104D5F1200E0DDB02FA0EFC22FA45
:1003200005F2801841F1000103FA0EF2801843FA39
:1003300005F359410EE0A5F120050EF1200E012A2A
:1003400003FA0EFC28BF4CF0020C43FA05F3C01868
:1003500051EBE37101F0004507D54FF0000EDCF1E1
:10036000000C7EEB00006EEB0101B1F5801F1BD38A
:10037000B1F5001F0CD349085FEA30004FEA3C0C8E
:1003800004F101044FEA445212F5800F80F09A8084
:10039000BCF1004F08BF5FEA500C50F1000041EB88
:1003A000045141EA050130BD5FEA4C0C404141EB8C
:1003B0000101013C28BFB1F5801FE9D291F0000F87
:1003C00004BF01460020B1FA81F308BF2033A3F136
:1003D0000B03B3F120020CDA0C3208DD02F1140C2D
:1003E000C2F10C0201FA0CF021FA02F10CE002F168
:1003F0001402D8BFC2F1200C01FA02F120FA0CFC61
:10040000DCBF41EA0C019040E41AA2BF01EB0451A9
:10041000294330BD6FEA04041F3C1CDA0C340EDCA7
:1004200004F11404C4F1200220FA04F001FA02F3EA
:1004300040EA030021FA04F345EA030130BDC4F1A8
:100440000C04C4F1200220FA02F001FA04F340EA9D
:100450000300294630BD21FA04F0294630BD94F04E
:10046000000F83F4801306BF81F480110134013D35
:100470004EE77FEA645C18BF7FEA655C29D094EAA6
:10048000050F08BF90EA020F05D054EA000C04BF24
:100490001946104630BD91EA030F1EBF002100200F
:1004A00030BD5FEA545C05D14000494128BF41F0AE
:1004B000004130BD14F580043CBF01F5801130BD12
:1004C00001F0004545F0FE4141F470014FF000009D
:1004D00030BD7FEA645C1ABF194610467FEA655C4E
:1004E0001CBF0B46024650EA013406BF52EA0335F0
:1004F00091EA030F41F4002130BD00BF90F0000FDE
:1005000004BF0021704730B54FF4806404F1320419
:100510004FF000054FF0000150E700BF90F0000FD2
:1005200004BF0021704730B54FF4806404F13204F9
:1005300010F0004548BF40424FF000013EE700BFC9
:1005400042004FEAE2014FEA31014FEA02701FBF59
:1005500012F07F4393F07F4F81F06051704732F08B
:100560007F4208BF704793F07F4F04BF41F40021E2
:10057000704730B54FF4607401F0004521F0004140
:100580001CE700BF50EA010208BF704730B54FF0CA
:1005900000050AE050EA010208BF704730B511F0CB
:1005A000004502D5404261EB41014FF4806404F103
:1005B00032045FEA915C3FF4D8AE4FF003025FEA89
:1005C000DC0C18BF03325FEADC0C18BF033202EB0D
:1005D000DC02C2F1200300FA03FC20FA02F001FA67
:1005E00003FE40EA0E0021FA02F11444BDE600BF0A
:1005F00070B54FF0FF0C4CF4E06C1CEA11541DBFB9
:100600001CEA135594EA0C0F95EA0C0F00F0DEF883
:100610002C4481EA030621EA4C5123EA4C5350EA68
:10062000013518BF52EA033541F4801143F48013B9
:1006300038D0A0FB02CE4FF00005E1FB02E506F04A
:100640000042E0FB03E54FF00006E1FB03569CF09F
:10065000000F18BF4EF0010EA4F1FF04B6F5007FA5
:1006600064F5407404D25FEA4E0E6D4146EB060617
:1006700042EAC62141EA55514FEAC52040EA5E50A0
:100680004FEACE2EB4F1FD0C88BFBCF5E06F1ED84A
:10069000BEF1004F08BF5FEA500E50F1000041EB81
:1006A000045170BD06F0004646EA010140EA02002E
:1006B00081EA0301B4EB5C04C2BFD4EB0C0541EA50
:1006C000045170BD41F480114FF0000E013C00F365
:1006D000AB8014F1360FDEBF002001F0004170BD89
:1006E000C4F10004203C35DA0C341BDC04F11404A2
:1006F000C4F1200500FA05F320FA04F001FA05F22E
:1007000040EA020001F0004221F0004110EBD370FA
:1007100021FA04F642EB06015EEA430E08BF20EA26
:10072000D37070BDC4F10C04C4F1200500FA04F3C9
:1007300020FA05F001FA04F240EA020001F000415B
:1007400010EBD37041F100015EEA430E08BF20EACE
:10075000D37070BDC4F1200500FA05F24EEA020E16
:1007600020FA04F301FA05F243EA020321FA04F045
:1007700001F0004121FA04F220EA020000EBD370FC
:100780005EEA430E08BF20EAD37070BD94F0000FFC
:100790000FD101F00046400041EB010111F4801F30
:1007A00008BF013CF7D041EA060195F0000F18BFE1
:1007B000704703F00046520043EB030313F4801F1D
:1007C00008BF013DF7D043EA0603704794EA0C0FD7
:1007D0000CEA135518BF95EA0C0F0CD050EA4106ED
:1007E00018BF52EA4306D1D181EA030101F000416A
:1007F0004FF0000070BD50EA410606BF1046194692
:1008000052EA430619D094EA0C0F02D150EA01369D
:1008100013D195EA0C0F05D152EA03361CBF1046DE
:1008200019460AD181EA030101F0004141F0FE417D
:1008300041F470014FF0000070BD41F0FE4141F401
:10084000780170BD70B54FF0FF0C4CF4E06C1CEA01
:1008500011541DBF1CEA135594EA0C0F95EA0C0FB6
:1008600000F0A7F8A4EB050481EA030E52EA033571
:100870004FEA013100F088804FEA03334FF0805592
:1008800045EA131343EA12634FEA022245EA1115BF
:1008900045EA10654FEA00260EF000419D4208BF70
:1008A000964244F1FD0404F5407402D25B084FEA1D
:1008B0003202B61A65EB03055B084FEA32024FF4C9
:1008C00080104FF4002CB6EB020E75EB030E22BF26
:1008D000B61A754640EA0C005B084FEA3202B6EBE6
:1008E000020E75EB030E22BFB61A754640EA5C0095
:1008F0005B084FEA3202B6EB020E75EB030E22BF25
:10090000B61A754640EA9C005B084FEA3202B6EB25
:10091000020E75EB030E22BFB61A754640EADC00E4
:1009200055EA060E18D04FEA051545EA16754FEA46
:1009300006164FEAC30343EA52734FEAC2025FEA64
:100940001C1CC0D111F4801F0BD141EA00014FF0F3
:1009500000004FF0004CB6E711F4801F04BF0143C4
:100960000020B4F1FD0C88BFBCF5E06F3FF6AFAEE0
:10097000B5EB030C04BFB6EB020C5FEA500C50F170
:10098000000041EB045170BD0EF0004E4EEA1131F3
:1009900014EB5C04C2BFD4EB0C0541EA045170BDFA
:1009A00041F480114FF0000E013C90E645EA060E3E
:1009B0008DE60CEA135594EA0C0F08BF95EA0C0F6C
:1009C0003FF43BAF94EA0C0F0AD150EA01347FF4B4
:1009D00034AF95EA0C0F7FF425AF104619462CE78B
:1009E00095EA0C0F06D152EA03353FF4FDAE1046EE
:1009F000194622E750EA410618BF52EA43067FF43F
:100A0000C5AE50EA41047FF40DAF52EA43057FF4CE
:100A1000EBAE12E74FEA4102B2F1E04324BFB3F577
:100A2000001CDCF1FE5C0DD901F0004C4FEAC00265
:100A30004CEA5070B2F1004F40EB830008BF20F049
:100A40000100704711F0804F21D113F13872BCBF03
:100A500001F00040704741F480114FEA5252C2F158
:100A60001802C2F1200C10FA0CF320FA02F018BFA1
:100A700040F001004FEAC1234FEAD32303FA0CFCF4
:100A800040EA0C0023FA02F34FEA4303CCE77FEA83
:100A9000625307D150EA01331EBF4FF0FE4040F4CD
:100AA0004000704701F0004040F0FE4040F400007C
:100AB000704700BF80F0004002E000BF81F00041BD
:100AC00042001FBF5FEA410392EA030F7FEA226CF4
:100AD0007FEA236C6AD04FEA1262D2EB1363C1BF84
:100AE000D218414048404140B8BF5B42192B88BFF3
:100AF000704710F0004F40F4000020F07F4018BF16
:100B0000404211F0004F41F4000121F07F4118BF35
:100B1000494292EA030F3FD0A2F1010241FA03FCDD
:100B200010EB0C00C3F1200301FA03F100F00043C5
:100B300002D5494260EB4000B0F5000F13D3B0F18D
:100B4000807F06D340084FEA310102F10102FE2AFC
:100B500051D2B1F1004F40EBC25008BF20F001006C
:100B600040EA03007047490040EB0000013A28BF0B
:100B7000B0F5000FEDD2B0FA80FCACF1080CB2EB8E
:100B80000C0200FA0CF0AABF00EBC250524218430C
:100B9000BCBFD0401843704792F0000F81F40001B1
:100BA00006BF80F400000132013BB5E74FEA410384
:100BB0007FEA226C18BF7FEA236C21D092EA030FF0
:100BC00004D092F0000F08BF0846704790EA010F6A
:100BD0001CBF0020704712F07F4F04D1400028BF97
:100BE00040F00040704712F100723CBF00F5000079
:100BF000704700F0004343F0FE4040F400007047AF
:100C00007FEA226216BF08467FEA2363014642025A
:100C100006BF5FEA412390EA010F40F4800070476D
:100C20004FF0000304E000BF10F0004348BF404213
:100C30005FEA000C08BF704743F0964301464FF04F
:100C400000001CE050EA010208BF70474FF00003AB
:100C50000AE000BF50EA010208BF704711F00043EC
:100C600002D5404261EB41015FEA010C02BF8446BC
:100C70000146002043F0B64308BFA3F18053A3F51B
:100C80000003BCFA8CF2083AA3EBC25310DB01FA62
:100C900002FC634400FA02FCC2F12002BCF1004FE6
:100CA00020FA02F243EB020008BF20F00100704777
:100CB00002F1200201FA02FCC2F1200250EA4C00CB
:100CC00021FA02F243EB020008BF20EADC70704711
:100CD00042000ED2B2F1FE4F0BD34FF09E03B3EBA6
:100CE000126209D44FEA002343F0004323FA02F0D2
:100CF00070474FF00000704712F1610F01D14202BE
:100D000002D14FF0FF3070474FF00000704700BF36
:100D10000348044B834202D0034B03B1184770478A
:100D20000800002008000020000000000548064BD5
:100D30001B1AD90F01EBA301491002D0034B03B1D9
:100D4000184770470800002008000020000000003D
:100D500010B5064C237843B9FFF7DAFF044B13B103
:100D60000448AFF300800123237010BD0800002069
:100D700000000000BC17000808B5054B1BB1054971
:100D80000548AFF30080BDE80840FFF7CFBF00BFC4
:100D9000000000000C000020BC17000882B00023F7
:100DA000019300932C4A136843F4803313602A4B59
:100DB0001B6803F400330093019B01330193009BF4
:100DC0001BB9019BB3F5A06FF1D1234B1B6813F442
:100DD000003F06D001230093009B012B04D002B0FA
:100DE000704700230093F7E71C4B1A6842F010028B
:100DF0001A601A6822F007021A601A6842F00202AA
:100E00001A60A3F580535A685A605A685A605A6843
:100E100042F480625A605A6822F47C125A605A681E
:100E200042F4E8125A601A6842F080721A600A4B63
:100E30001B6813F0007FFAD0074B5A6822F00302B8
:100E40005A605A6842F002025A60034B5B6803F032
:100E50000C03082BF9D1C2E7001002400020024029
:100E600008B5FFF79BFF08BD08B5104B1A6842F0A4
:100E700001021A6059680E4A0A405A601A6822F044
:100E8000847222F480321A601A6822F480221A6076
:100E90005A6822F4FE025A604FF41F029A60FFF76C
:100EA000DFFF044B4FF000629A6008BD0010024063
:100EB0000000FFF800ED00E010B4426822F4702258
:100EC00022F480720B6891F804C043EA0C231343A8
:100ED000436083680A4A1A40CB688C68234391F8C0
:100EE00005C043EA4C0313438360C36A23F47003D1
:100EF0000A7C013AD2B243EA0253C36210BC704783
:100F0000FDF7F1FF21B1836843F00103836070476F
:100F1000836823F0010383607047836843F008030C
:100F200083607047836813F0080F01D00120704779
:100F300000207047836843F0040383607047836830
:100F400013F0040F01D0012070470020704721B139
:100F5000836843F4A00383607047836823F4A0038D
:100F60008360704710B509291ED9C468A1F10A0C25
:100F70000CEB4C0C4FF0070E0EFA0CFE24EA0E049C
:100F800003FA0CFC44EA0C04C460062A1BD8436B29
:100F9000013A02EB82021F24944023EA040301FA7F
:100FA00002F21343436310BD046901EB410E4FF09D
:100FB000070C0CFA0EFC24EA0C0C03FA0EF34CEAB4
:100FC00003030361E1E70C2A0CD8036B073A02EB39
:100FD00082021F24944023EA040301FA02F213431D
:100FE0000363E0E7C36A0D3A02EB82021F249440D8
:100FF00023EA040391400B43C362D4E7C06C80B280
:1010000070470368194201D00120704700207047E3
:10101000064A136803405269024202D01BB90020FD
:101020007047002070470120704700BF0004014056
:10103000014B5861704700BF0004014030B5CB78C8
:1010400003F00F02964613F0100F03D091F802E060
:101050004EEA020E0B78FBB10568002301E0426105
:101060000133072B17D801229A40B1F800C032EAA9
:101070000C0CF5D19C004FF00F0C0CFA04FC25EA87
:101080000C050EFA04F42543CC78282CE7D0482C24
:10109000E6D10261E4E705600B88FF2B25D945689E
:1010A000002303E0CC78482C1CD00133072B1BD83D
:1010B00003F1080C012202FA0CF2B1F800C032EA86
:1010C0000C0CF2D19C004FF00F0C0CFA04FC25EA3A
:1010D0000C0C0EFA04F444EA0C05CC78282CE1D16F
:1010E0004261DFE70261E0E7456030BD0AB10161BE
:1010F0007047416170470000034A536823F440433E
:1011000003435360704700BF0010024021B1054AFD
:101110009369034393617047024A936923EA00038A
:10112000936170470010024021B1054AD36903431F
:10113000D3617047024AD36923EA0003D361704741
:10114000001002400000000008B500F029FA00F08D
:1011500065F8274A0121084600F0DEF9254A0121F9
:10116000022000F0D9F900F0A5F80446224B1880BF
:10117000FFF756FDFFF7E4F919A3D3E90023FFF7C2
:1011800061FB19A3D3E90023FFF732FAFFF742FC12
:101190001A4D2860042322460921012000F0D8F9C5
:1011A0002868FFF795FD024601230921022000F07F
:1011B000CFF913492868FEF7ABFFFFF789FD80B22E
:1011C000104BA3FB00235B09642202FB13020223E2
:1011D00092B20B21184600F0BBF9C4E7AFF30080D0
:1011E0009A99999999FFAF406666666666660A4065
:1011F000D4170008E0170008280000202400002071
:101200000000C8421F85EB517047FEE7FEE7FEE78E
:10121000FEE77047704770477047000070B586B0B2
:1012200001214FF40070FFF771FF01210420FFF747
:101230007BFF4FF40040FFF75FFF0126ADF814601D
:1012400000248DF8174003238DF8163005A91748A0
:10125000FFF7F4FE164D0523324621462846FFF7D8
:1012600081FE009403944FF4602302938DF80540AF
:101270008DF804408DF8106069462846FFF71CFE83
:1012800031462846FFF73EFE2846FFF746FE08484F
:10129000FFF748FE0128FAD00548FFF74BFE044847
:1012A000FFF74DFE0128FAD006B070BD00080140DE
:1012B0000024014008B501210648FFF748FE02213D
:1012C0000448FFF79EFE0028F9D00248FFF796FE7B
:1012D00008BD00BF0024014008B54FF40040FFF7EF
:1012E00097FE012800D008BD044A138801331380FB
:1012F0004FF40040FFF79CFEF5E700BF0000002020
:1013000070B582B001210820FFF700FF14238DF88B
:10131000073003238DF806304FF40066ADF8046003
:101320000C4C01A92046FFF789FE4FF48065ADF80B
:10133000045001A92046FFF781FE012231462046D4
:10134000FFF7D4FE012229462046FFF7CFFE02B068
:1013500070BD00BF000C014010B50D4C01224FF4D0
:1013600080612046FFF7C2FE01224FF40061204653
:10137000FFF7BCFE00224FF480612046FFF7B6FE67
:1013800000224FF400612046FFF7B0FE10BD00BF01
:10139000000C014010B50A4C00224FF48061204639
:1013A000FFF7A4FE01224FF400612046FFF79EFEE6
:1013B00001224FF480612046FFF798FE10BD00BF68
:1013C000000C014070B50646002416E08022224140
:1013D000124D32404FF480612846FFF787FE01220C
:1013E0004FF400612846FFF781FE00224FF40061B0
:1013F0002846FFF77BFE0134E4B2072CE6D9074C00
:1014000001224FF400612046FFF770FE00224FF4E6
:1014100000612046FFF76AFE70BD00BF000C01406E
:1014200010B50446FFF798FF7820FFF7CBFF0020A8
:10143000FFF7C8FF2046FFF7C5FFFFF7ABFF10BD62
:1014400010B50446FFF788FF7820FFF7BBFF402068
:10145000FFF7B8FF2046FFF7B5FFFFF79BFF10BD72
:1014600010B50C4640F0B000FFF7DAFF200940F05D
:101470001000FFF7D5FF04F00F00FFF7D1FF10BDFC
:1014800038B5002509E00020FFF7DAFF0134E4B2A7
:1014900014F0800FF7D00135EDB2072D05D80021EB
:1014A0002846FFF7DDFF0024F2E738BDF8B5064611
:1014B00015464F1EFF00FFB201384000394600F0CC
:1014C000FE00FFF7CDFF002409E0A5F12002114B3B
:1014D00003EB0213185DFFF7B3FF0134E4B2072CEE
:1014E000F3D97000C0B201383946C0B2FFF7B8FF77
:1014F00000240BE0A5F1200104F10802054B03EBE9
:101500000113985CFFF79CFF0134E4B2072CF1D97A
:10151000F8BD00BFF0170008F8B507460E4615469F
:10152000002406E0A119C9B23846FFF7BFFF013415
:10153000E4B22A5D002AF5D1F8BD0246012002E09E
:1015400002FB00F019464B1E0029F9D1704700003C
:101550002DE9F8438146884617461E46002419E0C7
:1015600004EB0805EDB2311B01390A20FFF7E5FF56
:10157000B7FBF0F0094AA2FB0032D20802EB82026C
:10158000A0EB42023032D2B229464846FFF78EFF26
:101590000134E4B2B442E3D3BDE8F883CDCCCCCC83
:1015A00008B5002204E00133B3F57A7FFBD30132A2
:1015B000B2F57A7F01D20023F6E7FFF7A1FEAE2055
:1015C000FFF72EFFD520FFF72BFF8020FFF728FF26
:1015D000A820FFF725FF3F20FFF722FFD320FFF7CA
:1015E0001FFF0020FFF71CFF4020FFF719FFA1207D
:1015F000FFF716FFC820FFF713FFDA20FFF710FFF1
:101600001220FFF70DFF8120FFF70AFFCF20FFF721
:1016100007FFD920FFF704FFF120FFF701FFDB20D0
:10162000FFF7FEFE3020FFF7FBFEA420FFF7F8FED9
:10163000A620FFF7F5FE8D20FFF7F2FE1420FFF73E
:10164000EFFEAF20FFF7ECFEFFF71AFF08BD00002A
:10165000FFF70AFC0B480C490C4A002302E0D4585F
:10166000C4500433C4188C42F9D3094A094C0023EE
:1016700001E013600432A242FBD300F00FF8FFF741
:1016800063FD70470000002008000020EC1D0008EA
:1016900008000020C4010020FEE7000070B50F4BD9
:1016A0000F4DAB42A3EB050607D00024B61055F84A
:1016B000043B01349847A642F9D800F07FF8094D61
:1016C000094B5E1BAB424FEAA60606D0002455F834
:1016D000043B01349847A642F9D870BDE01D0008CC
:1016E000E01D0008E01D0008E81D0008704700BF6D
:1016F000704700BF024B13B1024800F005B87047B5
:101700000000000015170008002301461A4618467D
:1017100000F014B838B5074D074C2C1BA41005D0A9
:10172000013C55F8043D9847002CF9D1BDE83840FC
:1017300000F04AB8EC1D0008E81D00082DE9F84348
:101740001B4D0646286898460F469146FFF7CEFF88
:10175000184B1C681CB3286865681F2D22DC4EB925
:101760006B1C0235636044F82570FFF7C1FF002051
:10177000BDE8F883012304EB8501C1F88890D4F813
:101780008821AB401A43022EC4F88821C1F8088191
:10179000E6D1D4F88C211A43C4F88C21E0E7064C3A
:1017A0001C60D8E7FFF7A4FF4FF0FF30E0E700BF71
:1017B000040000203000002034000020F8B500BFF5
:1017C000F8BC08BC9E467047F8B500BFF8BC08BC22
:0417D0009E4670477A
:1017D400414456616C75653A00000000566F6C61B7
:1017E4007467653A302E3030560000000000000067
:1017F400000000000000000000000000000000F8ED
:1018040000000000000000333000000000100C064F
:10181400100C0600000000000000000040C07840EA
:10182400C0784000043F04043F040400007088FCB6
:1018340008300000001820FF211E0000F008F0000E
:10184400E018000000211C031E211E0000F008887F
:10185400700000001E2123241927211010160E00E9
:10186400000000000000000000000000000000E094
:1018740018040200000000071820400000020418A9
:10188400E00000000040201807000000404080F005
:10189400804040000202010F01020200000000F03B
:1018A400000000000101011F01010100000000000F
:1018B4000000000080B07000000000000000000084
:1018C400000000000001010101010101000000000D
:1018D40000000000003030000000000000000000A4
:1018E40080601804006018060100000000E0100881
:1018F4000810E000000F102020100F00001010F856
:10190400000000000020203F202000000070080894
:101914000888700000302824222130000030088814
:10192400884830000018202020110E000000C0203C
:1019340010F8000000070424243F240000F808885D
:10194400880808000019212020110E0000E01088EA
:1019540088180000000F112020110E00003808081C
:10196400C83808000000003F00000000007088082C
:1019740008887000001C222121221C0000E01008AD
:101984000810E0000000312222110F00000000C006
:10199400C0000000000000303000000000000080A3
:1019A4000000000000008060000000000000804093
:1019B40020100800000102040810200040404040AC
:1019C40040404000040404040404040000081020FF
:1019D4004080000000201008040201000070480844
:1019E4000808F0000000003036010000C030C828AC
:1019F400E810E0000718272423140B000000C03867
:101A0400E0000000203C23020227382008F88888E0
:101A140088700000203F202020110E00C0300808EC
:101A240008083800071820202010080008F80808C3
:101A34000810E000203F202020100F0008F88888BC
:101A4400E8081000203F20202320180008F8888888
:101A5400E8081000203F200003000000C030080800
:101A64000838000007182020221E020008F8080089
:101A74000008F808203F210101213F20000808F850
:101A8400080800000020203F202000000000080873
:101A9400F8080800C08080807F00000008F888C033
:101AA40028180800203F20012638200008F80800E4
:101AB40000000000203F20202020300008F8F8001B
:101AC400F8F80800203F003F003F200008F830C02D
:101AD4000008F808203F200007183F00E01008081D
:101AE4000810E0000F10202020100F0008F808084C
:101AF4000808F000203F210101010000E01008085F
:101B04000810E0000F18242438504F0008F8888883
:101B140088887000203F2000030C30200070880863
:101B2400080838000038202121221C00180808F871
:101B3400080818000000203F2000000008F80800F2
:101B44000008F808001F202020201F0008788800C3
:101B540000C83808000007380E010000F80800F833
:101B64000008F800033C0700073C030008186880DD
:101B74008068180820302C03032C30200838C80053
:101B8400C83808000000203F2000000010080808A2
:101B9400C83808002038262120201800000000FE44
:101BA400020202000000007F40404000000C30C0F0
:101BB40000000000000000010638C000000202021C
:101BC400FE000000004040407F00000000000402CE
:101BD40002020400000000000000000000000000F9
:101BE40000000000808080808080808000020204E9
:101BF40000000000000000000000000000008080E1
:101C0400808000000019242222223F2008F800804E
:101C140080000000003F112020110E000000008011
:101C240080800000000E11202020110000000080A0
:101C34008088F800000E112020103F2000008080D2
:101C440080800000001F222222221300008080F0E6
:101C5400888888180020203F202000000000808011
:101C640080808000006B94949493600008F8008056
:101C740080800000203F210000203F2000809898B1
:101C8400000000000020203F202000000000008011
:101C94009898000000C08080807F000008F8000051
:101CA40080808000203F24022D302000000808F8A6
:101CB400000000000020203F202000008080808061
:101CC40080808000203F20003F20003F80800080F3
:101CD40080800000203F210000203F200000808001
:101CE40080800000001F202020201F0080800080B2
:101CF4008000000080FFA12020110E000000008061
:101D040080808000000E112020A0FF808080800051
:101D14008080800020203F2120000100000080807E
:101D2400808080000033242424241900008080E073
:101D3400808000000000001F202000008080000040
:101D440000808000001F202020103F208080800021
:101D54000080808000010E30080601008080008031
:101D6400008080800F300C030C300F000080800056
:101D7400808080000020312E0E3120008080800081
:101D84000080808080818E70180601000080808031
:101D9400808080000021302C2221300000000000CF
:101DA400807C020200000000003F40400000000070
:101DB400FF00000000000000FF0000000002027CA1
:101DC400800000000040403F0000000000060101C8
:0C1DD400020204040000000000000000F7
:081DE000F5160008790D00085A
:041DE800510D000891
:081DEC00010000002C000020A2
:040000050800165188
:00000001FF
