:020000040800F2
:1000000000500020F90A0008610600086306000895
:100010006506000867060008690600080000000081
:100020000000000000000000000000006B06000857
:100030006D060008000000006F0600087106000849
:10004000410B0008410B0008410B0008410B000860
:10005000410B0008410B0008410B0008410B000850
:10006000410B0008410B0008410B0008410B000840
:10007000410B0008410B0008410B0008410B000830
:10008000410B0008410B0008410B0008410B000820
:10009000410B0008410B0008410B0008410B000810
:1000A000410B0008410B0008410B0008410B000800
:1000B000410B0008410B0008410B0008410B0008F0
:1000C000410B0008410B0008410B0008410B0008E0
:1000D000410B00082D070008410B0008410B0008E8
:1000E00089070008410B0008410B000800000000D0
:1000F0000000000000000000000000000000000000
:0C01000000000000000000005FF808F1A3
:10010C000348044B834202D0034B03B1184770479A
:10011C000800002008000020000000000548064BE5
:10012C001B1AD90F01EBA301491002D0034B03B1E9
:10013C00184770470800002008000020000000004D
:10014C0010B5064C237843B9FFF7DAFF044B13B113
:10015C000448AFF300800123237010BD0800002079
:10016C0000000000640C000808B5054B1BB10549E4
:10017C000548AFF30080BDE80840FFF7CFBF00BFD4
:10018C00000000000C000020640C000882B000236A
:10019C00019300932C4A136843F4803313602A4B69
:1001AC001B6803F400330093019B01330193009B04
:1001BC001BB9019BB3F5A06FF1D1234B1B6813F452
:1001CC00003F06D001230093009B012B04D002B00A
:1001DC00704700230093F7E71C4B1A6842F010029B
:1001EC001A601A6822F007021A601A6842F00202BA
:1001FC001A60A3F580535A685A605A685A605A6854
:10020C0042F480625A605A6822F47C125A605A682E
:10021C0042F4E8125A601A6842F080721A600A4B73
:10022C001B6813F0007FFAD0074B5A6822F00302C8
:10023C005A605A6842F002025A60034B5B6803F042
:10024C000C03082BF9D1C2E7001002400020024039
:10025C0008B5FFF79BFF08BD08B5104B1A6842F0B4
:10026C0001021A6059680E4A0A405A601A6822F054
:10027C00847222F480321A601A6822F480221A6086
:10028C005A6822F4FE025A604FF41F029A60FFF77C
:10029C00DFFF044B4FF000629A6008BD0010024073
:1002AC000000FFF800ED00E040F0BF6040F40030CB
:1002BC00014BD860704700BF00ED00E0C378F3B18C
:1002CC00144BDB68DB43C3F30223C3F1040C0F2193
:1002DC00D940427802FA0CF283780B40134302782F
:1002EC001B01DBB20C490A4482F80033037803F09B
:1002FC001F005B090122824041F8232070470378DC
:10030C0003F01F015B0901228A402033024941F8A6
:10031C002320704700ED00E000E100E0064A13687E
:10032C0003405269024202D01BB9002070470020E2
:10033C0070470120704700BF00040140014B586119
:10034C00704700BF0004014030B5CB7803F00F02BA
:10035C00964613F0100F03D091F802E04EEA020E0D
:10036C000B78FBB10568002301E042610133072BD8
:10037C0017D801229A40B1F800C032EA0C0CF5D122
:10038C009C004FF00F0C0CFA04FC25EA0C050EFA3D
:10039C0004F42543CC78282CE7D0482CE6D1026114
:1003AC00E4E705600B88FF2B25D94568002303E0A3
:1003BC00CC78482C1CD00133072B1BD803F1080C2C
:1003CC00012202FA0CF2B1F800C032EA0C0CF2D1A4
:1003DC009C004FF00F0C0CFA04FC25EA0C0C0EFAE6
:1003EC0004F444EA0C05CC78282CE1D14261DFE717
:1003FC000261E0E7456030BD0AB1016170474161BF
:10040C007047000010B4294B5B6803F00C03042BFD
:10041C0029D0082B2AD0002B45D1254B036023492A
:10042C004B68C3F30313234CE25CD2B20368D34092
:10043C0043604A68C2F30222A25CD2B223FA02F2EF
:10044C0082604A68C2F3C222A25CD2B2D340C360BB
:10045C004A68C2F3813218498A5CD2B2B3FBF2F318
:10046C00036110BC7047124B0360D8E70F4A536806
:10047C005268C3F38343023312F4803F04D10F4A12
:10048C0002FB03F30360CAE7084A526812F4003F08
:10049C0004D00A4A02FB03F30360C0E7044A02FBE0
:1004AC0003F30360BBE7024B0360B8E700100240A4
:1004BC0000127A00800C00087C0C000800093D003A
:1004CC0021B1054A9369034393617047024A9369CA
:1004DC0023EA0003936170470010024030B587B0E7
:1004EC0004460D46038A9BB2CA8823F44053134337
:1004FC00038283899BB2898828896A8901430A43CC
:10050C0023F4B05323F00C031343A381A38A9BB2AF
:10051C00AA8923F440731343A38201A8FFF772FF47
:10052C001D4B9C4224D0039BA28912F4004F21D175
:10053C0003EB830303EB83032A689200B3FBF2F310
:10054C00164AA2FB031252091101642002FB10335C
:10055C00A28912F4004F16D11B0132330F4AA2FBB1
:10056C000323C3F343130B439BB2238107B030BD6A
:10057C00049BD9E703EB830303EB83032A68520044
:10058C00B3FBF2F3DCE7DB003233044AA2FB0323B8
:10059C00C3F342130B43E7E7003801401F85EB51CF
:1005AC0029B183899BB243F40053838170478389BB
:1005BC009BB223F400539BB283817047C1F3421C5E
:1005CC0001F01F0101238B40BCF1010F08D0BCF1DD
:1005DC00020F07D014303AB102681343036070471E
:1005EC000C30F8E71030F6E7026822EA03030360E8
:1005FC0070478088C0F3080070470388194201D007
:10060C000120704700207047090A01238B409BB2E0
:10061C00DB439BB20380704708B500F010FA00F082
:10062C0023F80A4A0121084600F0C8F900F09AF8AC
:10063C000128FBD100F090F80246054B18700523F9
:10064C000121022000F0D5F9F0E700BF900C000862
:10065C00240000207047FEE7FEE7FEE7FEE7704748
:10066C00704770477047000030B587B001214FF4D8
:10067C008040FFF725FF01210420FFF721FF1823FD
:10068C008DF817304FF40073ADF8143003258DF846
:10069C001650214C05A92046FFF756FE48238DF82D
:1006AC0017304FF48063ADF814308DF8165005A94F
:1006BC002046FFF749FE4FF4165301930023ADF883
:1006CC0010300C22ADF80E20ADF80C30ADF80A301D
:1006DC00ADF80830114D01A92846FFF7FFFE0122A5
:1006EC0040F225512846FFF769FF4FF4A060FFF751
:1006FC00DBFD25238DF8003001248DF803408DF8A7
:10070C0001408DF802406846FFF7D8FD2146284687
:10071C00FFF746FF07B030BD00080140003801402C
:10072C0010B520210948FFF768FF012800D010BD43
:10073C00064C2046FFF75DFF054B1870054B012258
:10074C001A7020212046FFF75FFFF0E700380140C8
:10075C002600002025000020014B1878704700BFB0
:10076C0026000020044B1878012801D00020704787
:10077C0000221A70704700BF2500002008B54FF406
:10078C000040FFF7CBFD012800D008BD044A1388B8
:10079C00013313804FF40040FFF7D0FDF5E700BFA5
:1007AC000000002070B582B001210820FFF788FE00
:1007BC0014238DF8073003238DF806304FF40066B0
:1007CC00ADF804600C4C01A92046FFF7BDFD4FF4B9
:1007DC008065ADF8045001A92046FFF7B5FD012254
:1007EC0031462046FFF708FE012229462046FFF736
:1007FC0003FE02B070BD00BF000C014010B50D4CE3
:10080C0001224FF480612046FFF7F6FD01224FF4E0
:10081C0000612046FFF7F0FD00224FF48061204676
:10082C00FFF7EAFD00224FF400612046FFF7E4FDDC
:10083C0010BD00BF000C014010B50A4C00224FF453
:10084C0080612046FFF7D8FD01224FF4006120465D
:10085C00FFF7D2FD01224FF480612046FFF7CCFD5B
:10086C0010BD00BF000C014070B50646002416E018
:10087C0080222241124D32404FF480612846FFF70E
:10088C00BBFD01224FF400612846FFF7B5FD0022A5
:10089C004FF400612846FFF7AFFD0134E4B2072C9A
:1008AC00E6D9074C01224FF400612046FFF7A4FD66
:1008BC0000224FF400612046FFF79EFD70BD00BF83
:1008CC00000C014010B50446FFF798FF7820FFF7A5
:1008DC00CBFF0020FFF7C8FF2046FFF7C5FFFFF74F
:1008EC00ABFF10BD10B50446FFF788FF7820FFF76B
:1008FC00BBFF4020FFF7B8FF2046FFF7B5FFFFF71F
:10090C009BFF10BD10B50C4640F0B000FFF7DAFFAE
:10091C00200940F01000FFF7D5FF04F00F00FFF79F
:10092C00D1FF10BD38B5002509E00020FFF7DAFF34
:10093C000134E4B214F0800FF7D00135EDB2072D7D
:10094C0005D800212846FFF7DDFF0024F2E738BD6B
:10095C00F8B5064615464F1EFF00FFB201384000A1
:10096C00394600F0FE00FFF7CDFF002409E0A5F1A9
:10097C002002114B03EB0213185DFFF7B3FF013498
:10098C00E4B2072CF3D97000C0B201383946C0B2BA
:10099C00FFF7B8FF00240BE0A5F1200104F10802D9
:1009AC00054B03EB0113985CFFF79CFF0134E4B299
:1009BC00072CF1D9F8BD00BFA00C0008F8B507460C
:1009CC000E461546002406E0A119C9B23846FFF7B9
:1009DC00BFFF0134E4B22A5D002AF5D1F8BD02460E
:1009EC00012002E002FB00F019464B1E0029F9D150
:1009FC0070472DE9F04180460F4616461D460024EF
:100A0C0007E0E1193732C9B24046FFF7A1FF0134C4
:100A1C00E4B2AC4211D2291B01391020FFF7DFFFE1
:100A2C00B6FBF0F202F00F02092AEAD8E1193032D3
:100A3C00C9B24046FFF78CFFE9E7BDE8F08108B585
:100A4C00002204E00133B3F57A7FFBD30132B2F517
:100A5C007A7F01D20023F6E7FFF7A4FEAE20FFF762
:100A6C0031FFD520FFF72EFF8020FFF72BFFA820AA
:100A7C00FFF728FF3F20FFF725FFD320FFF722FFCA
:100A8C000020FFF71FFF4020FFF71CFFA120FFF7FE
:100A9C0019FFC820FFF716FFDA20FFF713FF12200B
:100AAC00FFF710FF8120FFF70DFFCF20FFF70AFFA4
:100ABC00D920FFF707FFF120FFF704FFDB20FFF73A
:100ACC0001FF3020FFF7FEFEA420FFF7FBFEA6205F
:100ADC00FFF7F8FE8D20FFF7F5FE1420FFF7F2FE6E
:100AEC00AF20FFF7EFFEFFF71DFF08BDFFF7B4FBCC
:100AFC000B480C490C4A002302E0D458C450043370
:100B0C00C4188C42F9D3094A094C002301E0136044
:100B1C000432A242FBD300F00FF8FFF77DFD7047C3
:100B2C0000000020080000209C1200080800002093
:100B3C00C0010020FEE7000070B50F4B0F4DAB421B
:100B4C00A3EB050607D00024B61055F8043B01347E
:100B5C009847A642F9D800F07FF8094D094B5E1B67
:100B6C00AB424FEAA60606D0002455F8043B0134EC
:100B7C009847A642F9D870BD901200089012000850
:100B8C009012000898120008704700BF704700BF11
:100B9C00024B13B1024800F005B87047000000008A
:100BAC00BD0B0008002301461A46184600F014B885
:100BBC0038B5074D074C2C1BA41005D0013C55F83B
:100BCC00043D9847002CF9D1BDE8384000F04AB8F4
:100BDC009C120008981200082DE9F8431B4D06469C
:100BEC00286898460F469146FFF7CEFF184B1C68B5
:100BFC001CB3286865681F2D22DC4EB96B1C0235AE
:100C0C00636044F82570FFF7C1FF0020BDE8F8834E
:100C1C00012304EB8501C1F88890D4F88821AB40FE
:100C2C001A43022EC4F88821C1F80881E6D1D4F801
:100C3C008C211A43C4F88C21E0E7064C1C60D8E7E1
:100C4C00FFF7A4FF4FF0FF30E0E700BF04000020E7
:100C5C002C00002030000020F8B500BFF8BC08BC08
:100C6C009E467047F8B500BFF8BC08BC9E4670475E
:100C7C000204060800000000010203040102030440
:100C8C0006070809726563656976652044617461BD
:100C9C000000000000000000000000000000000048
:100CAC0000000000000000F800000000000000330D
:100CBC003000000000100C06100C060000000000B4
:100CCC000000000040C07840C0784000043F04049D
:100CDC003F040400007088FC08300000001820FF5E
:100CEC00211E0000F008F000E018000000211C0399
:100CFC001E211E0000F00888700000001E21232415
:100D0C001927211010160E00000000000000000032
:100D1C0000000000000000E01804020000000007C2
:100D2C001820400000020418E000000000402018C9
:100D3C0007000000404080F0804040000202010F9C
:100D4C0001020200000000F0000000000101011F80
:100D5C0001010100000000000000000080B07000E4
:100D6C000000000000000000000000000001010174
:100D7C000101010100000000000000000030300003
:100D8C0000000000000000008060180400601806DD
:100D9C000100000000E010080810E000000F102017
:100DAC0020100F00001010F8000000000020203F61
:100DBC0020200000007008080888700000302824EB
:100DCC00222130000030088888483000001820208C
:100DDC0020110E000000C02010F8000000070424B1
:100DEC00243F240000F808888808080000192120F6
:100DFC0020110E0000E0108888180000000F112050
:100E0C0020110E0000380808C83808000000003F08
:100E1C00000000000070880808887000001C222167
:100E2C0021221C0000E010080810E0000000312214
:100E3C0022110F00000000C0C000000000000030B4
:100E4C003000000000000080000000000000806006
:100E5C000000000000008040201008000001020487
:100E6C00081020004040404040404000040404046E
:100E7C00040404000008102040800000002010082A
:100E8C0004020100007048080808F000000000305F
:100E9C0036010000C030C828E810E00007182724ED
:100EAC0023140B000000C038E0000000203C23029B
:100EBC000227382008F8888888700000203F2020FE
:100ECC0020110E00C0300808080838000718202030
:100EDC002010080008F808080810E000203F202027
:100EEC0020100F0008F88888E8081000203F202008
:100EFC002320180008F88888E8081000203F2000FC
:100F0C0003000000C0300808083800000718202033
:100F1C00221E020008F808000008F808203F2101F2
:100F2C0001213F20000808F8080800000020203F9D
:100F3C002020000000000808F8080800C08080800D
:100F4C007F00000008F888C028180800203F200106
:100F5C002638200008F8080000000000203F202060
:100F6C002020300008F8F800F8F80800203F003F77
:100F7C00003F200008F830C00008F808203F20008F
:100F8C0007183F00E01008080810E0000F102020A0
:100F9C0020100F0008F808080808F000203F210175
:100FAC0001010000E01008080810E0000F182424CC
:100FBC0038504F0008F8888888887000203F20003F
:100FCC00030C3020007088080808380000382021F5
:100FDC0021221C00180808F8080818000000203FFF
:100FEC002000000008F808000008F808001F202066
:100FFC0020201F000878880000C838080000073837
:10100C000E010000F80800F80008F800033C070087
:10101C00073C0300081868808068180820302C03EF
:10102C00032C30200838C800C83808000000203FC6
:10103C002000000010080808C838080020382621B5
:10104C0020201800000000FE020202000000007FB9
:10105C0040404000000C30C00000000000000001C7
:10106C000638C00000020202FE00000000404040B2
:10107C007F000000000004020202040000000000D7
:10108C000000000000000000000000008080808054
:10109C00808080800002020400000000000000003C
:1010AC0000000000000080808080000000192422D5
:1010BC0022223F2008F8008080000000003F112011
:1010CC0020110E000000008080800000000E112016
:1010DC0020201100000000808088F800000E1120F4
:1010EC0020103F200000808080800000001F222202
:1010FC0022221300008080F0888888180020203F6E
:10110C00202000000000808080808000006B949480
:10111C009493600008F8008080800000203F21003C
:10112C0000203F2000809898000000000020203F05
:10113C0020200000000000809898000000C08080F3
:10114C00807F000008F8000080808000203F24028F
:10115C002D302000000808F8000000000020203F7F
:10116C00202000008080808080808000203F200034
:10117C003F20003F8080008080800000203F2100C5
:10118C0000203F200000808080800000001F202075
:10119C0020201F00808000808000000080FFA120A4
:1011AC0020110E000000008080808000000E1120B5
:1011BC0020A0FF80808080008080800020203F2144
:1011CC0020000100000080808080800000332424F7
:1011DC0024241900008080E0808000000000001FA3
:1011EC00202000008080000000808000001F202054
:1011FC0020103F20808080000080808000010E3015
:10120C000806010080800080008080800F300C0375
:10121C000C300F0000808000808080000020312E78
:10122C000E312000808080000080808080818E7054
:10123C001806010000808080808080000021302C06
:10124C002221300000000000807C0202000000001F
:10125C00003F404000000000FF00000000000000C4
:10126C00FF0000000002027C800000000040403FB4
:10127C00000000000006010102020404000000004E
:04128C00000000005E
:081290009D0B00087501000828
:041298004D010008FC
:08129C00010000002800002001
:0400000508000AF9EC
:00000001FF
