:020000040800F2
:1000000000500020050A0008B1050008B3050008EB
:10001000B5050008B7050008B90500080000000094
:10002000000000000000000000000000BB05000808
:10003000BD05000800000000BF050008C10500085C
:100040004D0A00084D0A00084D0A00084D0A000834
:100050004D0A00084D0A00084D0A00084D0A000824
:100060004D0A00084D0A00084D0A00084D0A000814
:100070004D0A00084D0A00084D0A00084D0A000804
:100080004D0A00084D0A00084D0A00084D0A0008F4
:100090004D0A00084D0A00084D0A00084D0A0008E4
:1000A0004D0A00084D0A00084D0A00084D0A0008D4
:1000B0004D0A00084D0A00084D0A00084D0A0008C4
:1000C0004D0A00084D0A00084D0A00084D0A0008B4
:1000D0004D0A00084D0A00084D0A00084D0A0008A4
:1000E000C50500084D0A00084D0A00080000000080
:1000F0000000000000000000000000000000000000
:0C01000000000000000000005FF808F1A3
:10010C000348044B834202D0034B03B1184770479A
:10011C000C0000200C000020000000000548064BDD
:10012C001B1AD90F01EBA301491002D0034B03B1E9
:10013C00184770470C0000200C0000200000000045
:10014C0010B5064C237843B9FFF7DAFF044B13B113
:10015C000448AFF300800123237010BD0C00002075
:10016C0000000000700B000808B5054B1BB10549D9
:10017C000548AFF30080BDE80840FFF7CFBF00BFD4
:10018C000000000010000020700B000882B000235B
:10019C00019300932C4A136843F4803313602A4B69
:1001AC001B6803F400330093019B01330193009B04
:1001BC001BB9019BB3F5A06FF1D1234B1B6813F452
:1001CC00003F06D001230093009B012B04D002B00A
:1001DC00704700230093F7E71C4B1A6842F010029B
:1001EC001A601A6822F007021A601A6842F00202BA
:1001FC001A60A3F580535A685A605A685A605A6854
:10020C0042F480625A605A6822F47C125A605A682E
:10021C0042F4E8125A601A6842F080721A600A4B73
:10022C001B6813F0007FFAD0074B5A6822F00302C8
:10023C005A605A6842F002025A60034B5B6803F042
:10024C000C03082BF9D1C2E7001002400020024039
:10025C0008B5FFF79BFF08BD08B5104B1A6842F0B4
:10026C0001021A6059680E4A0A405A601A6822F054
:10027C00847222F480321A601A6822F480221A6086
:10028C005A6822F4FE025A604FF41F029A60FFF77C
:10029C00DFFF044B4FF000629A6008BD0010024073
:1002AC000000FFF800ED00E010B402686FF30E12CE
:1002BC008B680C6A23430C6923434C6923438C6978
:1002CC002343CC6923434C6A23438C6A2343134353
:1002DC000360CB6843600B6883604B68C36010BCE1
:1002EC00704721B1036843F0010303607047036852
:1002FC0023F001031B041B0C036070474160704723
:10030C0010F0805F05D0054B1B68034204D0012020
:10031C007047034B1B68F8E700207047000402404D
:10032C000000024010F0805F02D0034B5860704711
:10033C00024B5860704700BF0004024000000240AE
:10034C00064A136803405269024202D01BB90020CE
:10035C007047002070470120704700BF0004014027
:10036C00014B5861704700BF0004014030B5CB7899
:10037C0003F00F02964613F0100F03D091F802E031
:10038C004EEA020E0B78FBB10568002301E04261D6
:10039C000133072B17D801229A40B1F800C032EA7A
:1003AC000C0CF5D19C004FF00F0C0CFA04FC25EA58
:1003BC000C050EFA04F42543CC78282CE7D0482CF5
:1003CC00E6D10261E4E705600B88FF2B25D945686F
:1003DC00002303E0CC78482C1CD00133072B1BD80E
:1003EC0003F1080C012202FA0CF2B1F800C032EA57
:1003FC000C0CF2D19C004FF00F0C0CFA04FC25EA0B
:10040C000C0C0EFA04F444EA0C05CC78282CE1D13F
:10041C004261DFE70261E0E7456030BD0AB101618E
:10042C00704741617047000021B1054A536903438D
:10043C0053617047024A536923EA000353617047C2
:10044C000010024021B1054A936903439361704740
:10045C00024A936923EA000393617047001002403B
:10046C0008B500F072FA4B4D4B4C0422214628463D
:10047C0000F0B6F8494A0121084600F025FA484A2E
:10048C000121032000F020FA08232A4619460120F6
:10049C0000F035FA082322461946032000F02FFA03
:1004AC003C4C22780132D2B22270637801336370F3
:1004BC00A3780133A370E3780133E37002230121A5
:1004CC00184600F01CFA022362780421184600F04A
:1004DC0016FA0223A2780721184600F010FA02231C
:1004EC00E2780A21184600F00AFA2B4D02232A78EA
:1004FC000121042000F003FA02236A780421084643
:10050C0000F0FDF90223AA780721042000F0F7F986
:10051C000223EA780A21042000F0F1F94FF47A70F2
:10052C0000F0BBF800F088F802232278012118466D
:10053C0000F0E5F9022362780421184600F0DFF997
:10054C000223A2780721184600F0D9F90223E27899
:10055C000A21184600F0D3F902232A78012104203D
:10056C0000F0CDF902236A780421084600F0C7F99F
:10057C000223AA780721042000F0C1F90223EA78AB
:10058C000A21042000F0BBF94FF47A7000F085F8D2
:10059C0086E700BF0000002028000020880B000820
:1005AC00900B00087047FEE7FEE7FEE7FEE770479A
:1005BC00704770477047000008B54FF40040FFF7D4
:1005CC00BFFE012800D008BD044A138801331380F4
:1005DC004FF40040FFF7C4FEF5E700BF0400002015
:1005EC0070B58CB004460E461546114B1A8001218D
:1005FC000846FFF719FF0194002407944023059344
:10060C0002960894802306930394049509944FF45E
:10061C0080430B934FF480530A93064D01A928464F
:10062C00FFF742FE21462846FFF75BFE0CB070BD7B
:10063C002C0000200800024010B50B4C0021204675
:10064C00FFF74FFE094B19882046FFF757FE012193
:10065C002046FFF746FE0220FFF752FE0028FAD094
:10066C000220FFF75FFE10BD080002402C000020A6
:10067C0000EBC000C0004FF0E023586100229A61EB
:10068C0005221A614FF0E0231B6913F4803FF9D067
:10069C004FF0E02304221A61704710B504E04FF4C8
:1006AC007A70FFF7E5FF2046441E0028F7D110BDF5
:1006BC0070B582B001210820FFF7C4FE14238DF819
:1006CC00073003238DF806304FF40066ADF8046054
:1006DC000C4C01A92046FFF749FE4FF48065ADF89C
:1006EC00045001A92046FFF741FE01223146204665
:1006FC00FFF794FE012229462046FFF78FFE02B039
:10070C0070BD00BF000C014010B50D4C01224FF420
:10071C0080612046FFF782FE01224FF400612046E3
:10072C00FFF77CFE00224FF480612046FFF776FE37
:10073C0000224FF400612046FFF770FE10BD00BF91
:10074C00000C014010B50A4C00224FF48061204689
:10075C00FFF764FE01224FF400612046FFF75EFEB6
:10076C0001224FF480612046FFF758FE10BD00BFF8
:10077C00000C014070B50646002416E08022224190
:10078C00124D32404FF480612846FFF747FE01229C
:10079C004FF400612846FFF741FE00224FF4006140
:1007AC002846FFF73BFE0134E4B2072CE6D9074C90
:1007BC0001224FF400612046FFF730FE00224FF477
:1007CC0000612046FFF72AFE70BD00BF000C0140FF
:1007DC0010B50446FFF798FF7820FFF7CBFF0020F9
:1007EC00FFF7C8FF2046FFF7C5FFFFF7ABFF10BDB3
:1007FC0010B50446FFF788FF7820FFF7BBFF4020B9
:10080C00FFF7B8FF2046FFF7B5FFFFF79BFF10BDC2
:10081C0010B50C4640F0B000FFF7DAFF200940F0AD
:10082C001000FFF7D5FF04F00F00FFF7D1FF10BD4C
:10083C0038B5002509E00020FFF7DAFF0134E4B2F7
:10084C0014F0800FF7D00135EDB2072D05D800213B
:10085C002846FFF7DDFF0024F2E738BDF8B5064661
:10086C0015464F1EFF00FFB201384000394600F01C
:10087C00FE00FFF7CDFF002409E0A5F12002114B8B
:10088C0003EB0213185DFFF7B3FF0134E4B2072C3E
:10089C00F3D97000C0B201383946C0B2FFF7B8FFC7
:1008AC0000240BE0A5F1200104F10802054B03EB39
:1008BC000113985CFFF79CFF0134E4B2072CF1D9CB
:1008CC00F8BD00BF980B0008F8B507460E46154654
:1008DC00002406E0A119C9B23846FFF7BFFF013466
:1008EC00E4B22A5D002AF5D1F8BD0246012002E0EF
:1008FC0002FB00F019464B1E0029F9D170472DE977
:10090C00F04180460F4616461D46002407E0E119CB
:10091C003732C9B24046FFF7A1FF0134E4B2AC4212
:10092C0011D2291B01391020FFF7DFFFB6FBF0F2C3
:10093C0002F00F02092AEAD8E1193032C9B2404656
:10094C00FFF78CFFE9E7BDE8F08108B5002204E071
:10095C000133B3F57A7FFBD30132B2F57A7F01D242
:10096C000023F6E7FFF7A4FEAE20FFF731FFD520FA
:10097C00FFF72EFF8020FFF72BFFA820FFF728FFA3
:10098C003F20FFF725FFD320FFF722FF0020FFF7C2
:10099C001FFF4020FFF71CFFA120FFF719FFC82005
:1009AC00FFF716FFDA20FFF713FF1220FFF710FFF7
:1009BC008120FFF70DFFCF20FFF70AFFD920FFF7AB
:1009CC0007FFF120FFF704FFDB20FFF701FF3020CA
:1009DC00FFF7FEFEA420FFF7FBFEA620FFF7F8FEB4
:1009EC008D20FFF7F5FE1420FFF7F2FEAF20FFF786
:1009FC00EFFEFFF71DFF08BDFFF72EFC0B480C495F
:100A0C000C4A002302E0D458C4500433C4188C425E
:100A1C00F9D3094A094C002301E013600432A242C5
:100A2C00FBD300F00FF8FFF71BFD70470000002010
:100A3C000C000020941100080C000020C8010020BC
:100A4C00FEE7000070B50F4B0F4DAB42A3EB050654
:100A5C0007D00024B61055F8043B01349847A64241
:100A6C00F9D800F07FF8094D094B5E1BAB424FEAF9
:100A7C00A60606D0002455F8043B01349847A6423C
:100A8C00F9D870BD88110008881100088811000879
:100A9C0090110008704700BF704700BF024B13B1A4
:100AAC00024800F005B8704700000000C90A0008B1
:100ABC00002301461A46184600F014B838B5074D05
:100ACC00074C2C1BA41005D0013C55F8043D98474D
:100ADC00002CF9D1BDE8384000F04AB89411000858
:100AEC00901100082DE9F8431B4D064628689846DE
:100AFC000F469146FFF7CEFF184B1C681CB32868B5
:100B0C0065681F2D22DC4EB96B1C0235636044F8FE
:100B1C002570FFF7C1FF0020BDE8F883012304EB2B
:100B2C008501C1F88890D4F88821AB401A43022E75
:100B3C00C4F88821C1F80881E6D1D4F88C211A4375
:100B4C00C4F88C21E0E7064C1C60D8E7FFF7A4FF43
:100B5C004FF0FF30E0E700BF080000203400002019
:100B6C0038000020F8B500BFF8BC08BC9E467047A2
:0C0B7C00F8B500BFF8BC08BC9E467047EE
:100B880044617461410000004461746142000000E6
:100B9800000000000000000000000000000000004D
:100BA800000000F8000000000000003330000000E2
:100BB80000100C06100C06000000000000000000E9
:100BC80040C07840C0784000043F04043F0404005B
:100BD800007088FC08300000001820FF211E00006B
:100BE800F008F000E018000000211C031E211E0080
:100BF80000F00888700000001E2123241927211006
:100C080010160E00000000000000000000000000A8
:100C1800000000E01804020000000007182040004F
:100C280000020418E000000000402018070000003F
:100C3800404080F0804040000202010F01020200A3
:100C4800000000F0000000000101011F0101010087
:100C5800000000000000000080B0700000000000EC
:100C68000000000000000000000101010101010175
:100C7800000000000000000000303000000000000C
:100C880000000000806018040060180601000000E1
:100C980000E010080810E000000F102020100F00DE
:100CA800001010F8000000000020203F2020000065
:100CB80000700808088870000030282422213000BD
:100CC80000300888884830000018202020110E00C5
:100CD8000000C02010F8000000070424243F24006E
:100CE80000F80888880808000019212020110E0043
:100CF80000E0108888180000000F112020110E0055
:100D080000380808C83808000000003F000000004C
:100D18000070880808887000001C222121221C000D
:100D280000E010080810E0000000312222110F0036
:100D3800000000C0C00000000000003030000000CB
:100D4800000000800000000000008060000000003B
:100D58000000804020100800000102040810200054
:100D6800404040404040400004040404040404009F
:100D78000008102040800000002010080402010034
:100D8800007048080808F000000000303601000034
:100D9800C030C828E810E0000718272423140B00E7
:100DA8000000C038E0000000203C23020227382061
:100DB80008F8888888700000203F202020110E0045
:100DC800C03008080808380007182020201008003C
:100DD80008F808080810E000203F202020100F0025
:100DE80008F88888E8081000203F202023201800F1
:100DF80008F88888E8081000203F20000300000059
:100E0800C03008080838000007182020221E0200F9
:100E180008F808000008F808203F210101213F20B8
:100E2800000808F8080800000020203F20200000E3
:100E380000000808F8080800C08080807F000000D3
:100E480008F888C028180800203F2001263820000C
:100E580008F8080000000000203F20202020300073
:100E680008F8F800F8F80800203F003F003F20008D
:100E780008F830C00008F808203F200007183F0095
:100E8800E01008080810E0000F10202020100F00C4
:100E980008F808080808F000203F210101010000B7
:100EA800E01008080810E0000F18242438504F00FC
:100EB80008F8888888887000203F2000030C3020BC
:100EC80000708808080838000038202121221C00FA
:100ED800180808F8080818000000203F2000000043
:100EE80008F808000008F808001F202020201F002C
:100EF8000878880000C83808000007380E0100008C
:100F0800F80800F80008F800033C0700073C030055
:100F1800081868808068180820302C03032C3020BB
:100F28000838C800C83808000000203F200000002A
:100F380010080808C8380800203826212020180082
:100F4800000000FE020202000000007F4040400056
:100F5800000C30C000000000000000010638C0008E
:100F680000020202FE000000004040407F00000036
:100F7800000004020202040000000000000000005B
:100F88000000000000000000808080808080808059
:100F98000002020400000000000000000000000041
:100FA80000008080808000000019242222223F2037
:100FB80008F8008080000000003F112020110E007A
:100FC8000000008080800000000E11202020110009
:100FD800000000808088F800000E112020103F20BB
:100FE8000000808080800000001F2222222213003F
:100FF800008080F0888888180020203F202000008A
:101008000000808080808000006B9494949360003E
:1010180008F8008080800000203F210000203F2049
:1010280000809898000000000020203F2020000049
:10103800000000809898000000C08080807F000039
:1010480008F8000080808000203F24022D30200016
:10105800000808F8000000000020203F20200000C1
:101068008080808080808000203F20003F20003FDB
:101078008080008080800000203F210000203F20E9
:101088000000808080800000001F202020201F009A
:10109800808000808000000080FFA12020110E00C9
:1010A8000000008080808000000E112020A0FF80BA
:1010B800808080008080800020203F212000010067
:1010C80000008080808080000033242424241900BC
:1010D800008080E0808000000000001F20200000C9
:1010E8008080000000808000001F202020103F200A
:1010F800808080000080808000010E30080601009A
:1011080080800080008080800F300C030C300F003E
:1011180000808000808080000020312E0E31200069
:10112800808080000080808080818E701806010099
:1011380000808080808080000021302C22213000B7
:1011480000000000807C020200000000003F4040D8
:1011580000000000FF00000000000000FF00000089
:101168000002027C800000000040403F00000000B8
:101178000006010102020404000000000000000053
:08118800A90A00087501000826
:041190004D01000805
:0C119400010203040100000030000020F4
:0400000508000A05E0
:00000001FF
