:020000040800F2
:1000000000500020910D0008CD080008CF0800081E
:10001000D1080008D3080008D50800080000000037
:10002000000000000000000000000000D7080008E9
:10003000D908000800000000DB080008DD080008FF
:10004000D90D0008D90D0008D90D0008D90D0008F8
:10005000D90D0008D90D0008D90D0008D90D0008E8
:10006000D90D0008D90D0008D90D0008D90D0008D8
:10007000D90D0008D90D0008D90D0008D90D0008C8
:10008000D90D0008D90D0008D90D0008D90D0008B8
:10009000D90D0008D90D0008D90D0008D90D0008A8
:1000A000D90D0008D90D0008D90D0008D90D000898
:1000B000D90D0008D90D0008D90D0008D90D000888
:1000C000D90D0008D90D0008D90D0008D90D000878
:1000D000D90D0008D90D0008D90D0008D90D000868
:1000E0000D0A0008D90D0008D90D00080000000015
:1000F0000000000000000000000000000000000000
:0C01000000000000000000005FF808F1A3
:10010C0080F0004002E000BF81F0004142001FBFC0
:10011C005FEA410392EA030F7FEA226C7FEA236CC9
:10012C006AD04FEA1262D2EB1363C1BFD2184140BE
:10013C0048404140B8BF5B42192B88BF704710F054
:10014C00004F40F4000020F07F4018BF404211F0F7
:10015C00004F41F4000121F07F4118BF494292EA5F
:10016C00030F3FD0A2F1010241FA03FC10EB0C008B
:10017C00C3F1200301FA03F100F0004302D5494218
:10018C0060EB4000B0F5000F13D3B0F1807F06D3C5
:10019C0040084FEA310102F10102FE2A51D2B1F1BD
:1001AC00004F40EBC25008BF20F0010040EA0300B2
:1001BC007047490040EB0000013A28BFB0F5000F32
:1001CC00EDD2B0FA80FCACF1080CB2EB0C0200FAE8
:1001DC000CF0AABF00EBC25052421843BCBFD04037
:1001EC001843704792F0000F81F4000106BF80F4B1
:1001FC0000000132013BB5E74FEA41037FEA226C74
:10020C0018BF7FEA236C21D092EA030F04D092F03E
:10021C00000F08BF0846704790EA010F1CBF002072
:10022C00704712F07F4F04D1400028BF40F00040CF
:10023C00704712F100723CBF00F50000704700F0EF
:10024C00004343F0FE4040F4000070477FEA226216
:10025C0016BF08467FEA23630146420206BF5FEAE7
:10026C00412390EA010F40F4800070474FF00003E7
:10027C0004E000BF10F0004348BF40425FEA000CAE
:10028C0008BF704743F0964301464FF000001CE056
:10029C0050EA010208BF70474FF000030AE000BFAC
:1002AC0050EA010208BF704711F0004302D54042EA
:1002BC0061EB41015FEA010C02BF8446014600205C
:1002CC0043F0B64308BFA3F18053A3F50003BCFA77
:1002DC008CF2083AA3EBC25310DB01FA02FC634424
:1002EC0000FA02FCC2F12002BCF1004F20FA02F22B
:1002FC0043EB020008BF20F00100704702F120021E
:10030C0001FA02FCC2F1200250EA4C0021FA02F27E
:10031C0043EB020008BF20EADC7070474FF0FF3C53
:10032C0006E000BF4FF0010C02E000BF4FF0010CE3
:10033C004DF804CD4FEA40024FEA41037FEA226CAC
:10034C0018BF7FEA236C11D001B052EA530C18BFCE
:10035C0090EA010F58BFB2EB030088BFC81738BF33
:10036C006FEAE17018BF40F0010070477FEA226C21
:10037C0002D15FEA402C05D17FEA236CE4D15FEA1D
:10038C00412CE1D05DF8040B704700BF8446084651
:10039C006146FFE70FB5FFF7C9FF002848BF10F112
:1003AC00000F0FBD4DF808EDFFF7F4FF0CBF012057
:1003BC0000205DF808FB00BF4DF808EDFFF7EAFFE1
:1003CC0034BF012000205DF808FB00BF4DF808ED9C
:1003DC00FFF7E0FF94BF012000205DF808FB00BF91
:1003EC004DF808EDFFF7D2FF94BF012000205DF817
:1003FC0008FB00BF4DF808EDFFF7C8FF34BF012024
:10040C0000205DF808FB00BF42000ED2B2F1FE4F97
:10041C000BD34FF09E03B3EB126209D44FEA0023C7
:10042C0043F0004323FA02F070474FF0000070478E
:10043C0012F1610F01D1420202D14FF0FF3070472F
:10044C004FF00000704700BF0348044B834202D0BA
:10045C00034B03B118477047080000200800002028
:10046C00000000000548064B1B1AD90F01EBA30135
:10047C00491002D0034B03B1184770470800002005
:10048C00080000200000000010B5064C237843B98A
:10049C00FFF7DAFF044B13B10448AFF300800123DC
:1004AC00237010BD0800002000000000FC0E0008A6
:1004BC0008B5054B1BB105490548AFF30080BDE8F5
:1004CC000840FFF7CFBF00BF000000000C00002069
:1004DC00FC0E000882B00023019300932C4A136891
:1004EC0043F4803313602A4B1B6803F400330093EE
:1004FC00019B01330193009B1BB9019BB3F5A06FCA
:10050C00F1D1234B1B6813F4003F06D00123009359
:10051C00009B012B04D002B0704700230093F7E737
:10052C001C4B1A6842F010021A601A6822F007027B
:10053C001A601A6842F002021A60A3F580535A68D6
:10054C005A605A685A605A6842F480625A605A6813
:10055C0022F47C125A605A6842F4E8125A601A6803
:10056C0042F080721A600A4B1B6813F0007FFAD0BD
:10057C00074B5A6822F003025A605A6842F0020292
:10058C005A60034B5B6803F00C03082BF9D1C2E7EC
:10059C00001002400020024008B5FFF79BFF08BD89
:1005AC0008B5104B1A6842F001021A6059680E4ADD
:1005BC000A405A601A6822F0847222F480321A605F
:1005CC001A6822F480221A605A6822F4FE025A60D9
:1005DC004FF41F029A60FFF7DFFF044B4FF00062ED
:1005EC009A6008BD001002400000FFF800ED00E02A
:1005FC00064A136803405269024202D01BB900201C
:10060C007047002070470120704700BF0004014074
:10061C00014B5861704700BF0004014030B5CB78E6
:10062C0003F00F02964613F0100F03D091F802E07E
:10063C004EEA020E0B78FBB10568002301E0426123
:10064C000133072B17D801229A40B1F800C032EAC7
:10065C000C0CF5D19C004FF00F0C0CFA04FC25EAA5
:10066C000C050EFA04F42543CC78282CE7D0482C42
:10067C00E6D10261E4E705600B88FF2B25D94568BC
:10068C00002303E0CC78482C1CD00133072B1BD85B
:10069C0003F1080C012202FA0CF2B1F800C032EAA4
:1006AC000C0CF2D19C004FF00F0C0CFA04FC25EA58
:1006BC000C0C0EFA04F444EA0C05CC78282CE1D18D
:1006CC004261DFE70261E0E7456030BD01617047E0
:1006DC00416170470AB10161704741617047000088
:1006EC0021B1054A9369034393617047024A9369A8
:1006FC0023EA0003936170470010024021B1054AC0
:10070C00D3690343D3617047024AD36923EA0003D8
:10071C00D36170470010024003889BB2214A90427B
:10072C0012D002F5006290420ED0B0F1804F0BD087
:10073C00A2F59832904207D002F58062904203D025
:10074C0002F58062904203D123F070034A88134370
:10075C00154A904208D002F58062904204D023F4EE
:10076C0040739BB2CA88134303808B8883850B88A4
:10077C0003850C4B98420FD003F5006398420BD0C5
:10078C0003F54063984207D003F58063984203D089
:10079C0003F58063984201D10B7A0386012383828F
:1007AC00704700BF002C01400010004000B5038CC6
:1007BC009BB223F480739BB20384028C92B2B0F888
:1007CC0004E01FFA8EFEB0F81CC01FFA8CFC2CF053
:1007DC00730C0B884CEA030C22F400720B891B027D
:1007EC009BB21A434B881B029BB21343134A904291
:1007FC0003D002F50062904217D123F400634A89BA
:10080C00120292B2134323F480638A88120292B2CA
:10081C0013432EF4405E8A89120192B24EEA020E04
:10082C00CA89120192B242EA0E0EA0F804E0A0F8B6
:10083C001CC0CA88828703845DF804FB002C01402D
:10084C000023038043808380C380038143818381A1
:10085C00C381704729B103889BB243F00103038025
:10086C00704703889BB223F001039BB2038070474F
:10087C0003899BB223F007039BB2038170478187E6
:10088C007047000008B500F0CFF800F023FA00F034
:10089C0021F8094C09492068FFF738FC206000F06A
:1008AC0033F8054B1868FFF7AFFD0246032301210F
:1008BC00022000F0E7F9F4E7240000200000484291
:1008CC007047FEE7FEE7FEE7FEE7704770477047AC
:1008DC007047000000B583B001210420FFF700FF32
:1008EC0010238DF807303023ADF8043003238DF836
:1008FC00063001A90348FFF791FE00F02FF803B072
:10090C005DF804FB0008014038B504460021FFF7F0
:10091C0071FD78B1104D10212846FFF7D7FE20212C
:10092C002846FFF7D5FE2046FFF76EFD80B200F09B
:10093C005FF838BD084D10212846FFF7C9FE20216D
:10094C002846FFF7C3FE04F10040FFF75DFD80B2BF
:10095C0000F04EF8EDE700BF0008014030B589B05B
:10096C0001210846FFF7CAFE01210420FFF7B8FE5B
:10097C000423ADF81C3018238DF81F3003238DF899
:10098C001E3007A91948FFF749FE4FF08040FFF7CA
:10099C006FFF0024ADF81640ADF8124044F61F630B
:1009AC00ADF814302323ADF810308DF8184004A99D
:1009BC004FF08040FFF7B0FE6846FFF741FF602321
:1009CC00ADF80030ADF80A400125ADF80250ADF895
:1009DC00064069464FF08040FFF7E8FE29464FF08D
:1009EC008040FFF737FF09B030BD00BF0008014061
:1009FC0008B501464FF08040FFF741FF08BD0000ED
:100A0C0008B54FF40040FFF7F3FD012800D008BDF6
:100A1C00044A1388013313804FF40040FFF7F8FDAC
:100A2C00F5E700BF0000002000B583B001210820CD
:100A3C00FFF756FE48238DF807300323ADF804303A
:100A4C008DF8063001A90348FFF7E8FD03B05DF807
:100A5C0004FB00BF000C014070B582B001210820DE
:100A6C00FFF73EFE14238DF8073003238DF8063074
:100A7C004FF40066ADF804600C4C01A92046FFF75A
:100A8C00CDFD4FF48065ADF8045001A92046FFF769
:100A9C00C5FD012231462046FFF71CFE01222946E6
:100AAC002046FFF717FE02B070BD00BF000C0140DE
:100ABC0010B50D4C01224FF480612046FFF70AFE61
:100ACC0001224FF400612046FFF704FE00224FF490
:100ADC0080612046FFF7FEFD00224FF400612046A6
:100AEC00FFF7F8FD10BD00BF000C014010B50A4C1B
:100AFC0000224FF480612046FFF7ECFD01224FF4F9
:100B0C0000612046FFF7E6FD01224FF4806120468C
:100B1C00FFF7E0FD10BD00BF000C014070B50646AC
:100B2C00002416E080222241124D32404FF48061A5
:100B3C002846FFF7CFFD01224FF400612846FFF74E
:100B4C00C9FD00224FF400612846FFF7C3FD0134B4
:100B5C00E4B2072CE6D9074C01224FF40061204681
:100B6C00FFF7B8FD00224FF400612046FFF7B2FDFD
:100B7C0070BD00BF000C014010B50446FFF798FF94
:100B8C007820FFF7CBFF0020FFF7C8FF2046FFF7C8
:100B9C00C5FFFFF7ABFF10BD10B50446FFF788FF8C
:100BAC007820FFF7BBFF4020FFF7B8FF2046FFF788
:100BBC00B5FFFFF79BFF10BD10B50C4640F0B00021
:100BCC00FFF7DAFF200940F01000FFF7D5FF04F023
:100BDC000F00FFF7D1FF10BD38B5002509E000204C
:100BEC00FFF7DAFF0134E4B214F0800FF7D00135CF
:100BFC00EDB2072D05D800212846FFF7DDFF0024B4
:100C0C00F2E738BDF8B5064615464F1EFF00FFB299
:100C1C0001384000394600F0FE00FFF7CDFF0024FC
:100C2C0009E0A5F12002114B03EB0213185DFFF74D
:100C3C00B3FF0134E4B2072CF3D97000C0B2013811
:100C4C003946C0B2FFF7B8FF00240BE0A5F1200134
:100C5C0004F10802054B03EB0113985CFFF79CFFB2
:100C6C000134E4B2072CF1D9F8BD00BF140F000811
:100C7C000246012002E002FB00F019464B1E00293F
:100C8C00F9D170472DE9F8438146884617461E4630
:100C9C00002419E004EB0805EDB2311B01390A20E0
:100CAC00FFF7E6FFB7FBF0F0094AA2FB0032D208CF
:100CBC0002EB8202A0EB42023032D2B22946484605
:100CCC00FFF7A0FF0134E4B2B442E3D3BDE8F883EC
:100CDC00CDCCCCCC08B5002204E00133B3F57A7F3F
:100CEC00FBD30132B2F57A7F01D20023F6E7FFF78E
:100CFC00B3FEAE20FFF740FFD520FFF73DFF80206D
:100D0C00FFF73AFFA820FFF737FF3F20FFF734FF2C
:100D1C00D320FFF731FF0020FFF72EFF4020FFF715
:100D2C002BFFA120FFF728FFC820FFF725FFDA20B3
:100D3C00FFF722FF1220FFF71FFF8120FFF71CFF98
:100D4C00CF20FFF719FFD920FFF716FFF120FFF78F
:100D5C0013FFDB20FFF710FF3020FFF70DFFA4205F
:100D6C00FFF70AFFA620FFF707FF8D20FFF704FF10
:100D7C001420FFF701FFAF20FFF7FEFEFFF72CFF5B
:100D8C0008BD0000FFF70CFC0B480C490C4A002373
:100D9C0002E0D458C4500433C4188C42F9D3094A25
:100DAC00094C002301E013600432A242FBD300F093
:100DBC000FF8FFF767FD70470000002008000020C7
:100DCC001015000808000020C0010020FEE70000FC
:100DDC0070B50F4B0F4DAB42A3EB050607D00024AB
:100DEC00B61055F8043B01349847A642F9D800F0E8
:100DFC007FF8094D094B5E1BAB424FEAA60606D0A5
:100E0C00002455F8043B01349847A642F9D870BD2C
:100E1C000415000804150008041500080C1500083A
:100E2C00704700BF704700BF024B13B1024800F07F
:100E3C0005B8704700000000550E0008002301465D
:100E4C001A46184600F014B838B5074D074C2C1B41
:100E5C00A41005D0013C55F8043D9847002CF9D15D
:100E6C00BDE8384000F04AB8101500080C15000811
:100E7C002DE9F8431B4D0646286898460F469146C7
:100E8C00FFF7CEFF184B1C681CB3286865681F2D34
:100E9C0022DC4EB96B1C0235636044F82570FFF7F9
:100EAC00C1FF0020BDE8F883012304EB8501C1F8E4
:100EBC008890D4F88821AB401A43022EC4F88821BC
:100ECC00C1F80881E6D1D4F88C211A43C4F88C21DE
:100EDC00E0E7064C1C60D8E7FFF7A4FF4FF0FF30AB
:100EEC00E0E700BF040000202C00002030000020B0
:100EFC00F8B500BFF8BC08BC9E467047F8B500BFFB
:080F0C00F8BC08BC9E467047CA
:100F140000000000000000000000000000000000CD
:100F2400000000F800000000000000333000000062
:100F340000100C06100C0600000000000000000069
:100F440040C07840C0784000043F04043F040400DB
:100F5400007088FC08300000001820FF211E0000EB
:100F6400F008F000E018000000211C031E211E0000
:100F740000F00888700000001E2123241927211086
:100F840010160E0000000000000000000000000029
:100F9400000000E0180402000000000718204000D0
:100FA40000020418E00000000040201807000000C0
:100FB400404080F0804040000202010F0102020024
:100FC400000000F0000000000101011F0101010008
:100FD400000000000000000080B07000000000006D
:100FE40000000000000000000001010101010101F6
:100FF400000000000000000000303000000000008D
:101004000000000080601804006018060100000061
:1010140000E010080810E000000F102020100F005E
:10102400001010F8000000000020203F20200000E5
:10103400007008080888700000302824222130003D
:1010440000300888884830000018202020110E0045
:101054000000C02010F8000000070424243F2400EE
:1010640000F80888880808000019212020110E00C3
:1010740000E0108888180000000F112020110E00D5
:1010840000380808C83808000000003F00000000CD
:101094000070880808887000001C222121221C008E
:1010A40000E010080810E0000000312222110F00B7
:1010B400000000C0C000000000000030300000004C
:1010C40000000080000000000000806000000000BC
:1010D40000008040201008000001020408102000D5
:1010E4004040404040404000040404040404040020
:1010F40000081020408000000020100804020100B5
:10110400007048080808F0000000003036010000B4
:10111400C030C828E810E0000718272423140B0067
:101124000000C038E0000000203C230202273820E1
:1011340008F8888888700000203F202020110E00C5
:10114400C0300808080838000718202020100800BC
:1011540008F808080810E000203F202020100F00A5
:1011640008F88888E8081000203F20202320180071
:1011740008F88888E8081000203F200003000000D9
:10118400C03008080838000007182020221E02007A
:1011940008F808000008F808203F210101213F2039
:1011A400000808F8080800000020203F2020000064
:1011B40000000808F8080800C08080807F00000054
:1011C40008F888C028180800203F2001263820008D
:1011D40008F8080000000000203F202020203000F4
:1011E40008F8F800F8F80800203F003F003F20000E
:1011F40008F830C00008F808203F200007183F0016
:10120400E01008080810E0000F10202020100F0044
:1012140008F808080808F000203F21010101000037
:10122400E01008080810E0000F18242438504F007C
:1012340008F8888888887000203F2000030C30203C
:1012440000708808080838000038202121221C007A
:10125400180808F8080818000000203F20000000C3
:1012640008F808000008F808001F202020201F00AC
:101274000878880000C83808000007380E0100000C
:10128400F80800F80008F800033C0700073C0300D6
:10129400081868808068180820302C03032C30203C
:1012A4000838C800C83808000000203F20000000AB
:1012B40010080808C8380800203826212020180003
:1012C400000000FE020202000000007F40404000D7
:1012D400000C30C000000000000000010638C0000F
:1012E40000020202FE000000004040407F000000B7
:1012F40000000402020204000000000000000000DC
:1013040000000000000000008080808080808080D9
:1013140000020204000000000000000000000000C1
:1013240000008080808000000019242222223F20B7
:1013340008F8008080000000003F112020110E00FA
:101344000000008080800000000E11202020110089
:10135400000000808088F800000E112020103F203B
:101364000000808080800000001F222222221300BF
:10137400008080F0888888180020203F202000000A
:101384000000808080808000006B949494936000BF
:1013940008F8008080800000203F210000203F20CA
:1013A40000809898000000000020203F20200000CA
:1013B400000000809898000000C08080807F0000BA
:1013C40008F8000080808000203F24022D30200097
:1013D400000808F8000000000020203F2020000042
:1013E4008080808080808000203F20003F20003F5C
:1013F4008080008080800000203F210000203F206A
:101404000000808080800000001F202020201F001A
:10141400808000808000000080FFA12020110E0049
:101424000000008080808000000E112020A0FF803A
:10143400808080008080800020203F2120000100E7
:10144400000080808080800000332424242419003C
:10145400008080E0808000000000001F2020000049
:101464008080000000808000001F202020103F208A
:10147400808080000080808000010E30080601001A
:1014840080800080008080800F300C030C300F00BF
:1014940000808000808080000020312E0E312000EA
:1014A400808080000080808080818E70180601001A
:1014B40000808080808080000021302C2221300038
:1014C40000000000807C020200000000003F404059
:1014D40000000000FF00000000000000FF0000000A
:1014E4000002027C800000000040403F0000000039
:1014F40000060101020204040000000000000000D4
:08150400350E0008BD040008CB
:04150C00950400083A
:0815100001000000280000208A
:0400000508000D9151
:00000001FF
