:020000040800F2
:1000000000500020210B0008E5040008E704000868
:10001000E9040008EB040008ED04000800000000FB
:10002000000000000000000000000000EF040008D5
:10003000F104000800000000F3040008F5040008C3
:10004000690B0008690B0008690B0008690B0008C0
:10005000690B0008690B0008690B0008690B0008B0
:10006000690B0008690B0008690B0008690B0008A0
:10007000690B0008690B0008690B0008690B000890
:10008000690B0008690B0008690B0008690B000880
:10009000690B0008690B0008690B0008690B000870
:1000A000690B0008690B0008690B0008690B000860
:1000B000690B0008690B0008690B0008690B000850
:1000C000690B0008690B0008690B0008690B000840
:1000D000690B0008F9040008690B0008690B0008A7
:1000E000BD060008690B0008690B0008000000004D
:1000F0000000000000000000000000000000000000
:0C01000000000000000000005FF808F1A3
:10010C000348044B834202D0034B03B1184770479A
:10011C000C0000200C000020000000000548064BDD
:10012C001B1AD90F01EBA301491002D0034B03B1E9
:10013C00184770470C0000200C0000200000000045
:10014C0010B5064C237843B9FFF7DAFF044B13B113
:10015C000448AFF300800123237010BD0C00002075
:10016C00000000008C0C000808B5054B1BB10549BC
:10017C000548AFF30080BDE80840FFF7CFBF00BFD4
:10018C0000000000100000208C0C000882B000233E
:10019C00019300932C4A136843F4803313602A4B69
:1001AC001B6803F400330093019B01330193009B04
:1001BC001BB9019BB3F5A06FF1D1234B1B6813F452
:1001CC00003F06D001230093009B012B04D002B00A
:1001DC00704700230093F7E71C4B1A6842F010029B
:1001EC001A601A6822F007021A601A6842F00202BA
:1001FC001A60A3F580535A685A605A685A605A6854
:10020C0042F480625A605A6822F47C125A605A682E
:10021C0042F4E8125A601A6842F080721A600A4B73
:10022C001B6813F0007FFAD0074B5A6822F00302C8
:10023C005A605A6842F002025A60034B5B6803F042
:10024C000C03082BF9D1C2E7001002400020024039
:10025C0008B5FFF79BFF08BD08B5104B1A6842F0B4
:10026C0001021A6059680E4A0A405A601A6822F054
:10027C00847222F480321A601A6822F480221A6086
:10028C005A6822F4FE025A604FF41F029A60FFF77C
:10029C00DFFF044B4FF000629A6008BD0010024073
:1002AC000000FFF800ED00E0064A136803405269B5
:1002BC00024202D01BB90020704700207047012079
:1002CC00704700BF00040140014B5861704700BFEC
:1002DC000004014030B5CB7803F00F02964613F0C2
:1002EC00100F03D091F802E04EEA020E0B78FBB12E
:1002FC000568002301E042610133072B17D8012266
:10030C009A40B1F800C032EA0C0CF5D19C004FF0C9
:10031C000F0C0CFA04FC25EA0C050EFA04F4254328
:10032C00CC78282CE7D0482CE6D10261E4E70560B4
:10033C000B88FF2B25D94568002303E0CC78482C8B
:10034C001CD00133072B1BD803F1080C012202FA35
:10035C000CF2B1F800C032EA0C0CF2D19C004FF058
:10036C000F0C0CFA04FC25EA0C0C0EFA04F444EA0B
:10037C000C05CC78282CE1D14261DFE70261E0E783
:10038C00456030BD8368194201D0012070470020C0
:10039C0070470AB1016170474161704721B1054A4C
:1003AC009369034393617047024A936923EA0003FC
:1003BC0093617047001002408088C0F308007047BA
:1003CC000388194201D00120704700207047090AA8
:1003DC0001238B409BB2DB439BB203807047000030
:1003EC0008B500F040FB00F0CBF8334C334D214600
:1003FC00284600F0C9F8324A0121084600F0F2FA0A
:10040C0002232A780521012000F007FB2D4A012147
:10041C00022000F0E7FA042322880521022000F0D4
:10042C00FCFA294A0121032000F0DCFA274A0121B9
:10043C00042000F0D7FA002000F001F9244D04222A
:10044C002946002000F0D7F8224C04222146002037
:10045C0000F00EF904232A780321084600F0DDFA97
:10046C0004236A780621032000F0D7FA0423AA7823
:10047C000921032000F0D1FA0423EA780C2103208F
:10048C0000F0CBFA042322780321184600F0C5FAB9
:10049C00042362780621184600F0BFFA0423A278E0
:1004AC000921184600F0B9FA0423E2780C21184609
:1004BC0000F0B3FAFEE700BF2C0000202E00002055
:1004CC00A40C0008AC0C0008B40C0008B80C000814
:1004DC0000000020280000207047FEE7FEE7FEE742
:1004EC00FEE77047704770477047000008B5202141
:1004FC001E48FFF765FF012800D008BD1B48FFF719
:10050C005BFFC0B21A4B1B788BB9232804D0202177
:10051C001648FFF75CFFF0E7164B1B78002BF6D163
:10052C00134B01221A70144B00221A70EFE7012BA7
:10053C000ED0022BEBD10A28E9D100230C4A137000
:10054C000D4A12780D498B540A4B01221A70DEE7C2
:10055C00232806D0084A13780849C854013313706D
:10056C00D5E7034B02221A70D1E700BF00380140D7
:10057C0030000020310000202F000020340000202B
:10058C0008B500F0CFF808BD38B504460D4600F0AC
:10059C00F3F8902000F0FAF8FF2000F0F7F8207044
:1005AC00FF2000F0F3F82880000284B22C80FF209A
:1005BC0000F0ECF804432C8000F0E3F838BD08B5EB
:1005CC0000F0DAF8062000F0E1F800F0DAF808BDE7
:1005DC0010B500F0D1F8052000F0D8F842F21074F4
:1005EC00FF2000F0D3F810F0010F01D0013CF7D13F
:1005FC0000F0C7F810BD70B504460E461546FFF75F
:10060C00DEFF00F0B9F8022000F0C0F8C4F3074098
:10061C0000F0BCF8C4F3072000F0B8F8E0B200F02A
:10062C00B5F8002404E0305D00F0B0F80134A4B259
:10063C00AC42F8D300F0A5F8FFF7CAFF70BD10B5B7
:10064C000446FFF7BCFF00F097F8202000F09EF85E
:10065C00C4F3074000F09AF8C4F3072000F096F8B2
:10066C00E0B200F093F800F08CF8FFF7B1FF10BD8A
:10067C0070B504460E46154600F07EF8032000F0D7
:10068C0085F8C4F3074000F081F8C4F3072000F0AC
:10069C007DF8E0B200F07AF8002404E0FF2000F0CE
:1006AC0075F830550134AC42F8D300F06AF870BDDF
:1006BC0008B54FF40040FFF7F7FD012800D008BD46
:1006CC00044A1388013313804FF40040FFF7FCFDFC
:1006DC00F5E700BF0400002008B5024610210248CF
:1006EC00FFF757FE08BD00BF0008014008B50246E1
:1006FC0040210248FFF74DFE08BD00BF0008014035
:10070C0008B5024620210248FFF743FE08BD00BF92
:10071C000008014008B580210148FFF733FE08BDF1
:10072C000008014030B583B001210420FFF736FEEC
:10073C0010238DF80730B023ADF8043003258DF865
:10074C0006500C4C01A92046FFF7C4FD48238DF838
:10075C0007304023ADF804308DF8065001A920462F
:10076C00FFF7B8FD0120FFF7B7FF0020FFF7C8FF28
:10077C0003B030BD0008014008B50120FFF7ACFF05
:10078C0008BD08B50020FFF7A7FF08BD70B50546EA
:10079C000026344604E00020FFF7B2FF0134E4B237
:1007AC00072C10D8802020412840FFF79FFF012004
:1007BC00FFF7A6FFFFF7AEFF0128ECD1082323417A
:1007CC003343DEB2E7E7304670BD000070B582B04F
:1007DC0001210820FFF7E2FD14238DF807300323D5
:1007EC008DF806304FF40066ADF804600C4C01A98E
:1007FC002046FFF76FFD4FF48065ADF8045001A95A
:10080C002046FFF767FD012231462046FFF7C1FD68
:10081C00012229462046FFF7BCFD02B070BD00BF87
:10082C00000C014010B50D4C01224FF480612046A4
:10083C00FFF7AFFD01224FF400612046FFF7A9FD41
:10084C0000224FF480612046FFF7A3FD00224FF4F5
:10085C0000612046FFF79DFD10BD00BF000C01405C
:10086C0010B50A4C00224FF480612046FFF791FD31
:10087C0001224FF400612046FFF78BFD01224FF45B
:10088C0080612046FFF785FD10BD00BF000C0140C4
:10089C0070B50646002416E080222241124D3240EB
:1008AC004FF480612846FFF774FD01224FF400617C
:1008BC002846FFF76EFD00224FF400612846FFF733
:1008CC0068FD0134E4B2072CE6D9074C01224FF441
:1008DC0000612046FFF75DFD00224FF400612046C9
:1008EC00FFF757FD70BD00BF000C014010B504466A
:1008FC00FFF798FF7820FFF7CBFF0020FFF7C8FF2A
:10090C002046FFF7C5FFFFF7ABFF10BD10B504463F
:10091C00FFF788FF7820FFF7BBFF4020FFF7B8FFF9
:10092C002046FFF7B5FFFFF79BFF10BD10B50C4637
:10093C0040F0B000FFF7DAFF200940F01000FFF79D
:10094C00D5FF04F00F00FFF7D1FF10BD38B500251F
:10095C0009E00020FFF7DAFF0134E4B214F0800F55
:10096C00F7D00135EDB2072D05D800212846FFF749
:10097C00DDFF0024F2E738BDF8B5064615464F1EDC
:10098C00FF00FFB201384000394600F0FE00FFF7CF
:10099C00CDFF002409E0A5F12002114B03EB02135B
:1009AC00185DFFF7B3FF0134E4B2072CF3D97000E4
:1009BC00C0B201383946C0B2FFF7B8FF00240BE0D3
:1009CC00A5F1200104F10802054B03EB0113985C1F
:1009DC00FFF79CFF0134E4B2072CF1D9F8BD00BF3E
:1009EC00BC0C0008F8B507460E461546002406E078
:1009FC00A119C9B23846FFF7BFFF0134E4B22A5D32
:100A0C00002AF5D1F8BD0246012002E002FB00F0FD
:100A1C0019464B1E0029F9D170472DE9F04180464B
:100A2C000F4616461D46002407E0E1193732C9B2BD
:100A3C004046FFF7A1FF0134E4B2AC4211D2291BAE
:100A4C0001391020FFF7DFFFB6FBF0F202F00F02C6
:100A5C00092AEAD8E1193032C9B24046FFF78CFFB7
:100A6C00E9E7BDE8F08108B5002204E00133B3F5F5
:100A7C007A7FFBD30132B2F57A7F01D20023F6E7FD
:100A8C00FFF7A4FEAE20FFF731FFD520FFF72EFFB6
:100A9C008020FFF72BFFA820FFF728FF3F20FFF750
:100AAC0025FFD320FFF722FF0020FFF71FFF402078
:100ABC00FFF71CFFA120FFF719FFC820FFF716FF57
:100ACC00DA20FFF713FF1220FFF710FF8120FFF74A
:100ADC000DFFCF20FFF70AFFD920FFF707FFF1200A
:100AEC00FFF704FFDB20FFF701FF3020FFF7FEFECE
:100AFC00A420FFF7FBFEA620FFF7F8FE8D20FFF7E2
:100B0C00F5FE1420FFF7F2FEAF20FFF7EFFEFFF724
:100B1C001DFF08BDFFF7A0FB0B480C490C4A002336
:100B2C0002E0D458C4500433C4188C42F9D3094A97
:100B3C00094C002301E013600432A242FBD300F005
:100B4C000FF8FFF74DFC7047000000200C00002050
:100B5C00B81200080C00002030020020FEE7000054
:100B6C0070B50F4B0F4DAB42A3EB050607D000241D
:100B7C00B61055F8043B01349847A642F9D800F05A
:100B8C007FF8094D094B5E1BAB424FEAA60606D017
:100B9C00002455F8043B01349847A642F9D870BD9F
:100BAC00AC120008AC120008AC120008B412000819
:100BBC00704700BF704700BF024B13B1024800F0F2
:100BCC0005B8704700000000E50B00080023014643
:100BDC001A46184600F014B838B5074D074C2C1BB4
:100BEC00A41005D0013C55F8043D9847002CF9D1D0
:100BFC00BDE8384000F04AB8B8120008B41200083A
:100C0C002DE9F8431B4D0646286898460F46914639
:100C1C00FFF7CEFF184B1C681CB3286865681F2DA6
:100C2C0022DC4EB96B1C0235636044F82570FFF76B
:100C3C00C1FF0020BDE8F883012304EB8501C1F856
:100C4C008890D4F88821AB401A43022EC4F888212E
:100C5C00C1F80881E6D1D4F88C211A43C4F88C2150
:100C6C00E0E7064C1C60D8E7FFF7A4FF4FF0FF301D
:100C7C00E0E700BF080000209C000020A00000203E
:100C8C00F8B500BFF8BC08BC9E467047F8B500BF6D
:080C9C00F8BC08BC9E4670473D
:100CA4004D49442000000000444944200000000055
:100CB400573A2000523A20000000000000000000D3
:100CC4000000000000000000000000F80000000028
:100CD400000000333000000000100C06100C060069
:100CE400000000000000000040C07840C0784000D0
:100CF400043F04043F040400007088FC0830000032
:100D0400001820FF211E0000F008F000E018000089
:100D140000211C031E211E0000F008887000000042
:100D24001E2123241927211010160E000000000094
:100D34000000000000000000000000E018040200B1
:100D4400000000071820400000020418E000000022
:100D54000040201807000000404080F08040400020
:100D64000202010F01020200000000F00000000076
:100D74000101011F0101010000000000000000004A
:100D840080B07000000000000000000000000000BF
:100D94000001010101010101000000000000000048
:100DA40000303000000000000000000080601804E3
:100DB400006018060100000000E010080810E000C0
:100DC400000F102020100F00001010F80000000089
:100DD4000020203F202000000070080808887000D0
:100DE4000030282422213000003008888848300050
:100DF4000018202020110E000000C02010F8000070
:100E040000070424243F240000F808888808080008
:100E14000019212020110E0000E01088881800001D
:100E2400000F112020110E0000380808C8380800EF
:100E34000000003F0000000000708808088870006F
:100E4400001C222121221C0000E010080810E000F0
:100E54000000312222110F00000000C0C000000079
:100E6400000000303000000000000080000000009E
:100E74000000806000000000000080402010080096
:100E8400000102040810200040404040404040005F
:100E9400040404040404040000081020408000003A
:100EA4000020100804020100007048080808F0003F
:100EB4000000003036010000C030C828E810E0000F
:100EC4000718272423140B000000C038E00000009A
:100ED400203C23020227382008F888888870000004
:100EE400203F202020110E00C030080808083800D8
:100EF400071820202010080008F808080810E0004F
:100F0400203F202020100F0008F88888E8081000EF
:100F1400203F20202320180008F88888E8081000C3
:100F2400203F200003000000C030080808380000FB
:100F340007182020221E020008F808000008F808FC
:100F4400203F210101213F20000808F80808000083
:100F54000020203F2020000000000808F8080800B6
:100F6400C08080807F00000008F888C0281808002E
:100F7400203F20012638200008F808000000000067
:100F8400203F20202020300008F8F800F8F808005E
:100F9400203F003F003F200008F830C00008F80858
:100FA400203F200007183F00E01008080810E00068
:100FB4000F10202020100F0008F808080808F0007F
:100FC400203F210101010000E01008080810E000A2
:100FD4000F18242438504F0008F888888888700037
:100FE400203F2000030C30200070880808083800D7
:100FF4000038202121221C00180808F808081800CD
:101004000000203F2000000008F808000008F8084D
:10101400001F202020201F000878880000C83808FE
:10102400000007380E010000F80800F80008F80076
:10103400033C0700073C0300081868808068180810
:1010440020302C03032C30200838C800C83808008E
:101054000000203F2000000010080808C8380800DD
:101064002038262120201800000000FE0202020081
:101074000000007F40404000000C30C00000000031
:10108400000000010638C00000020202FE00000059
:10109400004040407F0000000000040202020400FF
:1010A400000000000000000000000000000000003C
:1010B4008080808080808080000202040000000024
:1010C400000000000000000000008080808000001C
:1010D4000019242222223F2008F80080800000000A
:1010E400003F112020110E000000008080800000CD
:1010F400000E112020201100000000808088F800DC
:10110400000E112020103F2000008080808000000D
:10111400001F222222221300008080F08888881871
:101124000020203F2020000000008080808080007C
:10113400006B94949493600008F800808080000011
:10114400203F210000203F200080989800000000EC
:101154000020203F2020000000000080989800001C
:1011640000C08080807F000008F80000808080003C
:10117400203F24022D302000000808F80000000061
:101184000020203F2020000080808080808080001C
:10119400203F20003F20003F8080008080800000AE
:1011A400203F210000203F2000008080808000003C
:1011B400001F202020201F0080800080800000006D
:1011C40080FFA12020110E0000000080808080009C
:1011D400000E112020A0FF8080808000808080008D
:1011E40020203F21200001000000808080808000BA
:1011F4000033242424241900008080E0808000002F
:101204000000001F2020000080800000008080007B
:10121400001F202020103F208080800000808080DC
:1012240000010E300806010080800080008080806C
:101234000F300C030C300F00008080008080800091
:101244000020312E0E3120008080800000808080BC
:1012540080818E701806010000808080808080006C
:101264000021302C2221300000000000807C02028A
:1012740000000000003F404000000000FF000000AC
:1012840000000000FF0000000002027C800000005B
:101294000040403F00000000000601010202040477
:0812A400000000000000000042
:0812AC00C50B000875010008E4
:0412B4004D010008E0
:0C12B80001020305010000009800002066
:0400000508000B21C3
:00000001FF
